{
  "contractName": "OMICrowdsale",
  "abi": [
    {
      "constant": true,
      "inputs": [],
      "name": "rate",
      "outputs": [
        {
          "name": "",
          "type": "uint256"
        }
      ],
      "payable": false,
      "stateMutability": "view",
      "type": "function"
    },
    {
      "constant": false,
      "inputs": [],
      "name": "unpause",
      "outputs": [],
      "payable": false,
      "stateMutability": "nonpayable",
      "type": "function"
    },
    {
      "constant": true,
      "inputs": [],
      "name": "weiRaised",
      "outputs": [
        {
          "name": "",
          "type": "uint256"
        }
      ],
      "payable": false,
      "stateMutability": "view",
      "type": "function"
    },
    {
      "constant": true,
      "inputs": [],
      "name": "wallet",
      "outputs": [
        {
          "name": "",
          "type": "address"
        }
      ],
      "payable": false,
      "stateMutability": "view",
      "type": "function"
    },
    {
      "constant": true,
      "inputs": [],
      "name": "paused",
      "outputs": [
        {
          "name": "",
          "type": "bool"
        }
      ],
      "payable": false,
      "stateMutability": "view",
      "type": "function"
    },
    {
      "constant": true,
      "inputs": [],
      "name": "totalTokensSold",
      "outputs": [
        {
          "name": "",
          "type": "uint256"
        }
      ],
      "payable": false,
      "stateMutability": "view",
      "type": "function"
    },
    {
      "constant": true,
      "inputs": [
        {
          "name": "",
          "type": "address"
        }
      ],
      "name": "purchaseRecords",
      "outputs": [
        {
          "name": "",
          "type": "uint256"
        }
      ],
      "payable": false,
      "stateMutability": "view",
      "type": "function"
    },
    {
      "constant": false,
      "inputs": [],
      "name": "pause",
      "outputs": [],
      "payable": false,
      "stateMutability": "nonpayable",
      "type": "function"
    },
    {
      "constant": true,
      "inputs": [],
      "name": "totalUSDRaised",
      "outputs": [
        {
          "name": "",
          "type": "uint256"
        }
      ],
      "payable": false,
      "stateMutability": "view",
      "type": "function"
    },
    {
      "constant": false,
      "inputs": [
        {
          "name": "_beneficiary",
          "type": "address"
        }
      ],
      "name": "removeFromWhitelist",
      "outputs": [],
      "payable": false,
      "stateMutability": "nonpayable",
      "type": "function"
    },
    {
      "constant": false,
      "inputs": [
        {
          "name": "_beneficiaries",
          "type": "address[]"
        }
      ],
      "name": "addManyToWhitelist",
      "outputs": [],
      "payable": false,
      "stateMutability": "nonpayable",
      "type": "function"
    },
    {
      "constant": true,
      "inputs": [],
      "name": "isFinalized",
      "outputs": [
        {
          "name": "",
          "type": "bool"
        }
      ],
      "payable": false,
      "stateMutability": "view",
      "type": "function"
    },
    {
      "constant": true,
      "inputs": [],
      "name": "owner",
      "outputs": [
        {
          "name": "",
          "type": "address"
        }
      ],
      "payable": false,
      "stateMutability": "view",
      "type": "function"
    },
    {
      "constant": true,
      "inputs": [
        {
          "name": "",
          "type": "address"
        }
      ],
      "name": "whitelist",
      "outputs": [
        {
          "name": "",
          "type": "bool"
        }
      ],
      "payable": false,
      "stateMutability": "view",
      "type": "function"
    },
    {
      "constant": false,
      "inputs": [
        {
          "name": "_beneficiary",
          "type": "address"
        }
      ],
      "name": "addToWhitelist",
      "outputs": [],
      "payable": false,
      "stateMutability": "nonpayable",
      "type": "function"
    },
    {
      "constant": true,
      "inputs": [],
      "name": "tokenLock",
      "outputs": [
        {
          "name": "",
          "type": "address"
        }
      ],
      "payable": false,
      "stateMutability": "view",
      "type": "function"
    },
    {
      "constant": false,
      "inputs": [
        {
          "name": "_beneficiary",
          "type": "address"
        }
      ],
      "name": "buyTokens",
      "outputs": [],
      "payable": true,
      "stateMutability": "payable",
      "type": "function"
    },
    {
      "constant": false,
      "inputs": [
        {
          "name": "newOwner",
          "type": "address"
        }
      ],
      "name": "transferOwnership",
      "outputs": [],
      "payable": false,
      "stateMutability": "nonpayable",
      "type": "function"
    },
    {
      "constant": true,
      "inputs": [],
      "name": "token",
      "outputs": [
        {
          "name": "",
          "type": "address"
        }
      ],
      "payable": false,
      "stateMutability": "view",
      "type": "function"
    },
    {
      "inputs": [
        {
          "name": "_startingRate",
          "type": "uint256"
        },
        {
          "name": "_ETHWallet",
          "type": "address"
        },
        {
          "name": "_OMIToken",
          "type": "address"
        },
        {
          "name": "_OMITokenLock",
          "type": "address"
        }
      ],
      "payable": false,
      "stateMutability": "nonpayable",
      "type": "constructor"
    },
    {
      "payable": true,
      "stateMutability": "payable",
      "type": "fallback"
    },
    {
      "anonymous": false,
      "inputs": [
        {
          "indexed": false,
          "name": "newRate",
          "type": "uint256"
        }
      ],
      "name": "RateChanged",
      "type": "event"
    },
    {
      "anonymous": false,
      "inputs": [
        {
          "indexed": false,
          "name": "newTotal",
          "type": "uint256"
        }
      ],
      "name": "USDRaisedUpdated",
      "type": "event"
    },
    {
      "anonymous": false,
      "inputs": [],
      "name": "CrowdsaleStarted",
      "type": "event"
    },
    {
      "anonymous": false,
      "inputs": [],
      "name": "CrowdsaleFinished",
      "type": "event"
    },
    {
      "anonymous": false,
      "inputs": [],
      "name": "Pause",
      "type": "event"
    },
    {
      "anonymous": false,
      "inputs": [],
      "name": "Unpause",
      "type": "event"
    },
    {
      "anonymous": false,
      "inputs": [
        {
          "indexed": true,
          "name": "previousOwner",
          "type": "address"
        },
        {
          "indexed": true,
          "name": "newOwner",
          "type": "address"
        }
      ],
      "name": "OwnershipTransferred",
      "type": "event"
    },
    {
      "anonymous": false,
      "inputs": [
        {
          "indexed": true,
          "name": "purchaser",
          "type": "address"
        },
        {
          "indexed": true,
          "name": "beneficiary",
          "type": "address"
        },
        {
          "indexed": false,
          "name": "value",
          "type": "uint256"
        },
        {
          "indexed": false,
          "name": "amount",
          "type": "uint256"
        }
      ],
      "name": "TokenPurchase",
      "type": "event"
    },
    {
      "constant": false,
      "inputs": [
        {
          "name": "_newRate",
          "type": "uint256"
        }
      ],
      "name": "setRate",
      "outputs": [
        {
          "name": "",
          "type": "bool"
        }
      ],
      "payable": false,
      "stateMutability": "nonpayable",
      "type": "function"
    },
    {
      "constant": false,
      "inputs": [
        {
          "name": "_total",
          "type": "uint256"
        }
      ],
      "name": "setUSDRaised",
      "outputs": [],
      "payable": false,
      "stateMutability": "nonpayable",
      "type": "function"
    },
    {
      "constant": true,
      "inputs": [
        {
          "name": "_beneficiary",
          "type": "address"
        }
      ],
      "name": "getPurchaseRecord",
      "outputs": [
        {
          "name": "",
          "type": "uint256"
        }
      ],
      "payable": false,
      "stateMutability": "view",
      "type": "function"
    }
  ],
  "bytecode": "0x60606040526000600660006101000a81548160ff0219169083151502179055506000600b60006101000a81548160ff021916908315150217905550341561004557600080fd5b6040516080806117fa8339810160405280805190602001909190805190602001909190805190602001909190805190602001909190505083838360008311151561008e57600080fd5b600073ffffffffffffffffffffffffffffffffffffffff168273ffffffffffffffffffffffffffffffffffffffff16141515156100ca57600080fd5b600073ffffffffffffffffffffffffffffffffffffffff168173ffffffffffffffffffffffffffffffffffffffff161415151561010657600080fd5b8260028190555081600160006101000a81548173ffffffffffffffffffffffffffffffffffffffff021916908373ffffffffffffffffffffffffffffffffffffffff160217905550806000806101000a81548173ffffffffffffffffffffffffffffffffffffffff021916908373ffffffffffffffffffffffffffffffffffffffff16021790555050505033600460006101000a81548173ffffffffffffffffffffffffffffffffffffffff021916908373ffffffffffffffffffffffffffffffffffffffff16021790555081600660016101000a81548173ffffffffffffffffffffffffffffffffffffffff021916908373ffffffffffffffffffffffffffffffffffffffff16021790555080600760006101000a81548173ffffffffffffffffffffffffffffffffffffffff021916908373ffffffffffffffffffffffffffffffffffffffff160217905550836002819055505050505061158c8061026e6000396000f300606060405260043610610128576000357c0100000000000000000000000000000000000000000000000000000000900463ffffffff1680632c4e722e1461013357806334fcf4371461015c5780633f4ba83a146101975780634042b66f146101ac578063521eb273146101d55780635c975abb1461022a57806363b201171461025757806364cd0d3e1461028057806376e75e05146102cd5780638456cb591461031a57806385cbc8811461032f5780638ab1d681146103585780638c10671c146103915780638d4e4083146103bf5780638da5cb5b146103ec5780639348ff61146104415780639b19251a14610464578063e43252d7146104b5578063e718234d146104ee578063ec8ac4d814610543578063f2fde38b14610571578063fc0c546a146105aa575b610131336105ff565b005b341561013e57600080fd5b6101466106cd565b6040518082815260200191505060405180910390f35b341561016757600080fd5b61017d60048080359060200190919050506106d3565b604051808215151515815260200191505060405180910390f35b34156101a257600080fd5b6101aa6107a5565b005b34156101b757600080fd5b6101bf610865565b6040518082815260200191505060405180910390f35b34156101e057600080fd5b6101e861086b565b604051808273ffffffffffffffffffffffffffffffffffffffff1673ffffffffffffffffffffffffffffffffffffffff16815260200191505060405180910390f35b341561023557600080fd5b61023d610891565b604051808215151515815260200191505060405180910390f35b341561026257600080fd5b61026a6108a4565b6040518082815260200191505060405180910390f35b341561028b57600080fd5b6102b7600480803573ffffffffffffffffffffffffffffffffffffffff169060200190919050506108aa565b6040518082815260200191505060405180910390f35b34156102d857600080fd5b610304600480803573ffffffffffffffffffffffffffffffffffffffff169060200190919050506108c2565b6040518082815260200191505060405180910390f35b341561032557600080fd5b61032d610965565b005b341561033a57600080fd5b610342610a26565b6040518082815260200191505060405180910390f35b341561036357600080fd5b61038f600480803573ffffffffffffffffffffffffffffffffffffffff16906020019091905050610a2c565b005b341561039c57600080fd5b6103bd60048080359060200190820180359060200191909192905050610ae3565b005b34156103ca57600080fd5b6103d2610be5565b604051808215151515815260200191505060405180910390f35b34156103f757600080fd5b6103ff610bf8565b604051808273ffffffffffffffffffffffffffffffffffffffff1673ffffffffffffffffffffffffffffffffffffffff16815260200191505060405180910390f35b341561044c57600080fd5b6104626004808035906020019091905050610c1e565b005b341561046f57600080fd5b61049b600480803573ffffffffffffffffffffffffffffffffffffffff16906020019091905050610ce6565b604051808215151515815260200191505060405180910390f35b34156104c057600080fd5b6104ec600480803573ffffffffffffffffffffffffffffffffffffffff16906020019091905050610d06565b005b34156104f957600080fd5b610501610dbd565b604051808273ffffffffffffffffffffffffffffffffffffffff1673ffffffffffffffffffffffffffffffffffffffff16815260200191505060405180910390f35b61056f600480803573ffffffffffffffffffffffffffffffffffffffff169060200190919050506105ff565b005b341561057c57600080fd5b6105a8600480803573ffffffffffffffffffffffffffffffffffffffff16906020019091905050610de3565b005b34156105b557600080fd5b6105bd610f3b565b604051808273ffffffffffffffffffffffffffffffffffffffff1673ffffffffffffffffffffffffffffffffffffffff16815260200191505060405180910390f35b60008034915061060f8383610f61565b61061882611089565b905061062f826003546110a790919063ffffffff16565b60038190555061063f83826110c5565b8273ffffffffffffffffffffffffffffffffffffffff163373ffffffffffffffffffffffffffffffffffffffff167f623b3804fa71d67900d064613da8f94b9617215ee90799290593e1745087ad188484604051808381526020018281526020019250505060405180910390a36106b683836111c5565b6106be6112ee565b6106c88383611352565b505050565b60025481565b6000600460009054906101000a900473ffffffffffffffffffffffffffffffffffffffff1673ffffffffffffffffffffffffffffffffffffffff163373ffffffffffffffffffffffffffffffffffffffff1614151561073157600080fd5b600b60009054906101000a900460ff1615151561074d57600080fd5b60008211151561075c57600080fd5b816002819055507f595a30f13a69b616c4d568e2a2b7875fdfe86e4300a049953c76ee278f8f3f106002546040518082815260200191505060405180910390a160019050919050565b600460009054906101000a900473ffffffffffffffffffffffffffffffffffffffff1673ffffffffffffffffffffffffffffffffffffffff163373ffffffffffffffffffffffffffffffffffffffff1614151561080157600080fd5b600660009054906101000a900460ff16151561081c57600080fd5b6000600660006101000a81548160ff0219169083151502179055507f7805862f689e2f13df9f062ff482ad3ad112aca9e0847911ed832e158c525b3360405160405180910390a1565b60035481565b600160009054906101000a900473ffffffffffffffffffffffffffffffffffffffff1681565b600660009054906101000a900460ff1681565b600a5481565b600c6020528060005260406000206000915090505481565b600081600560008273ffffffffffffffffffffffffffffffffffffffff1673ffffffffffffffffffffffffffffffffffffffff16815260200190815260200160002060009054906101000a900460ff16151561091d57600080fd5b600c60008473ffffffffffffffffffffffffffffffffffffffff1673ffffffffffffffffffffffffffffffffffffffff16815260200190815260200160002054915050919050565b600460009054906101000a900473ffffffffffffffffffffffffffffffffffffffff1673ffffffffffffffffffffffffffffffffffffffff163373ffffffffffffffffffffffffffffffffffffffff161415156109c157600080fd5b600660009054906101000a900460ff161515156109dd57600080fd5b6001600660006101000a81548160ff0219169083151502179055507f6985a02210a168e66602d3235cb6db0e70f92b3ba4d376a33c0f3d9434bff62560405160405180910390a1565b60095481565b600460009054906101000a900473ffffffffffffffffffffffffffffffffffffffff1673ffffffffffffffffffffffffffffffffffffffff163373ffffffffffffffffffffffffffffffffffffffff16141515610a8857600080fd5b6000600560008373ffffffffffffffffffffffffffffffffffffffff1673ffffffffffffffffffffffffffffffffffffffff16815260200190815260200160002060006101000a81548160ff02191690831515021790555050565b6000600460009054906101000a900473ffffffffffffffffffffffffffffffffffffffff1673ffffffffffffffffffffffffffffffffffffffff163373ffffffffffffffffffffffffffffffffffffffff16141515610b4157600080fd5b600090505b82829050811015610be0576001600560008585858181101515610b6557fe5b9050602002013573ffffffffffffffffffffffffffffffffffffffff1673ffffffffffffffffffffffffffffffffffffffff1673ffffffffffffffffffffffffffffffffffffffff16815260200190815260200160002060006101000a81548160ff0219169083151502179055508080600101915050610b46565b505050565b600b60009054906101000a900460ff1681565b600460009054906101000a900473ffffffffffffffffffffffffffffffffffffffff1681565b600460009054906101000a900473ffffffffffffffffffffffffffffffffffffffff1673ffffffffffffffffffffffffffffffffffffffff163373ffffffffffffffffffffffffffffffffffffffff16141515610c7a57600080fd5b600b60009054906101000a900460ff16151515610c9657600080fd5b600081111515610ca557600080fd5b806009819055507f7a92ce9249561559a8bafc694011e930a22129b552f11534e398cd53c6e89750816040518082815260200191505060405180910390a150565b60056020528060005260406000206000915054906101000a900460ff1681565b600460009054906101000a900473ffffffffffffffffffffffffffffffffffffffff1673ffffffffffffffffffffffffffffffffffffffff163373ffffffffffffffffffffffffffffffffffffffff16141515610d6257600080fd5b6001600560008373ffffffffffffffffffffffffffffffffffffffff1673ffffffffffffffffffffffffffffffffffffffff16815260200190815260200160002060006101000a81548160ff02191690831515021790555050565b600760009054906101000a900473ffffffffffffffffffffffffffffffffffffffff1681565b600460009054906101000a900473ffffffffffffffffffffffffffffffffffffffff1673ffffffffffffffffffffffffffffffffffffffff163373ffffffffffffffffffffffffffffffffffffffff16141515610e3f57600080fd5b600073ffffffffffffffffffffffffffffffffffffffff168173ffffffffffffffffffffffffffffffffffffffff1614151515610e7b57600080fd5b8073ffffffffffffffffffffffffffffffffffffffff16600460009054906101000a900473ffffffffffffffffffffffffffffffffffffffff1673ffffffffffffffffffffffffffffffffffffffff167f8be0079c531659141344cd1fd0a4f28419497f9722a3daafe3b4186f6b6457e060405160405180910390a380600460006101000a81548173ffffffffffffffffffffffffffffffffffffffff021916908373ffffffffffffffffffffffffffffffffffffffff16021790555050565b600660019054906101000a900473ffffffffffffffffffffffffffffffffffffffff1681565b600080610f6e8484611356565b600660009054906101000a900460ff16151515610f8a57600080fd5b600b60009054906101000a900460ff16151515610fa657600080fd5b610faf83611089565b915061100382600c60008773ffffffffffffffffffffffffffffffffffffffff1673ffffffffffffffffffffffffffffffffffffffff168152602001908152602001600020546110a790919063ffffffff16565b905068878678326eac900000811015151561101d57600080fd5b69d3c21bcecceda1000000811115151561103657600080fd5b8373ffffffffffffffffffffffffffffffffffffffff163373ffffffffffffffffffffffffffffffffffffffff1614151561107057600080fd5b635b36c800421015151561108357600080fd5b50505050565b60006110a0600254836113be90919063ffffffff16565b9050919050565b60008082840190508381101515156110bb57fe5b8091505092915050565b6000620151809050600760009054906101000a900473ffffffffffffffffffffffffffffffffffffffff1673ffffffffffffffffffffffffffffffffffffffff1663a25983e5846111206007856113be90919063ffffffff16565b856040518463ffffffff167c0100000000000000000000000000000000000000000000000000000000028152600401808473ffffffffffffffffffffffffffffffffffffffff1673ffffffffffffffffffffffffffffffffffffffff1681526020018381526020018281526020019350505050600060405180830381600087803b15156111ac57600080fd5b6102c65a03f115156111bd57600080fd5b505050505050565b60006111d082611089565b905061122481600c60008673ffffffffffffffffffffffffffffffffffffffff1673ffffffffffffffffffffffffffffffffffffffff168152602001908152602001600020546110a790919063ffffffff16565b600c60008573ffffffffffffffffffffffffffffffffffffffff1673ffffffffffffffffffffffffffffffffffffffff1681526020019081526020016000208190555061127c81600a546110a790919063ffffffff16565b600a8190555068878678326eac9000006112ad600a546b012bda5c60552e7c7a8000006113f990919063ffffffff16565b10156112bc576112bb611412565b5b6302a8ec686009541015156112d4576112d3611412565b5b635bb1637f4211156112e9576112e8611412565b5b505050565b600160009054906101000a900473ffffffffffffffffffffffffffffffffffffffff1673ffffffffffffffffffffffffffffffffffffffff166108fc349081150290604051600060405180830381858888f19350505050151561135057600080fd5b565b5050565b81600560008273ffffffffffffffffffffffffffffffffffffffff1673ffffffffffffffffffffffffffffffffffffffff16815260200190815260200160002060009054906101000a900460ff1615156113af57600080fd5b6113b98383611510565b505050565b60008060008414156113d357600091506113f2565b82840290508284828115156113e457fe5b041415156113ee57fe5b8091505b5092915050565b600082821115151561140757fe5b818303905092915050565b600b60009054906101000a900460ff1615151561142e57600080fd5b6001600b60006101000a81548160ff021916908315150217905550600760009054906101000a900473ffffffffffffffffffffffffffffffffffffffff1673ffffffffffffffffffffffffffffffffffffffff1663b80cdcf66040518163ffffffff167c0100000000000000000000000000000000000000000000000000000000028152600401600060405180830381600087803b15156114ce57600080fd5b6102c65a03f115156114df57600080fd5b5050507f6c08d5fc22afc78558d47102889dc76d6b5eff2c703c6229715aebc4f522627a60405160405180910390a1565b600073ffffffffffffffffffffffffffffffffffffffff168273ffffffffffffffffffffffffffffffffffffffff161415151561154c57600080fd5b6000811415151561155c57600080fd5b50505600a165627a7a72305820c602d05560fc0d10547c37e89388fd61b003bfd8c3e21d25ff53b762ed0110550029",
  "source": "pragma solidity ^0.4.18;\n\nimport \"./OMIToken.sol\";\nimport \"./OMITokenLock.sol\";\nimport \"../node_modules/zeppelin-solidity/contracts/math/SafeMath.sol\";\nimport \"../node_modules/zeppelin-solidity/contracts/crowdsale/validation/WhitelistedCrowdsale.sol\";\nimport \"../node_modules/zeppelin-solidity/contracts/lifecycle/Pausable.sol\";\n\n/// @title OMICrowdsale\n/// @author Mikel Duffy - <mikel@ecomi.com>\ncontract OMICrowdsale is WhitelistedCrowdsale, Pausable {\n  using SafeMath for uint256;\n\n  /* \n   *  Constants\n   */\n  uint256 constant crowdsaleStartTime = 1530316800;\n  uint256 constant crowdsaleFinishTime = 1538351999;\n  uint256 constant crowdsaleUSDGoal = 44625000;\n  uint256 constant crowdsaleTokenGoal = 362500000*1e18;\n  uint256 constant minimumTokenPurchase = 2500*1e18;\n  uint256 constant maximumTokenPurchase = 1000000*1e18;\n\n  /*\n   *  Storage\n   */\n  OMIToken public token;\n  OMITokenLock public tokenLock;\n\n  uint256 currentDiscountAmount;\n  uint256 public totalUSDRaised;\n  uint256 public totalTokensSold;\n  bool public isFinalized = false;\n\n  mapping(address => uint256) public purchaseRecords;\n\n  /*\n   *  Events\n   */\n  event RateChanged(uint256 newRate);\n  event USDRaisedUpdated(uint256 newTotal);\n  event CrowdsaleStarted();\n  event CrowdsaleFinished();\n\n\n  /*\n   *  Modifiers\n   */\n  modifier whenNotFinalized () {\n    require(!isFinalized);\n    _;\n  }\n\n  /*\n   *  Public Functions\n   */\n  /// @dev Contract constructor sets...\n  function OMICrowdsale (\n    uint256 _startingRate,\n    address _ETHWallet,\n    address _OMIToken,\n    address _OMITokenLock\n  )\n    Crowdsale(_startingRate, _ETHWallet, ERC20(_OMIToken))\n    public\n  {\n    token = OMIToken(_OMIToken);\n    tokenLock = OMITokenLock(_OMITokenLock);\n    rate = _startingRate;\n  }\n\n  /// @dev Allows the owner to set the current rate for calculating the number of tokens for a purchase.\n  /// @dev An external cron job will fetch the ETH/USD daily average from the cryptocompare API and call this function.\n  function setRate(uint256 _newRate)\n    public\n    onlyOwner\n    whenNotFinalized\n    returns(bool)\n  {\n    require(_newRate > 0);\n    rate = _newRate;\n    RateChanged(rate);\n    return true;\n  }\n\n  /// @dev Allows the owner to update the total amount of USD raised. T\n  function setUSDRaised(uint256 _total)\n    public\n    onlyOwner\n    whenNotFinalized\n  {\n    require(_total > 0);\n    totalUSDRaised = _total;\n    USDRaisedUpdated(_total);\n  }\n\n  /// @dev Gets the purchase records for a given address\n  /// @param _beneficiary Tokan purchaser\n  function getPurchaseRecord(address _beneficiary) \n    public \n    view \n    isWhitelisted(_beneficiary)\n    returns(uint256)\n  {\n    return purchaseRecords[_beneficiary];\n  }\n\n  /*\n   *  Internal Functions\n   */\n  /// @dev Extend parent behavior to check if current stage should close. Must call super to ensure the enforcement of the whitelist.\n  /// @param _beneficiary Token purchaser\n  /// @param _weiAmount Amount of wei contributed\n  function _preValidatePurchase(address _beneficiary, uint256 _weiAmount)\n    internal\n   {\n    super._preValidatePurchase(_beneficiary, _weiAmount);\n\n    // Crowdsale should not be paused\n    require(!paused);\n\n    // Crowdsale should not be finalized\n    require(!isFinalized);\n\n    uint256 _tokenAmount = _getTokenAmount(_weiAmount);\n    // Beneficiary's total should be between the minimum and maximum purchase amounts\n    uint256 _totalPurchased = purchaseRecords[_beneficiary].add(_tokenAmount);\n    require(_totalPurchased >= minimumTokenPurchase);\n    require(_totalPurchased <= maximumTokenPurchase);\n\n    // Must make the purchase from the intended whitelisted address\n    require(msg.sender == _beneficiary);\n\n    // Must be after the start time\n    require(now >= crowdsaleStartTime);\n  }\n\n  /// @dev Overrides parent by storing balances in timelock contract instead of issuing tokens right away.\n  /// @param _beneficiary Token purchaser\n  /// @param _tokenAmount Amount of tokens purchased\n  function _processPurchase(address _beneficiary, uint256 _tokenAmount)\n    internal\n  {\n    // Lock beneficiary's tokens\n    uint day = 86400;\n    tokenLock.lockTokens(_beneficiary, day.mul(7), _tokenAmount);\n  }\n\n  /// @dev Override for extensions that require an internal state to check for validity (current user contributions, etc.)\n  /// @param _beneficiary Address receiving the tokens\n  /// @param _weiAmount Value in wei involved in the purchase\n  function _updatePurchasingState(address _beneficiary, uint256 _weiAmount)\n    internal\n  {\n    uint256 _tokenAmount = _getTokenAmount(_weiAmount);\n\n    // Add token amount to the purchase history\n    purchaseRecords[_beneficiary] = purchaseRecords[_beneficiary].add(_tokenAmount);\n    \n    // Add token amount to total tokens sold\n    totalTokensSold = totalTokensSold.add(_tokenAmount);\n\n    // Finish the crowdsale...\n    // ...if there is not a minimum purchase left\n    if (crowdsaleTokenGoal.sub(totalTokensSold) < minimumTokenPurchase) {\n      _finalization();\n    }\n    // ...if USD funding goal has been reached\n    if (totalUSDRaised >= crowdsaleUSDGoal) {\n      _finalization();\n    }\n    // ...if the time is after the crowdsale end time\n    if (now > crowdsaleFinishTime) {\n      _finalization();\n    }\n  }\n\n  /// @dev Finalizes crowdsale\n  function _finalization()\n    internal\n    whenNotFinalized\n  {\n    isFinalized = true;\n    tokenLock.finishCrowdsale();\n    CrowdsaleFinished();\n  }\n}\n",
  "sourcePath": "/Users/jermysu/Desktop/ecomi/tge-contract/contracts/OMICrowdsale.sol",
  "compiler": {
    "name": "solc",
    "version": "0.4.19+commit.c4cbbb05.Emscripten.clang"
  },
  "schemaVersion": "2.0.0",
  "updatedAt": "2018-06-05T03:24:32.495Z"
}