{
  "contractName": "OMICrowdsale",
  "abi": [
    {
      "constant": true,
      "inputs": [],
      "name": "rate",
      "outputs": [
        {
          "name": "",
          "type": "uint256"
        }
      ],
      "payable": false,
      "stateMutability": "view",
      "type": "function"
    },
    {
      "constant": false,
      "inputs": [],
      "name": "unpause",
      "outputs": [],
      "payable": false,
      "stateMutability": "nonpayable",
      "type": "function"
    },
    {
      "constant": true,
      "inputs": [],
      "name": "weiRaised",
      "outputs": [
        {
          "name": "",
          "type": "uint256"
        }
      ],
      "payable": false,
      "stateMutability": "view",
      "type": "function"
    },
    {
      "constant": true,
      "inputs": [],
      "name": "wallet",
      "outputs": [
        {
          "name": "",
          "type": "address"
        }
      ],
      "payable": false,
      "stateMutability": "view",
      "type": "function"
    },
    {
      "constant": true,
      "inputs": [],
      "name": "paused",
      "outputs": [
        {
          "name": "",
          "type": "bool"
        }
      ],
      "payable": false,
      "stateMutability": "view",
      "type": "function"
    },
    {
      "constant": true,
      "inputs": [],
      "name": "totalTokensSold",
      "outputs": [
        {
          "name": "",
          "type": "uint256"
        }
      ],
      "payable": false,
      "stateMutability": "view",
      "type": "function"
    },
    {
      "constant": true,
      "inputs": [
        {
          "name": "",
          "type": "address"
        }
      ],
      "name": "purchaseRecords",
      "outputs": [
        {
          "name": "",
          "type": "uint256"
        }
      ],
      "payable": false,
      "stateMutability": "view",
      "type": "function"
    },
    {
      "constant": false,
      "inputs": [],
      "name": "pause",
      "outputs": [],
      "payable": false,
      "stateMutability": "nonpayable",
      "type": "function"
    },
    {
      "constant": true,
      "inputs": [],
      "name": "totalUSDRaised",
      "outputs": [
        {
          "name": "",
          "type": "uint256"
        }
      ],
      "payable": false,
      "stateMutability": "view",
      "type": "function"
    },
    {
      "constant": true,
      "inputs": [],
      "name": "isFinalized",
      "outputs": [
        {
          "name": "",
          "type": "bool"
        }
      ],
      "payable": false,
      "stateMutability": "view",
      "type": "function"
    },
    {
      "constant": true,
      "inputs": [],
      "name": "owner",
      "outputs": [
        {
          "name": "",
          "type": "address"
        }
      ],
      "payable": false,
      "stateMutability": "view",
      "type": "function"
    },
    {
      "constant": true,
      "inputs": [
        {
          "name": "",
          "type": "address"
        }
      ],
      "name": "whitelist",
      "outputs": [
        {
          "name": "",
          "type": "bool"
        }
      ],
      "payable": false,
      "stateMutability": "view",
      "type": "function"
    },
    {
      "constant": true,
      "inputs": [],
      "name": "tokenLock",
      "outputs": [
        {
          "name": "",
          "type": "address"
        }
      ],
      "payable": false,
      "stateMutability": "view",
      "type": "function"
    },
    {
      "constant": false,
      "inputs": [
        {
          "name": "_beneficiary",
          "type": "address"
        }
      ],
      "name": "buyTokens",
      "outputs": [],
      "payable": true,
      "stateMutability": "payable",
      "type": "function"
    },
    {
      "constant": false,
      "inputs": [
        {
          "name": "newOwner",
          "type": "address"
        }
      ],
      "name": "transferOwnership",
      "outputs": [],
      "payable": false,
      "stateMutability": "nonpayable",
      "type": "function"
    },
    {
      "constant": true,
      "inputs": [],
      "name": "token",
      "outputs": [
        {
          "name": "",
          "type": "address"
        }
      ],
      "payable": false,
      "stateMutability": "view",
      "type": "function"
    },
    {
      "inputs": [
        {
          "name": "_startingRate",
          "type": "uint256"
        },
        {
          "name": "_ETHWallet",
          "type": "address"
        },
        {
          "name": "_OMIToken",
          "type": "address"
        },
        {
          "name": "_OMITokenLock",
          "type": "address"
        }
      ],
      "payable": false,
      "stateMutability": "nonpayable",
      "type": "constructor"
    },
    {
      "payable": true,
      "stateMutability": "payable",
      "type": "fallback"
    },
    {
      "anonymous": false,
      "inputs": [
        {
          "indexed": false,
          "name": "newRate",
          "type": "uint256"
        }
      ],
      "name": "RateChanged",
      "type": "event"
    },
    {
      "anonymous": false,
      "inputs": [
        {
          "indexed": false,
          "name": "newTotal",
          "type": "uint256"
        }
      ],
      "name": "USDRaisedUpdated",
      "type": "event"
    },
    {
      "anonymous": false,
      "inputs": [
        {
          "indexed": false,
          "name": "newWhitelistAddress",
          "type": "address"
        }
      ],
      "name": "WhitelistAddressAdded",
      "type": "event"
    },
    {
      "anonymous": false,
      "inputs": [
        {
          "indexed": false,
          "name": "removedWhitelistAddress",
          "type": "address"
        }
      ],
      "name": "WhitelistAddressRemoved",
      "type": "event"
    },
    {
      "anonymous": false,
      "inputs": [],
      "name": "CrowdsaleStarted",
      "type": "event"
    },
    {
      "anonymous": false,
      "inputs": [],
      "name": "CrowdsaleFinished",
      "type": "event"
    },
    {
      "anonymous": false,
      "inputs": [],
      "name": "Pause",
      "type": "event"
    },
    {
      "anonymous": false,
      "inputs": [],
      "name": "Unpause",
      "type": "event"
    },
    {
      "anonymous": false,
      "inputs": [
        {
          "indexed": true,
          "name": "previousOwner",
          "type": "address"
        },
        {
          "indexed": true,
          "name": "newOwner",
          "type": "address"
        }
      ],
      "name": "OwnershipTransferred",
      "type": "event"
    },
    {
      "anonymous": false,
      "inputs": [
        {
          "indexed": true,
          "name": "purchaser",
          "type": "address"
        },
        {
          "indexed": true,
          "name": "beneficiary",
          "type": "address"
        },
        {
          "indexed": false,
          "name": "value",
          "type": "uint256"
        },
        {
          "indexed": false,
          "name": "amount",
          "type": "uint256"
        }
      ],
      "name": "TokenPurchase",
      "type": "event"
    },
    {
      "constant": false,
      "inputs": [
        {
          "name": "_newRate",
          "type": "uint256"
        }
      ],
      "name": "setRate",
      "outputs": [
        {
          "name": "",
          "type": "bool"
        }
      ],
      "payable": false,
      "stateMutability": "nonpayable",
      "type": "function"
    },
    {
      "constant": false,
      "inputs": [
        {
          "name": "_total",
          "type": "uint256"
        }
      ],
      "name": "setUSDRaised",
      "outputs": [],
      "payable": false,
      "stateMutability": "nonpayable",
      "type": "function"
    },
    {
      "constant": true,
      "inputs": [
        {
          "name": "_beneficiary",
          "type": "address"
        }
      ],
      "name": "getPurchaseRecord",
      "outputs": [
        {
          "name": "",
          "type": "uint256"
        }
      ],
      "payable": false,
      "stateMutability": "view",
      "type": "function"
    },
    {
      "constant": false,
      "inputs": [
        {
          "name": "_beneficiary",
          "type": "address"
        }
      ],
      "name": "addToWhitelist",
      "outputs": [],
      "payable": false,
      "stateMutability": "nonpayable",
      "type": "function"
    },
    {
      "constant": false,
      "inputs": [
        {
          "name": "_beneficiaries",
          "type": "address[]"
        }
      ],
      "name": "addManyToWhitelist",
      "outputs": [],
      "payable": false,
      "stateMutability": "nonpayable",
      "type": "function"
    },
    {
      "constant": false,
      "inputs": [
        {
          "name": "_beneficiary",
          "type": "address"
        }
      ],
      "name": "removeFromWhitelist",
      "outputs": [],
      "payable": false,
      "stateMutability": "nonpayable",
      "type": "function"
    },
    {
      "constant": false,
      "inputs": [],
      "name": "finalize",
      "outputs": [],
      "payable": false,
      "stateMutability": "nonpayable",
      "type": "function"
    }
  ],
  "bytecode": "0x60806040526000600660006101000a81548160ff0219169083151502179055506000600b60006101000a81548160ff02191690831515021790555034801561004657600080fd5b50604051608080611a508339810180604052810190808051906020019092919080519060200190929190805190602001909291908051906020019092919050505083838360008311151561009957600080fd5b600073ffffffffffffffffffffffffffffffffffffffff168273ffffffffffffffffffffffffffffffffffffffff16141515156100d557600080fd5b600073ffffffffffffffffffffffffffffffffffffffff168173ffffffffffffffffffffffffffffffffffffffff161415151561011157600080fd5b8260028190555081600160006101000a81548173ffffffffffffffffffffffffffffffffffffffff021916908373ffffffffffffffffffffffffffffffffffffffff160217905550806000806101000a81548173ffffffffffffffffffffffffffffffffffffffff021916908373ffffffffffffffffffffffffffffffffffffffff16021790555050505033600460006101000a81548173ffffffffffffffffffffffffffffffffffffffff021916908373ffffffffffffffffffffffffffffffffffffffff16021790555081600660016101000a81548173ffffffffffffffffffffffffffffffffffffffff021916908373ffffffffffffffffffffffffffffffffffffffff16021790555080600760006101000a81548173ffffffffffffffffffffffffffffffffffffffff021916908373ffffffffffffffffffffffffffffffffffffffff16021790555083600281905550505050506117d7806102796000396000f300608060405260043610610133576000357c0100000000000000000000000000000000000000000000000000000000900463ffffffff1680632c4e722e1461013e57806334fcf437146101695780633f4ba83a146101ae5780634042b66f146101c55780634bb278f3146101f0578063521eb273146102075780635c975abb1461025e57806363b201171461028d57806364cd0d3e146102b857806376e75e051461030f5780638456cb591461036657806385cbc8811461037d5780638ab1d681146103a85780638c10671c146103eb5780638d4e4083146104265780638da5cb5b146104555780639348ff61146104ac5780639b19251a146104d9578063e43252d714610534578063e718234d14610577578063ec8ac4d8146105ce578063f2fde38b14610604578063fc0c546a14610647575b61013c3361069e565b005b34801561014a57600080fd5b5061015361076c565b6040518082815260200191505060405180910390f35b34801561017557600080fd5b5061019460048036038101908080359060200190929190505050610772565b604051808215151515815260200191505060405180910390f35b3480156101ba57600080fd5b506101c3610844565b005b3480156101d157600080fd5b506101da610904565b6040518082815260200191505060405180910390f35b3480156101fc57600080fd5b5061020561090a565b005b34801561021357600080fd5b5061021c610970565b604051808273ffffffffffffffffffffffffffffffffffffffff1673ffffffffffffffffffffffffffffffffffffffff16815260200191505060405180910390f35b34801561026a57600080fd5b50610273610996565b604051808215151515815260200191505060405180910390f35b34801561029957600080fd5b506102a26109a9565b6040518082815260200191505060405180910390f35b3480156102c457600080fd5b506102f9600480360381019080803573ffffffffffffffffffffffffffffffffffffffff1690602001909291905050506109af565b6040518082815260200191505060405180910390f35b34801561031b57600080fd5b50610350600480360381019080803573ffffffffffffffffffffffffffffffffffffffff1690602001909291905050506109c7565b6040518082815260200191505060405180910390f35b34801561037257600080fd5b5061037b610a6a565b005b34801561038957600080fd5b50610392610b2b565b6040518082815260200191505060405180910390f35b3480156103b457600080fd5b506103e9600480360381019080803573ffffffffffffffffffffffffffffffffffffffff169060200190929190505050610b31565b005b3480156103f757600080fd5b50610424600480360381019080803590602001908201803590602001919091929391929390505050610c4b565b005b34801561043257600080fd5b5061043b610dda565b604051808215151515815260200191505060405180910390f35b34801561046157600080fd5b5061046a610ded565b604051808273ffffffffffffffffffffffffffffffffffffffff1673ffffffffffffffffffffffffffffffffffffffff16815260200191505060405180910390f35b3480156104b857600080fd5b506104d760048036038101908080359060200190929190505050610e13565b005b3480156104e557600080fd5b5061051a600480360381019080803573ffffffffffffffffffffffffffffffffffffffff169060200190929190505050610edb565b604051808215151515815260200191505060405180910390f35b34801561054057600080fd5b50610575600480360381019080803573ffffffffffffffffffffffffffffffffffffffff169060200190929190505050610efb565b005b34801561058357600080fd5b5061058c611015565b604051808273ffffffffffffffffffffffffffffffffffffffff1673ffffffffffffffffffffffffffffffffffffffff16815260200191505060405180910390f35b610602600480360381019080803573ffffffffffffffffffffffffffffffffffffffff16906020019092919050505061069e565b005b34801561061057600080fd5b50610645600480360381019080803573ffffffffffffffffffffffffffffffffffffffff16906020019092919050505061103b565b005b34801561065357600080fd5b5061065c611193565b604051808273ffffffffffffffffffffffffffffffffffffffff1673ffffffffffffffffffffffffffffffffffffffff16815260200191505060405180910390f35b6000803491506106ae83836111b9565b6106b7826112dc565b90506106ce826003546112fa90919063ffffffff16565b6003819055506106de8382611318565b8273ffffffffffffffffffffffffffffffffffffffff163373ffffffffffffffffffffffffffffffffffffffff167f623b3804fa71d67900d064613da8f94b9617215ee90799290593e1745087ad188484604051808381526020018281526020019250505060405180910390a36107558383611404565b61075d61152d565b6107678383611598565b505050565b60025481565b6000600460009054906101000a900473ffffffffffffffffffffffffffffffffffffffff1673ffffffffffffffffffffffffffffffffffffffff163373ffffffffffffffffffffffffffffffffffffffff161415156107d057600080fd5b600b60009054906101000a900460ff161515156107ec57600080fd5b6000821115156107fb57600080fd5b816002819055507f595a30f13a69b616c4d568e2a2b7875fdfe86e4300a049953c76ee278f8f3f106002546040518082815260200191505060405180910390a160019050919050565b600460009054906101000a900473ffffffffffffffffffffffffffffffffffffffff1673ffffffffffffffffffffffffffffffffffffffff163373ffffffffffffffffffffffffffffffffffffffff161415156108a057600080fd5b600660009054906101000a900460ff1615156108bb57600080fd5b6000600660006101000a81548160ff0219169083151502179055507f7805862f689e2f13df9f062ff482ad3ad112aca9e0847911ed832e158c525b3360405160405180910390a1565b60035481565b600460009054906101000a900473ffffffffffffffffffffffffffffffffffffffff1673ffffffffffffffffffffffffffffffffffffffff163373ffffffffffffffffffffffffffffffffffffffff1614151561096657600080fd5b61096e61159c565b565b600160009054906101000a900473ffffffffffffffffffffffffffffffffffffffff1681565b600660009054906101000a900460ff1681565b600a5481565b600c6020528060005260406000206000915090505481565b600081600560008273ffffffffffffffffffffffffffffffffffffffff1673ffffffffffffffffffffffffffffffffffffffff16815260200190815260200160002060009054906101000a900460ff161515610a2257600080fd5b600c60008473ffffffffffffffffffffffffffffffffffffffff1673ffffffffffffffffffffffffffffffffffffffff16815260200190815260200160002054915050919050565b600460009054906101000a900473ffffffffffffffffffffffffffffffffffffffff1673ffffffffffffffffffffffffffffffffffffffff163373ffffffffffffffffffffffffffffffffffffffff16141515610ac657600080fd5b600660009054906101000a900460ff16151515610ae257600080fd5b6001600660006101000a81548160ff0219169083151502179055507f6985a02210a168e66602d3235cb6db0e70f92b3ba4d376a33c0f3d9434bff62560405160405180910390a1565b60095481565b600460009054906101000a900473ffffffffffffffffffffffffffffffffffffffff1673ffffffffffffffffffffffffffffffffffffffff163373ffffffffffffffffffffffffffffffffffffffff16141515610b8d57600080fd5b6000600560008373ffffffffffffffffffffffffffffffffffffffff1673ffffffffffffffffffffffffffffffffffffffff16815260200190815260200160002060006101000a81548160ff0219169083151502179055507f45dcd9ab8c61f0629f2904906111e617d542ed4af59ecb4af2586823382a408c81604051808273ffffffffffffffffffffffffffffffffffffffff1673ffffffffffffffffffffffffffffffffffffffff16815260200191505060405180910390a150565b6000600460009054906101000a900473ffffffffffffffffffffffffffffffffffffffff1673ffffffffffffffffffffffffffffffffffffffff163373ffffffffffffffffffffffffffffffffffffffff16141515610ca957600080fd5b600090505b82829050811015610dd5576001600560008585858181101515610ccd57fe5b9050602002013573ffffffffffffffffffffffffffffffffffffffff1673ffffffffffffffffffffffffffffffffffffffff1673ffffffffffffffffffffffffffffffffffffffff16815260200190815260200160002060006101000a81548160ff0219169083151502179055507f7e82e36808082f76da270c3c5e72976b35dd02ffdd5e28dc06990b08c959f7c08383838181101515610d6a57fe5b9050602002013573ffffffffffffffffffffffffffffffffffffffff16604051808273ffffffffffffffffffffffffffffffffffffffff1673ffffffffffffffffffffffffffffffffffffffff16815260200191505060405180910390a18080600101915050610cae565b505050565b600b60009054906101000a900460ff1681565b600460009054906101000a900473ffffffffffffffffffffffffffffffffffffffff1681565b600460009054906101000a900473ffffffffffffffffffffffffffffffffffffffff1673ffffffffffffffffffffffffffffffffffffffff163373ffffffffffffffffffffffffffffffffffffffff16141515610e6f57600080fd5b600b60009054906101000a900460ff16151515610e8b57600080fd5b600081111515610e9a57600080fd5b806009819055507f7a92ce9249561559a8bafc694011e930a22129b552f11534e398cd53c6e89750816040518082815260200191505060405180910390a150565b60056020528060005260406000206000915054906101000a900460ff1681565b600460009054906101000a900473ffffffffffffffffffffffffffffffffffffffff1673ffffffffffffffffffffffffffffffffffffffff163373ffffffffffffffffffffffffffffffffffffffff16141515610f5757600080fd5b6001600560008373ffffffffffffffffffffffffffffffffffffffff1673ffffffffffffffffffffffffffffffffffffffff16815260200190815260200160002060006101000a81548160ff0219169083151502179055507f7e82e36808082f76da270c3c5e72976b35dd02ffdd5e28dc06990b08c959f7c081604051808273ffffffffffffffffffffffffffffffffffffffff1673ffffffffffffffffffffffffffffffffffffffff16815260200191505060405180910390a150565b600760009054906101000a900473ffffffffffffffffffffffffffffffffffffffff1681565b600460009054906101000a900473ffffffffffffffffffffffffffffffffffffffff1673ffffffffffffffffffffffffffffffffffffffff163373ffffffffffffffffffffffffffffffffffffffff1614151561109757600080fd5b600073ffffffffffffffffffffffffffffffffffffffff168173ffffffffffffffffffffffffffffffffffffffff16141515156110d357600080fd5b8073ffffffffffffffffffffffffffffffffffffffff16600460009054906101000a900473ffffffffffffffffffffffffffffffffffffffff1673ffffffffffffffffffffffffffffffffffffffff167f8be0079c531659141344cd1fd0a4f28419497f9722a3daafe3b4186f6b6457e060405160405180910390a380600460006101000a81548173ffffffffffffffffffffffffffffffffffffffff021916908373ffffffffffffffffffffffffffffffffffffffff16021790555050565b600660019054906101000a900473ffffffffffffffffffffffffffffffffffffffff1681565b6000600660009054906101000a900460ff161515156111d757600080fd5b600b60009054906101000a900460ff161515156111f357600080fd5b6111fd838361169f565b611257611209836112dc565b600c60008673ffffffffffffffffffffffffffffffffffffffff1673ffffffffffffffffffffffffffffffffffffffff168152602001908152602001600020546112fa90919063ffffffff16565b905068878678326eac900000811015151561127157600080fd5b69d3c21bcecceda1000000811115151561128a57600080fd5b8273ffffffffffffffffffffffffffffffffffffffff163373ffffffffffffffffffffffffffffffffffffffff161415156112c457600080fd5b635b36c80042101515156112d757600080fd5b505050565b60006112f36002548361170790919063ffffffff16565b9050919050565b600080828401905083811015151561130e57fe5b8091505092915050565b600760009054906101000a900473ffffffffffffffffffffffffffffffffffffffff1673ffffffffffffffffffffffffffffffffffffffff1663a25983e58362093a80846040518463ffffffff167c0100000000000000000000000000000000000000000000000000000000028152600401808473ffffffffffffffffffffffffffffffffffffffff1673ffffffffffffffffffffffffffffffffffffffff1681526020018381526020018281526020019350505050600060405180830381600087803b1580156113e857600080fd5b505af11580156113fc573d6000803e3d6000fd5b505050505050565b600061140f826112dc565b905061146381600c60008673ffffffffffffffffffffffffffffffffffffffff1673ffffffffffffffffffffffffffffffffffffffff168152602001908152602001600020546112fa90919063ffffffff16565b600c60008573ffffffffffffffffffffffffffffffffffffffff1673ffffffffffffffffffffffffffffffffffffffff168152602001908152602001600020819055506114bb81600a546112fa90919063ffffffff16565b600a8190555068878678326eac9000006114ec600a546b012bda5c60552e7c7a80000061174290919063ffffffff16565b10156114fb576114fa61159c565b5b63015199c86009541015156115135761151261159c565b5b635bb1637f4211156115285761152761159c565b5b505050565b600160009054906101000a900473ffffffffffffffffffffffffffffffffffffffff1673ffffffffffffffffffffffffffffffffffffffff166108fc349081150290604051600060405180830381858888f19350505050158015611595573d6000803e3d6000fd5b50565b5050565b600b60009054906101000a900460ff161515156115b857600080fd5b6001600b60006101000a81548160ff021916908315150217905550600760009054906101000a900473ffffffffffffffffffffffffffffffffffffffff1673ffffffffffffffffffffffffffffffffffffffff1663b80cdcf66040518163ffffffff167c0100000000000000000000000000000000000000000000000000000000028152600401600060405180830381600087803b15801561165957600080fd5b505af115801561166d573d6000803e3d6000fd5b505050507f6c08d5fc22afc78558d47102889dc76d6b5eff2c703c6229715aebc4f522627a60405160405180910390a1565b81600560008273ffffffffffffffffffffffffffffffffffffffff1673ffffffffffffffffffffffffffffffffffffffff16815260200190815260200160002060009054906101000a900460ff1615156116f857600080fd5b611702838361175b565b505050565b600080600084141561171c576000915061173b565b828402905082848281151561172d57fe5b0414151561173757fe5b8091505b5092915050565b600082821115151561175057fe5b818303905092915050565b600073ffffffffffffffffffffffffffffffffffffffff168273ffffffffffffffffffffffffffffffffffffffff161415151561179757600080fd5b600081141515156117a757600080fd5b50505600a165627a7a72305820c4ac1044fd675662dd3bba3c8fa794dbe8aa0d339ba2f7528d99528ac6e81b6a0029",
  "source": "pragma solidity ^0.4.24;\n\nimport \"./OMIToken.sol\";\nimport \"./OMITokenLock.sol\";\nimport \"../node_modules/zeppelin-solidity/contracts/math/SafeMath.sol\";\nimport \"../node_modules/zeppelin-solidity/contracts/crowdsale/validation/WhitelistedCrowdsale.sol\";\nimport \"../node_modules/zeppelin-solidity/contracts/lifecycle/Pausable.sol\";\n\n/// @title OMICrowdsale\n/// @author Mikel Duffy - <mikel@ecomi.com>\ncontract OMICrowdsale is WhitelistedCrowdsale, Pausable {\n  using SafeMath for uint256;\n\n  /* \n   *  Constants\n   */\n  uint256 constant crowdsaleStartTime = 1530316800;\n  uint256 constant crowdsaleFinishTime = 1538351999;\n  uint256 constant crowdsaleUSDGoal = 22125000;\n  uint256 constant crowdsaleTokenGoal = 362500000*1e18;\n  uint256 constant minimumTokenPurchase = 2500*1e18;\n  uint256 constant maximumTokenPurchase = 1000000*1e18;\n\n  /*\n   *  Storage\n   */\n  OMIToken public token;\n  OMITokenLock public tokenLock;\n\n  uint256 currentDiscountAmount;\n  uint256 public totalUSDRaised;\n  uint256 public totalTokensSold;\n  bool public isFinalized = false;\n\n  mapping(address => uint256) public purchaseRecords;\n\n  /*\n   *  Events\n   */\n  event RateChanged(uint256 newRate);\n  event USDRaisedUpdated(uint256 newTotal);\n  event WhitelistAddressAdded(address newWhitelistAddress);\n  event WhitelistAddressRemoved(address removedWhitelistAddress);\n  event CrowdsaleStarted();\n  event CrowdsaleFinished();\n\n\n  /*\n   *  Modifiers\n   */\n  modifier whenNotFinalized () {\n    require(!isFinalized);\n    _;\n  }\n\n  /*\n   *  Public Functions\n   */\n  /// @dev Contract constructor sets...\n  function OMICrowdsale (\n    uint256 _startingRate,\n    address _ETHWallet,\n    address _OMIToken,\n    address _OMITokenLock\n  )\n    Crowdsale(_startingRate, _ETHWallet, ERC20(_OMIToken))\n    public\n  {\n    token = OMIToken(_OMIToken);\n    tokenLock = OMITokenLock(_OMITokenLock);\n    rate = _startingRate;\n  }\n\n  /// @dev Allows the owner to set the current rate for calculating the number of tokens for a purchase.\n  /// @dev An external cron job will fetch the ETH/USD daily average from the cryptocompare API and call this function.\n  function setRate(uint256 _newRate)\n    public\n    onlyOwner\n    whenNotFinalized\n    returns(bool)\n  {\n    require(_newRate > 0);\n    rate = _newRate;\n    RateChanged(rate);\n    return true;\n  }\n\n  /// @dev Allows the owner to update the total amount of USD raised. T\n  function setUSDRaised(uint256 _total)\n    public\n    onlyOwner\n    whenNotFinalized\n  {\n    require(_total > 0);\n    totalUSDRaised = _total;\n    USDRaisedUpdated(_total);\n  }\n\n  /// @dev Gets the purchase records for a given address\n  /// @param _beneficiary Tokan purchaser\n  function getPurchaseRecord(address _beneficiary) \n    public \n    view \n    isWhitelisted(_beneficiary)\n    returns(uint256)\n  {\n    return purchaseRecords[_beneficiary];\n  }\n\n  /// @dev Adds single address to whitelist\n  /// @param _beneficiary Address to be added to the whitelist\n  function addToWhitelist(address _beneficiary) external onlyOwner {\n    whitelist[_beneficiary] = true;\n    WhitelistAddressAdded(_beneficiary);\n  }\n\n  /// @dev Adds list of addresses to whitelist. Not overloaded due to limitations with truffle testing.\n  /// @param _beneficiaries Addresses to be added to the whitelist\n  function addManyToWhitelist(address[] _beneficiaries) external onlyOwner {\n    for (uint256 i = 0; i < _beneficiaries.length; i++) {\n      whitelist[_beneficiaries[i]] = true;\n      WhitelistAddressAdded(_beneficiaries[i]);\n    }\n  }\n\n  /// @dev Removes single address from whitelist.\n  /// @param _beneficiary Address to be removed to the whitelist\n  function removeFromWhitelist(address _beneficiary) external onlyOwner {\n    whitelist[_beneficiary] = false;\n    WhitelistAddressRemoved(_beneficiary);\n  }\n\n  /// @dev Finalizes the crowdsale\n  function finalize() external onlyOwner {\n    _finalization();\n  }\n\n  /*\n   *  Internal Functions\n   */\n  /// @dev Extend parent behavior to check if current stage should close. Must call super to ensure the enforcement of the whitelist.\n  /// @param _beneficiary Token purchaser\n  /// @param _weiAmount Amount of wei contributed\n  function _preValidatePurchase(address _beneficiary, uint256 _weiAmount)\n    internal\n    whenNotPaused\n    whenNotFinalized\n   {\n    super._preValidatePurchase(_beneficiary, _weiAmount);\n\n    // Beneficiary's total should be between the minimum and maximum purchase amounts\n    uint256 _totalPurchased = purchaseRecords[_beneficiary].add(_getTokenAmount(_weiAmount));\n    require(_totalPurchased >= minimumTokenPurchase);\n    require(_totalPurchased <= maximumTokenPurchase);\n\n    // Must make the purchase from the intended whitelisted address\n    require(msg.sender == _beneficiary);\n\n    // Must be after the start time\n    require(now >= crowdsaleStartTime);\n  }\n\n  /// @dev Overrides parent by storing balances in timelock contract instead of issuing tokens right away.\n  /// @param _beneficiary Token purchaser\n  /// @param _tokenAmount Amount of tokens purchased\n  function _processPurchase(address _beneficiary, uint256 _tokenAmount)\n    internal\n  {\n    // Lock beneficiary's tokens\n    tokenLock.lockTokens(_beneficiary, 1 weeks, _tokenAmount);\n  }\n\n  /// @dev Override for extensions that require an internal state to check for validity (current user contributions, etc.)\n  /// @param _beneficiary Address receiving the tokens\n  /// @param _weiAmount Value in wei involved in the purchase\n  function _updatePurchasingState(address _beneficiary, uint256 _weiAmount)\n    internal\n  {\n    uint256 _tokenAmount = _getTokenAmount(_weiAmount);\n\n    // Add token amount to the purchase history\n    purchaseRecords[_beneficiary] = purchaseRecords[_beneficiary].add(_tokenAmount);\n    \n    // Add token amount to total tokens sold\n    totalTokensSold = totalTokensSold.add(_tokenAmount);\n\n    // Finish the crowdsale...\n    // ...if there is not a minimum purchase left\n    if (crowdsaleTokenGoal.sub(totalTokensSold) < minimumTokenPurchase) {\n      _finalization();\n    }\n    // ...if USD funding goal has been reached\n    if (totalUSDRaised >= crowdsaleUSDGoal) {\n      _finalization();\n    }\n    // ...if the time is after the crowdsale end time\n    if (now > crowdsaleFinishTime) {\n      _finalization();\n    }\n  }\n\n  /// @dev Finalizes crowdsale\n  function _finalization()\n    internal\n    whenNotFinalized\n  {\n    isFinalized = true;\n    tokenLock.finishCrowdsale();\n    CrowdsaleFinished();\n  }\n}\n",
  "sourcePath": "/Users/mikelduffy/Files/Ecomi/tge-contract/contracts/OMICrowdsale.sol",
  "compiler": {
    "name": "solc",
    "version": "0.4.24+commit.e67f0147.Emscripten.clang"
  },
  "schemaVersion": "2.0.0",
  "updatedAt": "2018-06-26T09:52:23.855Z"
}