{
  "contractName": "OMICrowdsale",
  "abi": [
    {
      "constant": true,
      "inputs": [],
      "name": "rate",
      "outputs": [
        {
          "name": "",
          "type": "uint256"
        }
      ],
      "payable": false,
      "stateMutability": "view",
      "type": "function"
    },
    {
      "constant": false,
      "inputs": [],
      "name": "unpause",
      "outputs": [],
      "payable": false,
      "stateMutability": "nonpayable",
      "type": "function"
    },
    {
      "constant": true,
      "inputs": [],
      "name": "weiRaised",
      "outputs": [
        {
          "name": "",
          "type": "uint256"
        }
      ],
      "payable": false,
      "stateMutability": "view",
      "type": "function"
    },
    {
      "constant": true,
      "inputs": [],
      "name": "wallet",
      "outputs": [
        {
          "name": "",
          "type": "address"
        }
      ],
      "payable": false,
      "stateMutability": "view",
      "type": "function"
    },
    {
      "constant": true,
      "inputs": [],
      "name": "paused",
      "outputs": [
        {
          "name": "",
          "type": "bool"
        }
      ],
      "payable": false,
      "stateMutability": "view",
      "type": "function"
    },
    {
      "constant": true,
      "inputs": [],
      "name": "totalTokensSold",
      "outputs": [
        {
          "name": "",
          "type": "uint256"
        }
      ],
      "payable": false,
      "stateMutability": "view",
      "type": "function"
    },
    {
      "constant": true,
      "inputs": [
        {
          "name": "",
          "type": "address"
        }
      ],
      "name": "purchaseRecords",
      "outputs": [
        {
          "name": "",
          "type": "uint256"
        }
      ],
      "payable": false,
      "stateMutability": "view",
      "type": "function"
    },
    {
      "constant": false,
      "inputs": [],
      "name": "renounceOwnership",
      "outputs": [],
      "payable": false,
      "stateMutability": "nonpayable",
      "type": "function"
    },
    {
      "constant": false,
      "inputs": [],
      "name": "pause",
      "outputs": [],
      "payable": false,
      "stateMutability": "nonpayable",
      "type": "function"
    },
    {
      "constant": true,
      "inputs": [],
      "name": "totalUSDRaised",
      "outputs": [
        {
          "name": "",
          "type": "uint256"
        }
      ],
      "payable": false,
      "stateMutability": "view",
      "type": "function"
    },
    {
      "constant": true,
      "inputs": [],
      "name": "isFinalized",
      "outputs": [
        {
          "name": "",
          "type": "bool"
        }
      ],
      "payable": false,
      "stateMutability": "view",
      "type": "function"
    },
    {
      "constant": true,
      "inputs": [],
      "name": "owner",
      "outputs": [
        {
          "name": "",
          "type": "address"
        }
      ],
      "payable": false,
      "stateMutability": "view",
      "type": "function"
    },
    {
      "constant": true,
      "inputs": [
        {
          "name": "",
          "type": "address"
        }
      ],
      "name": "whitelist",
      "outputs": [
        {
          "name": "",
          "type": "bool"
        }
      ],
      "payable": false,
      "stateMutability": "view",
      "type": "function"
    },
    {
      "constant": true,
      "inputs": [],
      "name": "tokenLock",
      "outputs": [
        {
          "name": "",
          "type": "address"
        }
      ],
      "payable": false,
      "stateMutability": "view",
      "type": "function"
    },
    {
      "constant": false,
      "inputs": [
        {
          "name": "_beneficiary",
          "type": "address"
        }
      ],
      "name": "buyTokens",
      "outputs": [],
      "payable": true,
      "stateMutability": "payable",
      "type": "function"
    },
    {
      "constant": false,
      "inputs": [
        {
          "name": "_newOwner",
          "type": "address"
        }
      ],
      "name": "transferOwnership",
      "outputs": [],
      "payable": false,
      "stateMutability": "nonpayable",
      "type": "function"
    },
    {
      "constant": true,
      "inputs": [],
      "name": "token",
      "outputs": [
        {
          "name": "",
          "type": "address"
        }
      ],
      "payable": false,
      "stateMutability": "view",
      "type": "function"
    },
    {
      "inputs": [
        {
          "name": "_startingRate",
          "type": "uint256"
        },
        {
          "name": "_ETHWallet",
          "type": "address"
        },
        {
          "name": "_OMIToken",
          "type": "address"
        },
        {
          "name": "_OMITokenLock",
          "type": "address"
        }
      ],
      "payable": false,
      "stateMutability": "nonpayable",
      "type": "constructor"
    },
    {
      "payable": true,
      "stateMutability": "payable",
      "type": "fallback"
    },
    {
      "anonymous": false,
      "inputs": [
        {
          "indexed": false,
          "name": "newRate",
          "type": "uint256"
        }
      ],
      "name": "RateChanged",
      "type": "event"
    },
    {
      "anonymous": false,
      "inputs": [
        {
          "indexed": false,
          "name": "newTotal",
          "type": "uint256"
        }
      ],
      "name": "USDRaisedUpdated",
      "type": "event"
    },
    {
      "anonymous": false,
      "inputs": [
        {
          "indexed": false,
          "name": "newWhitelistAddress",
          "type": "address"
        }
      ],
      "name": "WhitelistAddressAdded",
      "type": "event"
    },
    {
      "anonymous": false,
      "inputs": [
        {
          "indexed": false,
          "name": "removedWhitelistAddress",
          "type": "address"
        }
      ],
      "name": "WhitelistAddressRemoved",
      "type": "event"
    },
    {
      "anonymous": false,
      "inputs": [],
      "name": "CrowdsaleStarted",
      "type": "event"
    },
    {
      "anonymous": false,
      "inputs": [],
      "name": "CrowdsaleFinished",
      "type": "event"
    },
    {
      "anonymous": false,
      "inputs": [],
      "name": "Pause",
      "type": "event"
    },
    {
      "anonymous": false,
      "inputs": [],
      "name": "Unpause",
      "type": "event"
    },
    {
      "anonymous": false,
      "inputs": [
        {
          "indexed": true,
          "name": "previousOwner",
          "type": "address"
        }
      ],
      "name": "OwnershipRenounced",
      "type": "event"
    },
    {
      "anonymous": false,
      "inputs": [
        {
          "indexed": true,
          "name": "previousOwner",
          "type": "address"
        },
        {
          "indexed": true,
          "name": "newOwner",
          "type": "address"
        }
      ],
      "name": "OwnershipTransferred",
      "type": "event"
    },
    {
      "anonymous": false,
      "inputs": [
        {
          "indexed": true,
          "name": "purchaser",
          "type": "address"
        },
        {
          "indexed": true,
          "name": "beneficiary",
          "type": "address"
        },
        {
          "indexed": false,
          "name": "value",
          "type": "uint256"
        },
        {
          "indexed": false,
          "name": "amount",
          "type": "uint256"
        }
      ],
      "name": "TokenPurchase",
      "type": "event"
    },
    {
      "constant": true,
      "inputs": [],
      "name": "isOMICrowdsaleContract",
      "outputs": [
        {
          "name": "",
          "type": "bool"
        }
      ],
      "payable": false,
      "stateMutability": "pure",
      "type": "function"
    },
    {
      "constant": false,
      "inputs": [
        {
          "name": "_newRate",
          "type": "uint256"
        }
      ],
      "name": "setRate",
      "outputs": [
        {
          "name": "",
          "type": "bool"
        }
      ],
      "payable": false,
      "stateMutability": "nonpayable",
      "type": "function"
    },
    {
      "constant": false,
      "inputs": [
        {
          "name": "_total",
          "type": "uint256"
        }
      ],
      "name": "setUSDRaised",
      "outputs": [],
      "payable": false,
      "stateMutability": "nonpayable",
      "type": "function"
    },
    {
      "constant": true,
      "inputs": [
        {
          "name": "_beneficiary",
          "type": "address"
        }
      ],
      "name": "getPurchaseRecord",
      "outputs": [
        {
          "name": "",
          "type": "uint256"
        }
      ],
      "payable": false,
      "stateMutability": "view",
      "type": "function"
    },
    {
      "constant": false,
      "inputs": [
        {
          "name": "_beneficiary",
          "type": "address"
        }
      ],
      "name": "addToWhitelist",
      "outputs": [],
      "payable": false,
      "stateMutability": "nonpayable",
      "type": "function"
    },
    {
      "constant": false,
      "inputs": [
        {
          "name": "_beneficiaries",
          "type": "address[]"
        }
      ],
      "name": "addManyToWhitelist",
      "outputs": [],
      "payable": false,
      "stateMutability": "nonpayable",
      "type": "function"
    },
    {
      "constant": false,
      "inputs": [
        {
          "name": "_beneficiary",
          "type": "address"
        }
      ],
      "name": "removeFromWhitelist",
      "outputs": [],
      "payable": false,
      "stateMutability": "nonpayable",
      "type": "function"
    },
    {
      "constant": false,
      "inputs": [],
      "name": "finalize",
      "outputs": [],
      "payable": false,
      "stateMutability": "nonpayable",
      "type": "function"
    }
  ],
  "bytecode": "0x60806040526000600660006101000a81548160ff0219169083151502179055506000600b60006101000a81548160ff0219169083151502179055503480156200004757600080fd5b5060405160808062001d67833981018060405281019080805190602001909291908051906020019092919080519060200190929190805190602001909291905050508383836000831115156200009c57600080fd5b600073ffffffffffffffffffffffffffffffffffffffff168273ffffffffffffffffffffffffffffffffffffffff1614151515620000d957600080fd5b600073ffffffffffffffffffffffffffffffffffffffff168173ffffffffffffffffffffffffffffffffffffffff16141515156200011657600080fd5b8260028190555081600160006101000a81548173ffffffffffffffffffffffffffffffffffffffff021916908373ffffffffffffffffffffffffffffffffffffffff160217905550806000806101000a81548173ffffffffffffffffffffffffffffffffffffffff021916908373ffffffffffffffffffffffffffffffffffffffff16021790555050505033600460006101000a81548173ffffffffffffffffffffffffffffffffffffffff021916908373ffffffffffffffffffffffffffffffffffffffff16021790555081600660016101000a81548173ffffffffffffffffffffffffffffffffffffffff021916908373ffffffffffffffffffffffffffffffffffffffff160217905550600660019054906101000a900473ffffffffffffffffffffffffffffffffffffffff1673ffffffffffffffffffffffffffffffffffffffff166332366ea56040518163ffffffff167c0100000000000000000000000000000000000000000000000000000000028152600401602060405180830381600087803b158015620002aa57600080fd5b505af1158015620002bf573d6000803e3d6000fd5b505050506040513d6020811015620002d657600080fd5b81019080805190602001909291905050501515620002f357600080fd5b80600760006101000a81548173ffffffffffffffffffffffffffffffffffffffff021916908373ffffffffffffffffffffffffffffffffffffffff160217905550600760009054906101000a900473ffffffffffffffffffffffffffffffffffffffff1673ffffffffffffffffffffffffffffffffffffffff166372bc8ff26040518163ffffffff167c0100000000000000000000000000000000000000000000000000000000028152600401602060405180830381600087803b158015620003bb57600080fd5b505af1158015620003d0573d6000803e3d6000fd5b505050506040513d6020811015620003e757600080fd5b810190808051906020019092919050505015156200040457600080fd5b8360028190555050505050611948806200041f6000396000f300608060405260043610610149576000357c0100000000000000000000000000000000000000000000000000000000900463ffffffff1680632c4e722e1461015457806334fcf4371461017f5780633f4ba83a146101c45780634042b66f146101db5780634bb278f314610206578063521eb2731461021d5780635c975abb1461027457806363b20117146102a357806364cd0d3e146102ce578063715018a61461032557806376e75e051461033c5780638456cb591461039357806385cbc881146103aa5780638ab1d681146103d55780638c10671c146104185780638d4e4083146104535780638da5cb5b146104825780639348ff61146104d95780639b19251a14610506578063e43252d714610561578063e718234d146105a4578063ec8ac4d8146105fb578063f2fde38b14610631578063fc0c546a14610674578063fd4eeb8f146106cb575b610152336106fa565b005b34801561016057600080fd5b506101696107c8565b6040518082815260200191505060405180910390f35b34801561018b57600080fd5b506101aa600480360381019080803590602001909291905050506107ce565b604051808215151515815260200191505060405180910390f35b3480156101d057600080fd5b506101d96108a0565b005b3480156101e757600080fd5b506101f0610960565b6040518082815260200191505060405180910390f35b34801561021257600080fd5b5061021b610966565b005b34801561022957600080fd5b506102326109cc565b604051808273ffffffffffffffffffffffffffffffffffffffff1673ffffffffffffffffffffffffffffffffffffffff16815260200191505060405180910390f35b34801561028057600080fd5b506102896109f2565b604051808215151515815260200191505060405180910390f35b3480156102af57600080fd5b506102b8610a05565b6040518082815260200191505060405180910390f35b3480156102da57600080fd5b5061030f600480360381019080803573ffffffffffffffffffffffffffffffffffffffff169060200190929190505050610a0b565b6040518082815260200191505060405180910390f35b34801561033157600080fd5b5061033a610a23565b005b34801561034857600080fd5b5061037d600480360381019080803573ffffffffffffffffffffffffffffffffffffffff169060200190929190505050610b28565b6040518082815260200191505060405180910390f35b34801561039f57600080fd5b506103a8610bcb565b005b3480156103b657600080fd5b506103bf610c8c565b6040518082815260200191505060405180910390f35b3480156103e157600080fd5b50610416600480360381019080803573ffffffffffffffffffffffffffffffffffffffff169060200190929190505050610c92565b005b34801561042457600080fd5b50610451600480360381019080803590602001908201803590602001919091929391929390505050610dac565b005b34801561045f57600080fd5b50610468610f3b565b604051808215151515815260200191505060405180910390f35b34801561048e57600080fd5b50610497610f4e565b604051808273ffffffffffffffffffffffffffffffffffffffff1673ffffffffffffffffffffffffffffffffffffffff16815260200191505060405180910390f35b3480156104e557600080fd5b5061050460048036038101908080359060200190929190505050610f74565b005b34801561051257600080fd5b50610547600480360381019080803573ffffffffffffffffffffffffffffffffffffffff16906020019092919050505061103c565b604051808215151515815260200191505060405180910390f35b34801561056d57600080fd5b506105a2600480360381019080803573ffffffffffffffffffffffffffffffffffffffff16906020019092919050505061105c565b005b3480156105b057600080fd5b506105b9611176565b604051808273ffffffffffffffffffffffffffffffffffffffff1673ffffffffffffffffffffffffffffffffffffffff16815260200191505060405180910390f35b61062f600480360381019080803573ffffffffffffffffffffffffffffffffffffffff1690602001909291905050506106fa565b005b34801561063d57600080fd5b50610672600480360381019080803573ffffffffffffffffffffffffffffffffffffffff16906020019092919050505061119c565b005b34801561068057600080fd5b50610689611204565b604051808273ffffffffffffffffffffffffffffffffffffffff1673ffffffffffffffffffffffffffffffffffffffff16815260200191505060405180910390f35b3480156106d757600080fd5b506106e061122a565b604051808215151515815260200191505060405180910390f35b60008034915061070a8383611233565b61071382611356565b905061072a8260035461137490919063ffffffff16565b60038190555061073a8382611390565b8273ffffffffffffffffffffffffffffffffffffffff163373ffffffffffffffffffffffffffffffffffffffff167f623b3804fa71d67900d064613da8f94b9617215ee90799290593e1745087ad188484604051808381526020018281526020019250505060405180910390a36107b1838361147c565b6107b96115a5565b6107c38383611610565b505050565b60025481565b6000600460009054906101000a900473ffffffffffffffffffffffffffffffffffffffff1673ffffffffffffffffffffffffffffffffffffffff163373ffffffffffffffffffffffffffffffffffffffff1614151561082c57600080fd5b600b60009054906101000a900460ff1615151561084857600080fd5b60008211151561085757600080fd5b816002819055507f595a30f13a69b616c4d568e2a2b7875fdfe86e4300a049953c76ee278f8f3f106002546040518082815260200191505060405180910390a160019050919050565b600460009054906101000a900473ffffffffffffffffffffffffffffffffffffffff1673ffffffffffffffffffffffffffffffffffffffff163373ffffffffffffffffffffffffffffffffffffffff161415156108fc57600080fd5b600660009054906101000a900460ff16151561091757600080fd5b6000600660006101000a81548160ff0219169083151502179055507f7805862f689e2f13df9f062ff482ad3ad112aca9e0847911ed832e158c525b3360405160405180910390a1565b60035481565b600460009054906101000a900473ffffffffffffffffffffffffffffffffffffffff1673ffffffffffffffffffffffffffffffffffffffff163373ffffffffffffffffffffffffffffffffffffffff161415156109c257600080fd5b6109ca611614565b565b600160009054906101000a900473ffffffffffffffffffffffffffffffffffffffff1681565b600660009054906101000a900460ff1681565b600a5481565b600c6020528060005260406000206000915090505481565b600460009054906101000a900473ffffffffffffffffffffffffffffffffffffffff1673ffffffffffffffffffffffffffffffffffffffff163373ffffffffffffffffffffffffffffffffffffffff16141515610a7f57600080fd5b600460009054906101000a900473ffffffffffffffffffffffffffffffffffffffff1673ffffffffffffffffffffffffffffffffffffffff167ff8df31144d9c2f0f6b59d69b8b98abd5459d07f2742c4df920b25aae33c6482060405160405180910390a26000600460006101000a81548173ffffffffffffffffffffffffffffffffffffffff021916908373ffffffffffffffffffffffffffffffffffffffff160217905550565b600081600560008273ffffffffffffffffffffffffffffffffffffffff1673ffffffffffffffffffffffffffffffffffffffff16815260200190815260200160002060009054906101000a900460ff161515610b8357600080fd5b600c60008473ffffffffffffffffffffffffffffffffffffffff1673ffffffffffffffffffffffffffffffffffffffff16815260200190815260200160002054915050919050565b600460009054906101000a900473ffffffffffffffffffffffffffffffffffffffff1673ffffffffffffffffffffffffffffffffffffffff163373ffffffffffffffffffffffffffffffffffffffff16141515610c2757600080fd5b600660009054906101000a900460ff16151515610c4357600080fd5b6001600660006101000a81548160ff0219169083151502179055507f6985a02210a168e66602d3235cb6db0e70f92b3ba4d376a33c0f3d9434bff62560405160405180910390a1565b60095481565b600460009054906101000a900473ffffffffffffffffffffffffffffffffffffffff1673ffffffffffffffffffffffffffffffffffffffff163373ffffffffffffffffffffffffffffffffffffffff16141515610cee57600080fd5b6000600560008373ffffffffffffffffffffffffffffffffffffffff1673ffffffffffffffffffffffffffffffffffffffff16815260200190815260200160002060006101000a81548160ff0219169083151502179055507f45dcd9ab8c61f0629f2904906111e617d542ed4af59ecb4af2586823382a408c81604051808273ffffffffffffffffffffffffffffffffffffffff1673ffffffffffffffffffffffffffffffffffffffff16815260200191505060405180910390a150565b6000600460009054906101000a900473ffffffffffffffffffffffffffffffffffffffff1673ffffffffffffffffffffffffffffffffffffffff163373ffffffffffffffffffffffffffffffffffffffff16141515610e0a57600080fd5b600090505b82829050811015610f36576001600560008585858181101515610e2e57fe5b9050602002013573ffffffffffffffffffffffffffffffffffffffff1673ffffffffffffffffffffffffffffffffffffffff1673ffffffffffffffffffffffffffffffffffffffff16815260200190815260200160002060006101000a81548160ff0219169083151502179055507f7e82e36808082f76da270c3c5e72976b35dd02ffdd5e28dc06990b08c959f7c08383838181101515610ecb57fe5b9050602002013573ffffffffffffffffffffffffffffffffffffffff16604051808273ffffffffffffffffffffffffffffffffffffffff1673ffffffffffffffffffffffffffffffffffffffff16815260200191505060405180910390a18080600101915050610e0f565b505050565b600b60009054906101000a900460ff1681565b600460009054906101000a900473ffffffffffffffffffffffffffffffffffffffff1681565b600460009054906101000a900473ffffffffffffffffffffffffffffffffffffffff1673ffffffffffffffffffffffffffffffffffffffff163373ffffffffffffffffffffffffffffffffffffffff16141515610fd057600080fd5b600b60009054906101000a900460ff16151515610fec57600080fd5b600081111515610ffb57600080fd5b806009819055507f7a92ce9249561559a8bafc694011e930a22129b552f11534e398cd53c6e89750816040518082815260200191505060405180910390a150565b60056020528060005260406000206000915054906101000a900460ff1681565b600460009054906101000a900473ffffffffffffffffffffffffffffffffffffffff1673ffffffffffffffffffffffffffffffffffffffff163373ffffffffffffffffffffffffffffffffffffffff161415156110b857600080fd5b6001600560008373ffffffffffffffffffffffffffffffffffffffff1673ffffffffffffffffffffffffffffffffffffffff16815260200190815260200160002060006101000a81548160ff0219169083151502179055507f7e82e36808082f76da270c3c5e72976b35dd02ffdd5e28dc06990b08c959f7c081604051808273ffffffffffffffffffffffffffffffffffffffff1673ffffffffffffffffffffffffffffffffffffffff16815260200191505060405180910390a150565b600760009054906101000a900473ffffffffffffffffffffffffffffffffffffffff1681565b600460009054906101000a900473ffffffffffffffffffffffffffffffffffffffff1673ffffffffffffffffffffffffffffffffffffffff163373ffffffffffffffffffffffffffffffffffffffff161415156111f857600080fd5b61120181611717565b50565b600660019054906101000a900473ffffffffffffffffffffffffffffffffffffffff1681565b60006001905090565b6000600660009054906101000a900460ff1615151561125157600080fd5b600b60009054906101000a900460ff1615151561126d57600080fd5b6112778383611813565b6112d161128383611356565b600c60008673ffffffffffffffffffffffffffffffffffffffff1673ffffffffffffffffffffffffffffffffffffffff1681526020019081526020016000205461137490919063ffffffff16565b905068878678326eac90000081101515156112eb57600080fd5b69d3c21bcecceda1000000811115151561130457600080fd5b8273ffffffffffffffffffffffffffffffffffffffff163373ffffffffffffffffffffffffffffffffffffffff1614151561133e57600080fd5b635b36c800421015151561135157600080fd5b505050565b600061136d6002548361187b90919063ffffffff16565b9050919050565b6000818301905082811015151561138757fe5b80905092915050565b600760009054906101000a900473ffffffffffffffffffffffffffffffffffffffff1673ffffffffffffffffffffffffffffffffffffffff1663a25983e58362093a80846040518463ffffffff167c0100000000000000000000000000000000000000000000000000000000028152600401808473ffffffffffffffffffffffffffffffffffffffff1673ffffffffffffffffffffffffffffffffffffffff1681526020018381526020018281526020019350505050600060405180830381600087803b15801561146057600080fd5b505af1158015611474573d6000803e3d6000fd5b505050505050565b600061148782611356565b90506114db81600c60008673ffffffffffffffffffffffffffffffffffffffff1673ffffffffffffffffffffffffffffffffffffffff1681526020019081526020016000205461137490919063ffffffff16565b600c60008573ffffffffffffffffffffffffffffffffffffffff1673ffffffffffffffffffffffffffffffffffffffff1681526020019081526020016000208190555061153381600a5461137490919063ffffffff16565b600a8190555068878678326eac900000611564600a546b012bda5c60552e7c7a8000006118b390919063ffffffff16565b101561157357611572611614565b5b63015199c860095410151561158b5761158a611614565b5b635bb1637f4211156115a05761159f611614565b5b505050565b600160009054906101000a900473ffffffffffffffffffffffffffffffffffffffff1673ffffffffffffffffffffffffffffffffffffffff166108fc349081150290604051600060405180830381858888f1935050505015801561160d573d6000803e3d6000fd5b50565b5050565b600b60009054906101000a900460ff1615151561163057600080fd5b6001600b60006101000a81548160ff021916908315150217905550600760009054906101000a900473ffffffffffffffffffffffffffffffffffffffff1673ffffffffffffffffffffffffffffffffffffffff1663b80cdcf66040518163ffffffff167c0100000000000000000000000000000000000000000000000000000000028152600401600060405180830381600087803b1580156116d157600080fd5b505af11580156116e5573d6000803e3d6000fd5b505050507f6c08d5fc22afc78558d47102889dc76d6b5eff2c703c6229715aebc4f522627a60405160405180910390a1565b600073ffffffffffffffffffffffffffffffffffffffff168173ffffffffffffffffffffffffffffffffffffffff161415151561175357600080fd5b8073ffffffffffffffffffffffffffffffffffffffff16600460009054906101000a900473ffffffffffffffffffffffffffffffffffffffff1673ffffffffffffffffffffffffffffffffffffffff167f8be0079c531659141344cd1fd0a4f28419497f9722a3daafe3b4186f6b6457e060405160405180910390a380600460006101000a81548173ffffffffffffffffffffffffffffffffffffffff021916908373ffffffffffffffffffffffffffffffffffffffff16021790555050565b81600560008273ffffffffffffffffffffffffffffffffffffffff1673ffffffffffffffffffffffffffffffffffffffff16815260200190815260200160002060009054906101000a900460ff16151561186c57600080fd5b61187683836118cc565b505050565b60008083141561188e57600090506118ad565b818302905081838281151561189f57fe5b041415156118a957fe5b8090505b92915050565b60008282111515156118c157fe5b818303905092915050565b600073ffffffffffffffffffffffffffffffffffffffff168273ffffffffffffffffffffffffffffffffffffffff161415151561190857600080fd5b6000811415151561191857600080fd5b50505600a165627a7a7230582039ced5fbeb4f309642217f238aa1caf5cd6c617be622508932b3648e8bfac0040029",
  "source": "pragma solidity ^0.4.24;\n\nimport \"./OMIToken.sol\";\nimport \"./OMITokenLock.sol\";\nimport \"openzeppelin-solidity/contracts/math/SafeMath.sol\";\nimport \"openzeppelin-solidity/contracts/crowdsale/validation/WhitelistedCrowdsale.sol\";\nimport \"openzeppelin-solidity/contracts/lifecycle/Pausable.sol\";\n\n/// @title OMICrowdsale\n/// @author Mikel Duffy - <mikel@ecomi.com>\ncontract OMICrowdsale is WhitelistedCrowdsale, Pausable {\n  using SafeMath for uint256;\n\n  /* \n   *  Constants\n   */\n  uint256 constant crowdsaleStartTime = 1530316800;\n  uint256 constant crowdsaleFinishTime = 1538351999;\n  uint256 constant crowdsaleUSDGoal = 22125000;\n  uint256 constant crowdsaleTokenGoal = 362500000*1e18;\n  uint256 constant minimumTokenPurchase = 2500*1e18;\n  uint256 constant maximumTokenPurchase = 1000000*1e18;\n\n  /*\n   *  Storage\n   */\n  OMIToken public token;\n  OMITokenLock public tokenLock;\n\n  uint256 currentDiscountAmount;\n  uint256 public totalUSDRaised;\n  uint256 public totalTokensSold;\n  bool public isFinalized = false;\n\n  mapping(address => uint256) public purchaseRecords;\n\n  /*\n   *  Events\n   */\n  event RateChanged(uint256 newRate);\n  event USDRaisedUpdated(uint256 newTotal);\n  event WhitelistAddressAdded(address newWhitelistAddress);\n  event WhitelistAddressRemoved(address removedWhitelistAddress);\n  event CrowdsaleStarted();\n  event CrowdsaleFinished();\n\n\n  /*\n   *  Modifiers\n   */\n  modifier whenNotFinalized () {\n    require(!isFinalized);\n    _;\n  }\n\n  /*\n   *  Public Functions\n   */\n  /// @dev Contract constructor sets...\n  function OMICrowdsale (\n    uint256 _startingRate,\n    address _ETHWallet,\n    address _OMIToken,\n    address _OMITokenLock\n  )\n    Crowdsale(_startingRate, _ETHWallet, ERC20(_OMIToken))\n    public\n  {\n    token = OMIToken(_OMIToken);\n    require(token.isOMITokenContract());\n\n    tokenLock = OMITokenLock(_OMITokenLock);\n    require(tokenLock.isOMITokenLockContract());\n\n    rate = _startingRate;\n  }\n\n  /// @dev Function to call from other contracts to ensure that this is the proper contract\n  function isOMICrowdsaleContract()\n    public \n    pure \n    returns(bool)\n  { \n    return true; \n  }\n\n  /// @dev Allows the owner to set the current rate for calculating the number of tokens for a purchase.\n  /// @dev An external cron job will fetch the ETH/USD daily average from the cryptocompare API and call this function.\n  function setRate(uint256 _newRate)\n    public\n    onlyOwner\n    whenNotFinalized\n    returns(bool)\n  {\n    require(_newRate > 0);\n    rate = _newRate;\n    RateChanged(rate);\n    return true;\n  }\n\n  /// @dev Allows the owner to update the total amount of USD raised. T\n  function setUSDRaised(uint256 _total)\n    public\n    onlyOwner\n    whenNotFinalized\n  {\n    require(_total > 0);\n    totalUSDRaised = _total;\n    USDRaisedUpdated(_total);\n  }\n\n  /// @dev Gets the purchase records for a given address\n  /// @param _beneficiary Tokan purchaser\n  function getPurchaseRecord(address _beneficiary) \n    public \n    view \n    isWhitelisted(_beneficiary)\n    returns(uint256)\n  {\n    return purchaseRecords[_beneficiary];\n  }\n\n  /// @dev Adds single address to whitelist\n  /// @param _beneficiary Address to be added to the whitelist\n  function addToWhitelist(address _beneficiary) external onlyOwner {\n    whitelist[_beneficiary] = true;\n    WhitelistAddressAdded(_beneficiary);\n  }\n\n  /// @dev Adds list of addresses to whitelist. Not overloaded due to limitations with truffle testing.\n  /// @param _beneficiaries Addresses to be added to the whitelist\n  function addManyToWhitelist(address[] _beneficiaries) external onlyOwner {\n    for (uint256 i = 0; i < _beneficiaries.length; i++) {\n      whitelist[_beneficiaries[i]] = true;\n      WhitelistAddressAdded(_beneficiaries[i]);\n    }\n  }\n\n  /// @dev Removes single address from whitelist.\n  /// @param _beneficiary Address to be removed to the whitelist\n  function removeFromWhitelist(address _beneficiary) external onlyOwner {\n    whitelist[_beneficiary] = false;\n    WhitelistAddressRemoved(_beneficiary);\n  }\n\n  /// @dev Finalizes the crowdsale\n  function finalize() external onlyOwner {\n    _finalization();\n  }\n\n  /*\n   *  Internal Functions\n   */\n  /// @dev Extend parent behavior to check if current stage should close. Must call super to ensure the enforcement of the whitelist.\n  /// @param _beneficiary Token purchaser\n  /// @param _weiAmount Amount of wei contributed\n  function _preValidatePurchase(address _beneficiary, uint256 _weiAmount)\n    internal\n    whenNotPaused\n    whenNotFinalized\n   {\n    super._preValidatePurchase(_beneficiary, _weiAmount);\n\n    // Beneficiary's total should be between the minimum and maximum purchase amounts\n    uint256 _totalPurchased = purchaseRecords[_beneficiary].add(_getTokenAmount(_weiAmount));\n    require(_totalPurchased >= minimumTokenPurchase);\n    require(_totalPurchased <= maximumTokenPurchase);\n\n    // Must make the purchase from the intended whitelisted address\n    require(msg.sender == _beneficiary);\n\n    // Must be after the start time\n    require(now >= crowdsaleStartTime);\n  }\n\n  /// @dev Overrides parent by storing balances in timelock contract instead of issuing tokens right away.\n  /// @param _beneficiary Token purchaser\n  /// @param _tokenAmount Amount of tokens purchased\n  function _processPurchase(address _beneficiary, uint256 _tokenAmount)\n    internal\n  {\n    // Lock beneficiary's tokens\n    tokenLock.lockTokens(_beneficiary, 1 weeks, _tokenAmount);\n  }\n\n  /// @dev Override for extensions that require an internal state to check for validity (current user contributions, etc.)\n  /// @param _beneficiary Address receiving the tokens\n  /// @param _weiAmount Value in wei involved in the purchase\n  function _updatePurchasingState(address _beneficiary, uint256 _weiAmount)\n    internal\n  {\n    uint256 _tokenAmount = _getTokenAmount(_weiAmount);\n\n    // Add token amount to the purchase history\n    purchaseRecords[_beneficiary] = purchaseRecords[_beneficiary].add(_tokenAmount);\n    \n    // Add token amount to total tokens sold\n    totalTokensSold = totalTokensSold.add(_tokenAmount);\n\n    // Finish the crowdsale...\n    // ...if there is not a minimum purchase left\n    if (crowdsaleTokenGoal.sub(totalTokensSold) < minimumTokenPurchase) {\n      _finalization();\n    }\n    // ...if USD funding goal has been reached\n    if (totalUSDRaised >= crowdsaleUSDGoal) {\n      _finalization();\n    }\n    // ...if the time is after the crowdsale end time\n    if (now > crowdsaleFinishTime) {\n      _finalization();\n    }\n  }\n\n  /// @dev Finalizes crowdsale\n  function _finalization()\n    internal\n    whenNotFinalized\n  {\n    isFinalized = true;\n    tokenLock.finishCrowdsale();\n    CrowdsaleFinished();\n  }\n}\n",
  "sourcePath": "/Users/mikelduffy/Files/Ecomi/tge-contract/contracts/OMICrowdsale.sol",
  "compiler": {
    "name": "solc",
    "version": "0.4.24+commit.e67f0147.Emscripten.clang"
  },
  "schemaVersion": "2.0.0",
  "updatedAt": "2018-06-26T12:23:21.629Z"
}