{
  "contractName": "OMICrowdsale",
  "abi": [
    {
      "constant": true,
      "inputs": [],
      "name": "rate",
      "outputs": [
        {
          "name": "",
          "type": "uint256"
        }
      ],
      "payable": false,
      "stateMutability": "view",
      "type": "function"
    },
    {
      "constant": false,
      "inputs": [],
      "name": "unpause",
      "outputs": [],
      "payable": false,
      "stateMutability": "nonpayable",
      "type": "function"
    },
    {
      "constant": true,
      "inputs": [],
      "name": "weiRaised",
      "outputs": [
        {
          "name": "",
          "type": "uint256"
        }
      ],
      "payable": false,
      "stateMutability": "view",
      "type": "function"
    },
    {
      "constant": true,
      "inputs": [],
      "name": "wallet",
      "outputs": [
        {
          "name": "",
          "type": "address"
        }
      ],
      "payable": false,
      "stateMutability": "view",
      "type": "function"
    },
    {
      "constant": true,
      "inputs": [],
      "name": "paused",
      "outputs": [
        {
          "name": "",
          "type": "bool"
        }
      ],
      "payable": false,
      "stateMutability": "view",
      "type": "function"
    },
    {
      "constant": true,
      "inputs": [],
      "name": "totalTokensSold",
      "outputs": [
        {
          "name": "",
          "type": "uint256"
        }
      ],
      "payable": false,
      "stateMutability": "view",
      "type": "function"
    },
    {
      "constant": true,
      "inputs": [
        {
          "name": "",
          "type": "address"
        }
      ],
      "name": "purchaseRecords",
      "outputs": [
        {
          "name": "",
          "type": "uint256"
        }
      ],
      "payable": false,
      "stateMutability": "view",
      "type": "function"
    },
    {
      "constant": false,
      "inputs": [],
      "name": "renounceOwnership",
      "outputs": [],
      "payable": false,
      "stateMutability": "nonpayable",
      "type": "function"
    },
    {
      "constant": false,
      "inputs": [],
      "name": "pause",
      "outputs": [],
      "payable": false,
      "stateMutability": "nonpayable",
      "type": "function"
    },
    {
      "constant": true,
      "inputs": [],
      "name": "totalUSDRaised",
      "outputs": [
        {
          "name": "",
          "type": "uint256"
        }
      ],
      "payable": false,
      "stateMutability": "view",
      "type": "function"
    },
    {
      "constant": true,
      "inputs": [],
      "name": "isFinalized",
      "outputs": [
        {
          "name": "",
          "type": "bool"
        }
      ],
      "payable": false,
      "stateMutability": "view",
      "type": "function"
    },
    {
      "constant": true,
      "inputs": [],
      "name": "owner",
      "outputs": [
        {
          "name": "",
          "type": "address"
        }
      ],
      "payable": false,
      "stateMutability": "view",
      "type": "function"
    },
    {
      "constant": true,
      "inputs": [
        {
          "name": "",
          "type": "address"
        }
      ],
      "name": "whitelist",
      "outputs": [
        {
          "name": "",
          "type": "bool"
        }
      ],
      "payable": false,
      "stateMutability": "view",
      "type": "function"
    },
    {
      "constant": true,
      "inputs": [],
      "name": "tokenLock",
      "outputs": [
        {
          "name": "",
          "type": "address"
        }
      ],
      "payable": false,
      "stateMutability": "view",
      "type": "function"
    },
    {
      "constant": false,
      "inputs": [
        {
          "name": "_beneficiary",
          "type": "address"
        }
      ],
      "name": "buyTokens",
      "outputs": [],
      "payable": true,
      "stateMutability": "payable",
      "type": "function"
    },
    {
      "constant": false,
      "inputs": [
        {
          "name": "_newOwner",
          "type": "address"
        }
      ],
      "name": "transferOwnership",
      "outputs": [],
      "payable": false,
      "stateMutability": "nonpayable",
      "type": "function"
    },
    {
      "constant": true,
      "inputs": [],
      "name": "token",
      "outputs": [
        {
          "name": "",
          "type": "address"
        }
      ],
      "payable": false,
      "stateMutability": "view",
      "type": "function"
    },
    {
      "inputs": [
        {
          "name": "_startingRate",
          "type": "uint256"
        },
        {
          "name": "_ETHWallet",
          "type": "address"
        },
        {
          "name": "_OMIToken",
          "type": "address"
        },
        {
          "name": "_OMITokenLock",
          "type": "address"
        }
      ],
      "payable": false,
      "stateMutability": "nonpayable",
      "type": "constructor"
    },
    {
      "payable": true,
      "stateMutability": "payable",
      "type": "fallback"
    },
    {
      "anonymous": false,
      "inputs": [
        {
          "indexed": false,
          "name": "newRate",
          "type": "uint256"
        }
      ],
      "name": "RateChanged",
      "type": "event"
    },
    {
      "anonymous": false,
      "inputs": [
        {
          "indexed": false,
          "name": "newTotal",
          "type": "uint256"
        }
      ],
      "name": "USDRaisedUpdated",
      "type": "event"
    },
    {
      "anonymous": false,
      "inputs": [
        {
          "indexed": false,
          "name": "newWhitelistAddress",
          "type": "address"
        }
      ],
      "name": "WhitelistAddressAdded",
      "type": "event"
    },
    {
      "anonymous": false,
      "inputs": [
        {
          "indexed": false,
          "name": "removedWhitelistAddress",
          "type": "address"
        }
      ],
      "name": "WhitelistAddressRemoved",
      "type": "event"
    },
    {
      "anonymous": false,
      "inputs": [],
      "name": "CrowdsaleStarted",
      "type": "event"
    },
    {
      "anonymous": false,
      "inputs": [],
      "name": "CrowdsaleFinished",
      "type": "event"
    },
    {
      "anonymous": false,
      "inputs": [],
      "name": "Pause",
      "type": "event"
    },
    {
      "anonymous": false,
      "inputs": [],
      "name": "Unpause",
      "type": "event"
    },
    {
      "anonymous": false,
      "inputs": [
        {
          "indexed": true,
          "name": "previousOwner",
          "type": "address"
        }
      ],
      "name": "OwnershipRenounced",
      "type": "event"
    },
    {
      "anonymous": false,
      "inputs": [
        {
          "indexed": true,
          "name": "previousOwner",
          "type": "address"
        },
        {
          "indexed": true,
          "name": "newOwner",
          "type": "address"
        }
      ],
      "name": "OwnershipTransferred",
      "type": "event"
    },
    {
      "anonymous": false,
      "inputs": [
        {
          "indexed": true,
          "name": "purchaser",
          "type": "address"
        },
        {
          "indexed": true,
          "name": "beneficiary",
          "type": "address"
        },
        {
          "indexed": false,
          "name": "value",
          "type": "uint256"
        },
        {
          "indexed": false,
          "name": "amount",
          "type": "uint256"
        }
      ],
      "name": "TokenPurchase",
      "type": "event"
    },
    {
      "constant": true,
      "inputs": [],
      "name": "isOMICrowdsaleContract",
      "outputs": [
        {
          "name": "",
          "type": "bool"
        }
      ],
      "payable": false,
      "stateMutability": "pure",
      "type": "function"
    },
    {
      "constant": true,
      "inputs": [],
      "name": "isOpen",
      "outputs": [
        {
          "name": "",
          "type": "bool"
        }
      ],
      "payable": false,
      "stateMutability": "view",
      "type": "function"
    },
    {
      "constant": false,
      "inputs": [
        {
          "name": "_newRate",
          "type": "uint256"
        }
      ],
      "name": "setRate",
      "outputs": [
        {
          "name": "",
          "type": "bool"
        }
      ],
      "payable": false,
      "stateMutability": "nonpayable",
      "type": "function"
    },
    {
      "constant": false,
      "inputs": [
        {
          "name": "_total",
          "type": "uint256"
        }
      ],
      "name": "setUSDRaised",
      "outputs": [],
      "payable": false,
      "stateMutability": "nonpayable",
      "type": "function"
    },
    {
      "constant": true,
      "inputs": [
        {
          "name": "_beneficiary",
          "type": "address"
        }
      ],
      "name": "getPurchaseRecord",
      "outputs": [
        {
          "name": "",
          "type": "uint256"
        }
      ],
      "payable": false,
      "stateMutability": "view",
      "type": "function"
    },
    {
      "constant": false,
      "inputs": [
        {
          "name": "_beneficiary",
          "type": "address"
        }
      ],
      "name": "addToWhitelist",
      "outputs": [],
      "payable": false,
      "stateMutability": "nonpayable",
      "type": "function"
    },
    {
      "constant": false,
      "inputs": [
        {
          "name": "_beneficiaries",
          "type": "address[]"
        }
      ],
      "name": "addManyToWhitelist",
      "outputs": [],
      "payable": false,
      "stateMutability": "nonpayable",
      "type": "function"
    },
    {
      "constant": false,
      "inputs": [
        {
          "name": "_beneficiary",
          "type": "address"
        }
      ],
      "name": "removeFromWhitelist",
      "outputs": [],
      "payable": false,
      "stateMutability": "nonpayable",
      "type": "function"
    },
    {
      "constant": false,
      "inputs": [],
      "name": "finalize",
      "outputs": [],
      "payable": false,
      "stateMutability": "nonpayable",
      "type": "function"
    }
  ],
  "bytecode": "0x60806040526000600660006101000a81548160ff0219169083151502179055506000600a60006101000a81548160ff0219169083151502179055503480156200004757600080fd5b5060405160808062001de9833981018060405281019080805190602001909291908051906020019092919080519060200190929190805190602001909291905050508383836000831115156200009c57600080fd5b600073ffffffffffffffffffffffffffffffffffffffff168273ffffffffffffffffffffffffffffffffffffffff1614151515620000d957600080fd5b600073ffffffffffffffffffffffffffffffffffffffff168173ffffffffffffffffffffffffffffffffffffffff16141515156200011657600080fd5b8260028190555081600160006101000a81548173ffffffffffffffffffffffffffffffffffffffff021916908373ffffffffffffffffffffffffffffffffffffffff160217905550806000806101000a81548173ffffffffffffffffffffffffffffffffffffffff021916908373ffffffffffffffffffffffffffffffffffffffff16021790555050505033600460006101000a81548173ffffffffffffffffffffffffffffffffffffffff021916908373ffffffffffffffffffffffffffffffffffffffff16021790555081600660016101000a81548173ffffffffffffffffffffffffffffffffffffffff021916908373ffffffffffffffffffffffffffffffffffffffff160217905550600660019054906101000a900473ffffffffffffffffffffffffffffffffffffffff1673ffffffffffffffffffffffffffffffffffffffff166332366ea56040518163ffffffff167c0100000000000000000000000000000000000000000000000000000000028152600401602060405180830381600087803b158015620002aa57600080fd5b505af1158015620002bf573d6000803e3d6000fd5b505050506040513d6020811015620002d657600080fd5b81019080805190602001909291905050501515620002f357600080fd5b80600760006101000a81548173ffffffffffffffffffffffffffffffffffffffff021916908373ffffffffffffffffffffffffffffffffffffffff160217905550600760009054906101000a900473ffffffffffffffffffffffffffffffffffffffff1673ffffffffffffffffffffffffffffffffffffffff166372bc8ff26040518163ffffffff167c0100000000000000000000000000000000000000000000000000000000028152600401602060405180830381600087803b158015620003bb57600080fd5b505af1158015620003d0573d6000803e3d6000fd5b505050506040513d6020811015620003e757600080fd5b810190808051906020019092919050505015156200040457600080fd5b83600281905550505050506119ca806200041f6000396000f300608060405260043610610154576000357c0100000000000000000000000000000000000000000000000000000000900463ffffffff1680632c4e722e1461015f57806334fcf4371461018a5780633f4ba83a146101cf5780634042b66f146101e657806347535d7b146102115780634bb278f314610240578063521eb273146102575780635c975abb146102ae57806363b20117146102dd57806364cd0d3e14610308578063715018a61461035f57806376e75e05146103765780638456cb59146103cd57806385cbc881146103e45780638ab1d6811461040f5780638c10671c146104525780638d4e40831461048d5780638da5cb5b146104bc5780639348ff61146105135780639b19251a14610540578063e43252d71461059b578063e718234d146105de578063ec8ac4d814610635578063f2fde38b1461066b578063fc0c546a146106ae578063fd4eeb8f14610705575b61015d33610734565b005b34801561016b57600080fd5b50610174610802565b6040518082815260200191505060405180910390f35b34801561019657600080fd5b506101b560048036038101908080359060200190929190505050610808565b604051808215151515815260200191505060405180910390f35b3480156101db57600080fd5b506101e46108da565b005b3480156101f257600080fd5b506101fb61099a565b6040518082815260200191505060405180910390f35b34801561021d57600080fd5b506102266109a0565b604051808215151515815260200191505060405180910390f35b34801561024c57600080fd5b506102556109e7565b005b34801561026357600080fd5b5061026c610a4d565b604051808273ffffffffffffffffffffffffffffffffffffffff1673ffffffffffffffffffffffffffffffffffffffff16815260200191505060405180910390f35b3480156102ba57600080fd5b506102c3610a73565b604051808215151515815260200191505060405180910390f35b3480156102e957600080fd5b506102f2610a86565b6040518082815260200191505060405180910390f35b34801561031457600080fd5b50610349600480360381019080803573ffffffffffffffffffffffffffffffffffffffff169060200190929190505050610a8c565b6040518082815260200191505060405180910390f35b34801561036b57600080fd5b50610374610aa4565b005b34801561038257600080fd5b506103b7600480360381019080803573ffffffffffffffffffffffffffffffffffffffff169060200190929190505050610ba9565b6040518082815260200191505060405180910390f35b3480156103d957600080fd5b506103e2610c4c565b005b3480156103f057600080fd5b506103f9610d0d565b6040518082815260200191505060405180910390f35b34801561041b57600080fd5b50610450600480360381019080803573ffffffffffffffffffffffffffffffffffffffff169060200190929190505050610d13565b005b34801561045e57600080fd5b5061048b600480360381019080803590602001908201803590602001919091929391929390505050610e2d565b005b34801561049957600080fd5b506104a2610fbc565b604051808215151515815260200191505060405180910390f35b3480156104c857600080fd5b506104d1610fcf565b604051808273ffffffffffffffffffffffffffffffffffffffff1673ffffffffffffffffffffffffffffffffffffffff16815260200191505060405180910390f35b34801561051f57600080fd5b5061053e60048036038101908080359060200190929190505050610ff5565b005b34801561054c57600080fd5b50610581600480360381019080803573ffffffffffffffffffffffffffffffffffffffff1690602001909291905050506110bd565b604051808215151515815260200191505060405180910390f35b3480156105a757600080fd5b506105dc600480360381019080803573ffffffffffffffffffffffffffffffffffffffff1690602001909291905050506110dd565b005b3480156105ea57600080fd5b506105f36111f7565b604051808273ffffffffffffffffffffffffffffffffffffffff1673ffffffffffffffffffffffffffffffffffffffff16815260200191505060405180910390f35b610669600480360381019080803573ffffffffffffffffffffffffffffffffffffffff169060200190929190505050610734565b005b34801561067757600080fd5b506106ac600480360381019080803573ffffffffffffffffffffffffffffffffffffffff16906020019092919050505061121d565b005b3480156106ba57600080fd5b506106c3611285565b604051808273ffffffffffffffffffffffffffffffffffffffff1673ffffffffffffffffffffffffffffffffffffffff16815260200191505060405180910390f35b34801561071157600080fd5b5061071a6112ab565b604051808215151515815260200191505060405180910390f35b60008034915061074483836112b4565b61074d826113d8565b9050610764826003546113f690919063ffffffff16565b6003819055506107748382611412565b8273ffffffffffffffffffffffffffffffffffffffff163373ffffffffffffffffffffffffffffffffffffffff167f623b3804fa71d67900d064613da8f94b9617215ee90799290593e1745087ad188484604051808381526020018281526020019250505060405180910390a36107eb83836114fe565b6107f3611627565b6107fd8383611692565b505050565b60025481565b6000600460009054906101000a900473ffffffffffffffffffffffffffffffffffffffff1673ffffffffffffffffffffffffffffffffffffffff163373ffffffffffffffffffffffffffffffffffffffff1614151561086657600080fd5b600a60009054906101000a900460ff1615151561088257600080fd5b60008211151561089157600080fd5b816002819055507f595a30f13a69b616c4d568e2a2b7875fdfe86e4300a049953c76ee278f8f3f106002546040518082815260200191505060405180910390a160019050919050565b600460009054906101000a900473ffffffffffffffffffffffffffffffffffffffff1673ffffffffffffffffffffffffffffffffffffffff163373ffffffffffffffffffffffffffffffffffffffff1614151561093657600080fd5b600660009054906101000a900460ff16151561095157600080fd5b6000600660006101000a81548160ff0219169083151502179055507f7805862f689e2f13df9f062ff482ad3ad112aca9e0847911ed832e158c525b3360405160405180910390a1565b60035481565b6000600660009054906101000a900460ff161515156109be57600080fd5b600a60009054906101000a900460ff161515156109da57600080fd5b635b361f40421015905090565b600460009054906101000a900473ffffffffffffffffffffffffffffffffffffffff1673ffffffffffffffffffffffffffffffffffffffff163373ffffffffffffffffffffffffffffffffffffffff16141515610a4357600080fd5b610a4b611696565b565b600160009054906101000a900473ffffffffffffffffffffffffffffffffffffffff1681565b600660009054906101000a900460ff1681565b60095481565b600b6020528060005260406000206000915090505481565b600460009054906101000a900473ffffffffffffffffffffffffffffffffffffffff1673ffffffffffffffffffffffffffffffffffffffff163373ffffffffffffffffffffffffffffffffffffffff16141515610b0057600080fd5b600460009054906101000a900473ffffffffffffffffffffffffffffffffffffffff1673ffffffffffffffffffffffffffffffffffffffff167ff8df31144d9c2f0f6b59d69b8b98abd5459d07f2742c4df920b25aae33c6482060405160405180910390a26000600460006101000a81548173ffffffffffffffffffffffffffffffffffffffff021916908373ffffffffffffffffffffffffffffffffffffffff160217905550565b600081600560008273ffffffffffffffffffffffffffffffffffffffff1673ffffffffffffffffffffffffffffffffffffffff16815260200190815260200160002060009054906101000a900460ff161515610c0457600080fd5b600b60008473ffffffffffffffffffffffffffffffffffffffff1673ffffffffffffffffffffffffffffffffffffffff16815260200190815260200160002054915050919050565b600460009054906101000a900473ffffffffffffffffffffffffffffffffffffffff1673ffffffffffffffffffffffffffffffffffffffff163373ffffffffffffffffffffffffffffffffffffffff16141515610ca857600080fd5b600660009054906101000a900460ff16151515610cc457600080fd5b6001600660006101000a81548160ff0219169083151502179055507f6985a02210a168e66602d3235cb6db0e70f92b3ba4d376a33c0f3d9434bff62560405160405180910390a1565b60085481565b600460009054906101000a900473ffffffffffffffffffffffffffffffffffffffff1673ffffffffffffffffffffffffffffffffffffffff163373ffffffffffffffffffffffffffffffffffffffff16141515610d6f57600080fd5b6000600560008373ffffffffffffffffffffffffffffffffffffffff1673ffffffffffffffffffffffffffffffffffffffff16815260200190815260200160002060006101000a81548160ff0219169083151502179055507f45dcd9ab8c61f0629f2904906111e617d542ed4af59ecb4af2586823382a408c81604051808273ffffffffffffffffffffffffffffffffffffffff1673ffffffffffffffffffffffffffffffffffffffff16815260200191505060405180910390a150565b6000600460009054906101000a900473ffffffffffffffffffffffffffffffffffffffff1673ffffffffffffffffffffffffffffffffffffffff163373ffffffffffffffffffffffffffffffffffffffff16141515610e8b57600080fd5b600090505b82829050811015610fb7576001600560008585858181101515610eaf57fe5b9050602002013573ffffffffffffffffffffffffffffffffffffffff1673ffffffffffffffffffffffffffffffffffffffff1673ffffffffffffffffffffffffffffffffffffffff16815260200190815260200160002060006101000a81548160ff0219169083151502179055507f7e82e36808082f76da270c3c5e72976b35dd02ffdd5e28dc06990b08c959f7c08383838181101515610f4c57fe5b9050602002013573ffffffffffffffffffffffffffffffffffffffff16604051808273ffffffffffffffffffffffffffffffffffffffff1673ffffffffffffffffffffffffffffffffffffffff16815260200191505060405180910390a18080600101915050610e90565b505050565b600a60009054906101000a900460ff1681565b600460009054906101000a900473ffffffffffffffffffffffffffffffffffffffff1681565b600460009054906101000a900473ffffffffffffffffffffffffffffffffffffffff1673ffffffffffffffffffffffffffffffffffffffff163373ffffffffffffffffffffffffffffffffffffffff1614151561105157600080fd5b600a60009054906101000a900460ff1615151561106d57600080fd5b60008111151561107c57600080fd5b806008819055507f7a92ce9249561559a8bafc694011e930a22129b552f11534e398cd53c6e89750816040518082815260200191505060405180910390a150565b60056020528060005260406000206000915054906101000a900460ff1681565b600460009054906101000a900473ffffffffffffffffffffffffffffffffffffffff1673ffffffffffffffffffffffffffffffffffffffff163373ffffffffffffffffffffffffffffffffffffffff1614151561113957600080fd5b6001600560008373ffffffffffffffffffffffffffffffffffffffff1673ffffffffffffffffffffffffffffffffffffffff16815260200190815260200160002060006101000a81548160ff0219169083151502179055507f7e82e36808082f76da270c3c5e72976b35dd02ffdd5e28dc06990b08c959f7c081604051808273ffffffffffffffffffffffffffffffffffffffff1673ffffffffffffffffffffffffffffffffffffffff16815260200191505060405180910390a150565b600760009054906101000a900473ffffffffffffffffffffffffffffffffffffffff1681565b600460009054906101000a900473ffffffffffffffffffffffffffffffffffffffff1673ffffffffffffffffffffffffffffffffffffffff163373ffffffffffffffffffffffffffffffffffffffff1614151561127957600080fd5b61128281611799565b50565b600660019054906101000a900473ffffffffffffffffffffffffffffffffffffffff1681565b60006001905090565b6000600660009054906101000a900460ff161515156112d257600080fd5b600a60009054906101000a900460ff161515156112ee57600080fd5b6112f88383611895565b611352611304836113d8565b600b60008673ffffffffffffffffffffffffffffffffffffffff1673ffffffffffffffffffffffffffffffffffffffff168152602001908152602001600020546113f690919063ffffffff16565b905068878678326eac900000811015151561136c57600080fd5b6a0422ca8b0a00a425000000811115151561138657600080fd5b8273ffffffffffffffffffffffffffffffffffffffff163373ffffffffffffffffffffffffffffffffffffffff161415156113c057600080fd5b635b361f4042101515156113d357600080fd5b505050565b60006113ef600254836118fd90919063ffffffff16565b9050919050565b6000818301905082811015151561140957fe5b80905092915050565b600760009054906101000a900473ffffffffffffffffffffffffffffffffffffffff1673ffffffffffffffffffffffffffffffffffffffff1663a25983e58362093a80846040518463ffffffff167c0100000000000000000000000000000000000000000000000000000000028152600401808473ffffffffffffffffffffffffffffffffffffffff1673ffffffffffffffffffffffffffffffffffffffff1681526020018381526020018281526020019350505050600060405180830381600087803b1580156114e257600080fd5b505af11580156114f6573d6000803e3d6000fd5b505050505050565b6000611509826113d8565b905061155d81600b60008673ffffffffffffffffffffffffffffffffffffffff1673ffffffffffffffffffffffffffffffffffffffff168152602001908152602001600020546113f690919063ffffffff16565b600b60008573ffffffffffffffffffffffffffffffffffffffff1673ffffffffffffffffffffffffffffffffffffffff168152602001908152602001600020819055506115b5816009546113f690919063ffffffff16565b60098190555068878678326eac9000006115e66009546b012bda5c60552e7c7a80000061193590919063ffffffff16565b10156115f5576115f4611696565b5b63015199c860085410151561160d5761160c611696565b5b635baf694042111561162257611621611696565b5b505050565b600160009054906101000a900473ffffffffffffffffffffffffffffffffffffffff1673ffffffffffffffffffffffffffffffffffffffff166108fc349081150290604051600060405180830381858888f1935050505015801561168f573d6000803e3d6000fd5b50565b5050565b600a60009054906101000a900460ff161515156116b257600080fd5b6001600a60006101000a81548160ff021916908315150217905550600760009054906101000a900473ffffffffffffffffffffffffffffffffffffffff1673ffffffffffffffffffffffffffffffffffffffff1663b80cdcf66040518163ffffffff167c0100000000000000000000000000000000000000000000000000000000028152600401600060405180830381600087803b15801561175357600080fd5b505af1158015611767573d6000803e3d6000fd5b505050507f6c08d5fc22afc78558d47102889dc76d6b5eff2c703c6229715aebc4f522627a60405160405180910390a1565b600073ffffffffffffffffffffffffffffffffffffffff168173ffffffffffffffffffffffffffffffffffffffff16141515156117d557600080fd5b8073ffffffffffffffffffffffffffffffffffffffff16600460009054906101000a900473ffffffffffffffffffffffffffffffffffffffff1673ffffffffffffffffffffffffffffffffffffffff167f8be0079c531659141344cd1fd0a4f28419497f9722a3daafe3b4186f6b6457e060405160405180910390a380600460006101000a81548173ffffffffffffffffffffffffffffffffffffffff021916908373ffffffffffffffffffffffffffffffffffffffff16021790555050565b81600560008273ffffffffffffffffffffffffffffffffffffffff1673ffffffffffffffffffffffffffffffffffffffff16815260200190815260200160002060009054906101000a900460ff1615156118ee57600080fd5b6118f8838361194e565b505050565b600080831415611910576000905061192f565b818302905081838281151561192157fe5b0414151561192b57fe5b8090505b92915050565b600082821115151561194357fe5b818303905092915050565b600073ffffffffffffffffffffffffffffffffffffffff168273ffffffffffffffffffffffffffffffffffffffff161415151561198a57600080fd5b6000811415151561199a57600080fd5b50505600a165627a7a72305820da36e77554dcd5437b01c711dc682a40eec155e87646379391cbad02e7bf42e40029",
  "source": "pragma solidity ^0.4.24;\n\nimport \"./OMIToken.sol\";\nimport \"./OMITokenLock.sol\";\nimport \"openzeppelin-solidity/contracts/math/SafeMath.sol\";\nimport \"openzeppelin-solidity/contracts/crowdsale/validation/WhitelistedCrowdsale.sol\";\nimport \"openzeppelin-solidity/contracts/lifecycle/Pausable.sol\";\n\n/// @title OMICrowdsale\n/// @author Mikel Duffy - <mikel@ecomi.com>\ncontract OMICrowdsale is WhitelistedCrowdsale, Pausable {\n  using SafeMath for uint256;\n\n  /* \n   *  Constants\n   */\n  uint256 constant crowdsaleStartTime = 1530273600; // Pacific/Auckland 2018-06-30 00:00:00 \n  uint256 constant crowdsaleFinishTime = 1538222400; // Pacific/Auckland 2018-09-30 00:00:00\n  uint256 constant crowdsaleUSDGoal = 22125000;\n  uint256 constant crowdsaleTokenGoal = 362500000*1e18;\n  uint256 constant minimumTokenPurchase = 2500*1e18;\n  uint256 constant maximumTokenPurchase = 5000000*1e18;\n\n  /*\n   *  Storage\n   */\n  OMIToken public token;\n  OMITokenLock public tokenLock;\n\n  uint256 public totalUSDRaised;\n  uint256 public totalTokensSold;\n  bool public isFinalized = false;\n\n  mapping(address => uint256) public purchaseRecords;\n\n  /*\n   *  Events\n   */\n  event RateChanged(uint256 newRate);\n  event USDRaisedUpdated(uint256 newTotal);\n  event WhitelistAddressAdded(address newWhitelistAddress);\n  event WhitelistAddressRemoved(address removedWhitelistAddress);\n  event CrowdsaleStarted();\n  event CrowdsaleFinished();\n\n\n  /*\n   *  Modifiers\n   */\n  modifier whenNotFinalized () {\n    require(!isFinalized);\n    _;\n  }\n\n  /*\n   *  Public Functions\n   */\n  /// @dev Contract constructor sets...\n  function OMICrowdsale (\n    uint256 _startingRate,\n    address _ETHWallet,\n    address _OMIToken,\n    address _OMITokenLock\n  )\n    Crowdsale(_startingRate, _ETHWallet, ERC20(_OMIToken))\n    public\n  {\n    token = OMIToken(_OMIToken);\n    require(token.isOMITokenContract());\n\n    tokenLock = OMITokenLock(_OMITokenLock);\n    require(tokenLock.isOMITokenLockContract());\n\n    rate = _startingRate;\n  }\n\n  /// @dev Function to call from other contracts to ensure that this is the proper contract\n  function isOMICrowdsaleContract()\n    public \n    pure \n    returns(bool)\n  { \n    return true; \n  }\n\n  /// @dev Function to check if crowdsale is open\n  function isOpen()\n    public\n    view\n    whenNotPaused\n    whenNotFinalized\n    returns(bool)\n  {\n    return now >= crowdsaleStartTime;\n  }\n\n  /// @dev Allows the owner to set the current rate for calculating the number of tokens for a purchase.\n  /// @dev An external cron job will fetch the ETH/USD daily average from the cryptocompare API and call this function.\n  function setRate(uint256 _newRate)\n    public\n    onlyOwner\n    whenNotFinalized\n    returns(bool)\n  {\n    require(_newRate > 0);\n    rate = _newRate;\n    RateChanged(rate);\n    return true;\n  }\n\n  /// @dev Allows the owner to update the total amount of USD raised. T\n  function setUSDRaised(uint256 _total)\n    public\n    onlyOwner\n    whenNotFinalized\n  {\n    require(_total > 0);\n    totalUSDRaised = _total;\n    USDRaisedUpdated(_total);\n  }\n\n  /// @dev Gets the purchase records for a given address\n  /// @param _beneficiary Tokan purchaser\n  function getPurchaseRecord(address _beneficiary) \n    public \n    view \n    isWhitelisted(_beneficiary)\n    returns(uint256)\n  {\n    return purchaseRecords[_beneficiary];\n  }\n\n  /// @dev Adds single address to whitelist\n  /// @param _beneficiary Address to be added to the whitelist\n  function addToWhitelist(address _beneficiary) external onlyOwner {\n    whitelist[_beneficiary] = true;\n    WhitelistAddressAdded(_beneficiary);\n  }\n\n  /// @dev Adds list of addresses to whitelist. Not overloaded due to limitations with truffle testing.\n  /// @param _beneficiaries Addresses to be added to the whitelist\n  function addManyToWhitelist(address[] _beneficiaries) external onlyOwner {\n    for (uint256 i = 0; i < _beneficiaries.length; i++) {\n      whitelist[_beneficiaries[i]] = true;\n      WhitelistAddressAdded(_beneficiaries[i]);\n    }\n  }\n\n  /// @dev Removes single address from whitelist.\n  /// @param _beneficiary Address to be removed to the whitelist\n  function removeFromWhitelist(address _beneficiary) external onlyOwner {\n    whitelist[_beneficiary] = false;\n    WhitelistAddressRemoved(_beneficiary);\n  }\n\n  /// @dev Finalizes the crowdsale\n  function finalize() external onlyOwner {\n    _finalization();\n  }\n\n  /*\n   *  Internal Functions\n   */\n  /// @dev Extend parent behavior to check if current stage should close. Must call super to ensure the enforcement of the whitelist.\n  /// @param _beneficiary Token purchaser\n  /// @param _weiAmount Amount of wei contributed\n  function _preValidatePurchase(address _beneficiary, uint256 _weiAmount)\n    internal\n    whenNotPaused\n    whenNotFinalized\n   {\n    super._preValidatePurchase(_beneficiary, _weiAmount);\n\n    // Beneficiary's total should be between the minimum and maximum purchase amounts\n    uint256 _totalPurchased = purchaseRecords[_beneficiary].add(_getTokenAmount(_weiAmount));\n    require(_totalPurchased >= minimumTokenPurchase);\n    require(_totalPurchased <= maximumTokenPurchase);\n\n    // Must make the purchase from the intended whitelisted address\n    require(msg.sender == _beneficiary);\n\n    // Must be after the start time\n    require(now >= crowdsaleStartTime);\n  }\n\n  /// @dev Overrides parent by storing balances in timelock contract instead of issuing tokens right away.\n  /// @param _beneficiary Token purchaser\n  /// @param _tokenAmount Amount of tokens purchased\n  function _processPurchase(address _beneficiary, uint256 _tokenAmount)\n    internal\n  {\n    // Lock beneficiary's tokens\n    tokenLock.lockTokens(_beneficiary, 1 weeks, _tokenAmount);\n  }\n\n  /// @dev Override for extensions that require an internal state to check for validity (current user contributions, etc.)\n  /// @param _beneficiary Address receiving the tokens\n  /// @param _weiAmount Value in wei involved in the purchase\n  function _updatePurchasingState(address _beneficiary, uint256 _weiAmount)\n    internal\n  {\n    uint256 _tokenAmount = _getTokenAmount(_weiAmount);\n\n    // Add token amount to the purchase history\n    purchaseRecords[_beneficiary] = purchaseRecords[_beneficiary].add(_tokenAmount);\n    \n    // Add token amount to total tokens sold\n    totalTokensSold = totalTokensSold.add(_tokenAmount);\n\n    // Finish the crowdsale...\n    // ...if there is not a minimum purchase left\n    if (crowdsaleTokenGoal.sub(totalTokensSold) < minimumTokenPurchase) {\n      _finalization();\n    }\n    // ...if USD funding goal has been reached\n    if (totalUSDRaised >= crowdsaleUSDGoal) {\n      _finalization();\n    }\n    // ...if the time is after the crowdsale end time\n    if (now > crowdsaleFinishTime) {\n      _finalization();\n    }\n  }\n\n  /// @dev Finalizes crowdsale\n  function _finalization()\n    internal\n    whenNotFinalized\n  {\n    isFinalized = true;\n    tokenLock.finishCrowdsale();\n    CrowdsaleFinished();\n  }\n}\n",
  "sourcePath": "/Users/mikelduffy/Files/Ecomi/tge-contract/contracts/OMICrowdsale.sol",
  "compiler": {
    "name": "solc",
    "version": "0.4.24+commit.e67f0147.Emscripten.clang"
  },
  "schemaVersion": "2.0.1",
  "updatedAt": "2018-06-29T04:58:23.339Z"
}