{
  "contractName": "OMITokenLock",
  "abi": [
    {
      "constant": true,
      "inputs": [],
      "name": "crowdsaleEndTime",
      "outputs": [
        {
          "name": "",
          "type": "uint256"
        }
      ],
      "payable": false,
      "stateMutability": "view",
      "type": "function"
    },
    {
      "constant": false,
      "inputs": [],
      "name": "unpause",
      "outputs": [],
      "payable": false,
      "stateMutability": "nonpayable",
      "type": "function"
    },
    {
      "constant": true,
      "inputs": [
        {
          "name": "",
          "type": "address"
        }
      ],
      "name": "tokenLocks",
      "outputs": [
        {
          "name": "beneficiary",
          "type": "address"
        },
        {
          "name": "tokenBalance",
          "type": "uint256"
        },
        {
          "name": "lockIndex",
          "type": "uint256"
        }
      ],
      "payable": false,
      "stateMutability": "view",
      "type": "function"
    },
    {
      "constant": true,
      "inputs": [],
      "name": "paused",
      "outputs": [
        {
          "name": "",
          "type": "bool"
        }
      ],
      "payable": false,
      "stateMutability": "view",
      "type": "function"
    },
    {
      "constant": false,
      "inputs": [],
      "name": "pause",
      "outputs": [],
      "payable": false,
      "stateMutability": "nonpayable",
      "type": "function"
    },
    {
      "constant": true,
      "inputs": [],
      "name": "owner",
      "outputs": [
        {
          "name": "",
          "type": "address"
        }
      ],
      "payable": false,
      "stateMutability": "view",
      "type": "function"
    },
    {
      "constant": true,
      "inputs": [],
      "name": "crowdsale",
      "outputs": [
        {
          "name": "",
          "type": "address"
        }
      ],
      "payable": false,
      "stateMutability": "view",
      "type": "function"
    },
    {
      "constant": true,
      "inputs": [],
      "name": "totalTokensLocked",
      "outputs": [
        {
          "name": "",
          "type": "uint256"
        }
      ],
      "payable": false,
      "stateMutability": "view",
      "type": "function"
    },
    {
      "constant": true,
      "inputs": [
        {
          "name": "",
          "type": "uint256"
        }
      ],
      "name": "lockIndexes",
      "outputs": [
        {
          "name": "",
          "type": "address"
        }
      ],
      "payable": false,
      "stateMutability": "view",
      "type": "function"
    },
    {
      "constant": true,
      "inputs": [],
      "name": "crowdsaleFinished",
      "outputs": [
        {
          "name": "",
          "type": "bool"
        }
      ],
      "payable": false,
      "stateMutability": "view",
      "type": "function"
    },
    {
      "constant": false,
      "inputs": [
        {
          "name": "newOwner",
          "type": "address"
        }
      ],
      "name": "transferOwnership",
      "outputs": [],
      "payable": false,
      "stateMutability": "nonpayable",
      "type": "function"
    },
    {
      "constant": true,
      "inputs": [],
      "name": "allowanceProvider",
      "outputs": [
        {
          "name": "",
          "type": "address"
        }
      ],
      "payable": false,
      "stateMutability": "view",
      "type": "function"
    },
    {
      "constant": true,
      "inputs": [],
      "name": "token",
      "outputs": [
        {
          "name": "",
          "type": "address"
        }
      ],
      "payable": false,
      "stateMutability": "view",
      "type": "function"
    },
    {
      "inputs": [
        {
          "name": "_token",
          "type": "address"
        }
      ],
      "payable": false,
      "stateMutability": "nonpayable",
      "type": "constructor"
    },
    {
      "anonymous": false,
      "inputs": [
        {
          "indexed": true,
          "name": "beneficiary",
          "type": "address"
        },
        {
          "indexed": false,
          "name": "amount",
          "type": "uint256"
        },
        {
          "indexed": false,
          "name": "releaseTime",
          "type": "uint256"
        }
      ],
      "name": "LockedTokens",
      "type": "event"
    },
    {
      "anonymous": false,
      "inputs": [
        {
          "indexed": true,
          "name": "beneficiary",
          "type": "address"
        },
        {
          "indexed": false,
          "name": "amount",
          "type": "uint256"
        }
      ],
      "name": "UnlockedTokens",
      "type": "event"
    },
    {
      "anonymous": false,
      "inputs": [],
      "name": "FinishedCrowdsale",
      "type": "event"
    },
    {
      "anonymous": false,
      "inputs": [],
      "name": "Pause",
      "type": "event"
    },
    {
      "anonymous": false,
      "inputs": [],
      "name": "Unpause",
      "type": "event"
    },
    {
      "anonymous": false,
      "inputs": [
        {
          "indexed": true,
          "name": "previousOwner",
          "type": "address"
        },
        {
          "indexed": true,
          "name": "newOwner",
          "type": "address"
        }
      ],
      "name": "OwnershipTransferred",
      "type": "event"
    },
    {
      "constant": false,
      "inputs": [
        {
          "name": "_crowdsale",
          "type": "address"
        }
      ],
      "name": "setCrowdsaleAddress",
      "outputs": [
        {
          "name": "",
          "type": "bool"
        }
      ],
      "payable": false,
      "stateMutability": "nonpayable",
      "type": "function"
    },
    {
      "constant": false,
      "inputs": [
        {
          "name": "_allowanceProvider",
          "type": "address"
        }
      ],
      "name": "setAllowanceAddress",
      "outputs": [
        {
          "name": "",
          "type": "bool"
        }
      ],
      "payable": false,
      "stateMutability": "nonpayable",
      "type": "function"
    },
    {
      "constant": false,
      "inputs": [],
      "name": "finishCrowdsale",
      "outputs": [],
      "payable": false,
      "stateMutability": "nonpayable",
      "type": "function"
    },
    {
      "constant": true,
      "inputs": [
        {
          "name": "_beneficiary",
          "type": "address"
        }
      ],
      "name": "getTokenBalance",
      "outputs": [
        {
          "name": "",
          "type": "uint256"
        }
      ],
      "payable": false,
      "stateMutability": "view",
      "type": "function"
    },
    {
      "constant": true,
      "inputs": [
        {
          "name": "_beneficiary",
          "type": "address"
        }
      ],
      "name": "getNumberOfLocks",
      "outputs": [
        {
          "name": "",
          "type": "uint256"
        }
      ],
      "payable": false,
      "stateMutability": "view",
      "type": "function"
    },
    {
      "constant": true,
      "inputs": [
        {
          "name": "_beneficiary",
          "type": "address"
        },
        {
          "name": "_lockIndex",
          "type": "uint256"
        }
      ],
      "name": "getLockByIndex",
      "outputs": [
        {
          "name": "amount",
          "type": "uint256"
        },
        {
          "name": "lockDuration",
          "type": "uint256"
        },
        {
          "name": "released",
          "type": "bool"
        },
        {
          "name": "revoked",
          "type": "bool"
        }
      ],
      "payable": false,
      "stateMutability": "view",
      "type": "function"
    },
    {
      "constant": false,
      "inputs": [
        {
          "name": "_beneficiary",
          "type": "address"
        },
        {
          "name": "_lockIndex",
          "type": "uint256"
        }
      ],
      "name": "revokeLockByIndex",
      "outputs": [
        {
          "name": "",
          "type": "bool"
        }
      ],
      "payable": false,
      "stateMutability": "nonpayable",
      "type": "function"
    },
    {
      "constant": false,
      "inputs": [
        {
          "name": "_beneficiary",
          "type": "address"
        },
        {
          "name": "_lockDuration",
          "type": "uint256"
        },
        {
          "name": "_tokens",
          "type": "uint256"
        }
      ],
      "name": "lockTokens",
      "outputs": [],
      "payable": false,
      "stateMutability": "nonpayable",
      "type": "function"
    },
    {
      "constant": false,
      "inputs": [],
      "name": "releaseTokens",
      "outputs": [
        {
          "name": "",
          "type": "bool"
        }
      ],
      "payable": false,
      "stateMutability": "nonpayable",
      "type": "function"
    },
    {
      "constant": false,
      "inputs": [
        {
          "name": "_from",
          "type": "uint256"
        },
        {
          "name": "_to",
          "type": "uint256"
        }
      ],
      "name": "releaseAll",
      "outputs": [
        {
          "name": "",
          "type": "bool"
        }
      ],
      "payable": false,
      "stateMutability": "nonpayable",
      "type": "function"
    }
  ],
  "bytecode": "0x606060405260008060146101000a81548160ff0219169083151502179055506000600360146101000a81548160ff021916908315150217905550341561004457600080fd5b60405160208061238d83398101604052808051906020019091905050336000806101000a81548173ffffffffffffffffffffffffffffffffffffffff021916908373ffffffffffffffffffffffffffffffffffffffff16021790555080600160006101000a81548173ffffffffffffffffffffffffffffffffffffffff021916908373ffffffffffffffffffffffffffffffffffffffff1602179055505061229c806100f16000396000f300606060405260043610610133576000357c0100000000000000000000000000000000000000000000000000000000900463ffffffff16806308f53f44146101385780631374eb6f146101895780631d545d09146101fc5780631f35bc40146102255780633aecd0e3146102765780633f4ba83a146102c357806356b63df7146102d85780635c975abb1461035f5780638456cb591461038c5780638cc5e56e146103a15780638da5cb5b146103fb5780639c1e03a014610450578063a25983e5146104a5578063a96f8668146104f0578063b261f82f1461051d578063b80cdcf614610561578063dc5bf96114610576578063e729b4161461059f578063ece84fd514610602578063ef79a35f1461062f578063f2fde38b1461067c578063f9d0fed4146106b5578063fc0c546a1461070a575b600080fd5b341561014357600080fd5b61016f600480803573ffffffffffffffffffffffffffffffffffffffff1690602001909190505061075f565b604051808215151515815260200191505060405180910390f35b341561019457600080fd5b6101c9600480803573ffffffffffffffffffffffffffffffffffffffff16906020019091908035906020019091905050610806565b60405180858152602001848152602001831515151581526020018215151515815260200194505050505060405180910390f35b341561020757600080fd5b61020f610a32565b6040518082815260200191505060405180910390f35b341561023057600080fd5b61025c600480803573ffffffffffffffffffffffffffffffffffffffff16906020019091905050610a38565b604051808215151515815260200191505060405180910390f35b341561028157600080fd5b6102ad600480803573ffffffffffffffffffffffffffffffffffffffff16906020019091905050610adf565b6040518082815260200191505060405180910390f35b34156102ce57600080fd5b6102d6610b2b565b005b34156102e357600080fd5b61030f600480803573ffffffffffffffffffffffffffffffffffffffff16906020019091905050610be9565b604051808473ffffffffffffffffffffffffffffffffffffffff1673ffffffffffffffffffffffffffffffffffffffff168152602001838152602001828152602001935050505060405180910390f35b341561036a57600080fd5b610372610c33565b604051808215151515815260200191505060405180910390f35b341561039757600080fd5b61039f610c46565b005b34156103ac57600080fd5b6103e1600480803573ffffffffffffffffffffffffffffffffffffffff16906020019091908035906020019091905050610d06565b604051808215151515815260200191505060405180910390f35b341561040657600080fd5b61040e610ed7565b604051808273ffffffffffffffffffffffffffffffffffffffff1673ffffffffffffffffffffffffffffffffffffffff16815260200191505060405180910390f35b341561045b57600080fd5b610463610efc565b604051808273ffffffffffffffffffffffffffffffffffffffff1673ffffffffffffffffffffffffffffffffffffffff16815260200191505060405180910390f35b34156104b057600080fd5b6104ee600480803573ffffffffffffffffffffffffffffffffffffffff16906020019091908035906020019091908035906020019091905050610f22565b005b34156104fb57600080fd5b6105036113e8565b604051808215151515815260200191505060405180910390f35b341561052857600080fd5b610547600480803590602001909190803590602001909190505061143b565b604051808215151515815260200191505060405180910390f35b341561056c57600080fd5b6105746115ac565b005b341561058157600080fd5b6105896116e7565b6040518082815260200191505060405180910390f35b34156105aa57600080fd5b6105c060048080359060200190919050506116ed565b604051808273ffffffffffffffffffffffffffffffffffffffff1673ffffffffffffffffffffffffffffffffffffffff16815260200191505060405180910390f35b341561060d57600080fd5b61061561172c565b604051808215151515815260200191505060405180910390f35b341561063a57600080fd5b610666600480803573ffffffffffffffffffffffffffffffffffffffff1690602001909190505061173f565b6040518082815260200191505060405180910390f35b341561068757600080fd5b6106b3600480803573ffffffffffffffffffffffffffffffffffffffff1690602001909190505061178e565b005b34156106c057600080fd5b6106c86118e3565b604051808273ffffffffffffffffffffffffffffffffffffffff1673ffffffffffffffffffffffffffffffffffffffff16815260200191505060405180910390f35b341561071557600080fd5b61071d611909565b604051808273ffffffffffffffffffffffffffffffffffffffff1673ffffffffffffffffffffffffffffffffffffffff16815260200191505060405180910390f35b60008060009054906101000a900473ffffffffffffffffffffffffffffffffffffffff1673ffffffffffffffffffffffffffffffffffffffff163373ffffffffffffffffffffffffffffffffffffffff161415156107bc57600080fd5b81600260006101000a81548173ffffffffffffffffffffffffffffffffffffffff021916908373ffffffffffffffffffffffffffffffffffffffff16021790555060019050919050565b6000806000806000851015151561081c57600080fd5b6108756001600560008973ffffffffffffffffffffffffffffffffffffffff1673ffffffffffffffffffffffffffffffffffffffff1681526020019081526020016000206003018054905061192f90919063ffffffff16565b851115151561088357600080fd5b600560008773ffffffffffffffffffffffffffffffffffffffff1673ffffffffffffffffffffffffffffffffffffffff168152602001908152602001600020600301858154811015156108d257fe5b906000526020600020906003020160000154600560008873ffffffffffffffffffffffffffffffffffffffff1673ffffffffffffffffffffffffffffffffffffffff1681526020019081526020016000206003018681548110151561093357fe5b906000526020600020906003020160010154600560008973ffffffffffffffffffffffffffffffffffffffff1673ffffffffffffffffffffffffffffffffffffffff1681526020019081526020016000206003018781548110151561099457fe5b906000526020600020906003020160020160009054906101000a900460ff16600560008a73ffffffffffffffffffffffffffffffffffffffff1673ffffffffffffffffffffffffffffffffffffffff16815260200190815260200160002060030188815481101515610a0257fe5b906000526020600020906003020160020160019054906101000a900460ff16935093509350935092959194509250565b60045481565b60008060009054906101000a900473ffffffffffffffffffffffffffffffffffffffff1673ffffffffffffffffffffffffffffffffffffffff163373ffffffffffffffffffffffffffffffffffffffff16141515610a9557600080fd5b81600360006101000a81548173ffffffffffffffffffffffffffffffffffffffff021916908373ffffffffffffffffffffffffffffffffffffffff16021790555060019050919050565b6000600560008373ffffffffffffffffffffffffffffffffffffffff1673ffffffffffffffffffffffffffffffffffffffff168152602001908152602001600020600101549050919050565b6000809054906101000a900473ffffffffffffffffffffffffffffffffffffffff1673ffffffffffffffffffffffffffffffffffffffff163373ffffffffffffffffffffffffffffffffffffffff16141515610b8657600080fd5b600060149054906101000a900460ff161515610ba157600080fd5b60008060146101000a81548160ff0219169083151502179055507f7805862f689e2f13df9f062ff482ad3ad112aca9e0847911ed832e158c525b3360405160405180910390a1565b60056020528060005260406000206000915090508060000160009054906101000a900473ffffffffffffffffffffffffffffffffffffffff16908060010154908060020154905083565b600060149054906101000a900460ff1681565b6000809054906101000a900473ffffffffffffffffffffffffffffffffffffffff1673ffffffffffffffffffffffffffffffffffffffff163373ffffffffffffffffffffffffffffffffffffffff16141515610ca157600080fd5b600060149054906101000a900460ff16151515610cbd57600080fd5b6001600060146101000a81548160ff0219169083151502179055507f6985a02210a168e66602d3235cb6db0e70f92b3ba4d376a33c0f3d9434bff62560405160405180910390a1565b60008060009054906101000a900473ffffffffffffffffffffffffffffffffffffffff1673ffffffffffffffffffffffffffffffffffffffff163373ffffffffffffffffffffffffffffffffffffffff16141515610d6357600080fd5b60008210151515610d7357600080fd5b610dcc6001600560008673ffffffffffffffffffffffffffffffffffffffff1673ffffffffffffffffffffffffffffffffffffffff1681526020019081526020016000206003018054905061192f90919063ffffffff16565b8211151515610dda57600080fd5b600560008473ffffffffffffffffffffffffffffffffffffffff1673ffffffffffffffffffffffffffffffffffffffff16815260200190815260200160002060030182815481101515610e2957fe5b906000526020600020906003020160020160019054906101000a900460ff16151515610e5457600080fd5b6001600560008573ffffffffffffffffffffffffffffffffffffffff1673ffffffffffffffffffffffffffffffffffffffff16815260200190815260200160002060030183815481101515610ea557fe5b906000526020600020906003020160020160016101000a81548160ff0219169083151502179055506001905092915050565b6000809054906101000a900473ffffffffffffffffffffffffffffffffffffffff1681565b600360009054906101000a900473ffffffffffffffffffffffffffffffffffffffff1681565b6000806000809054906101000a900473ffffffffffffffffffffffffffffffffffffffff1673ffffffffffffffffffffffffffffffffffffffff163373ffffffffffffffffffffffffffffffffffffffff161480610fcd5750600360009054906101000a900473ffffffffffffffffffffffffffffffffffffffff1673ffffffffffffffffffffffffffffffffffffffff163373ffffffffffffffffffffffffffffffffffffffff16145b1515610fd857600080fd5b600060149054906101000a900460ff16151515610ff457600080fd5b6000841015151561100457600080fd5b60008311151561101357600080fd5b600160009054906101000a900473ffffffffffffffffffffffffffffffffffffffff1673ffffffffffffffffffffffffffffffffffffffff1663dd62ed3e600260009054906101000a900473ffffffffffffffffffffffffffffffffffffffff16306000604051602001526040518363ffffffff167c0100000000000000000000000000000000000000000000000000000000028152600401808373ffffffffffffffffffffffffffffffffffffffff1673ffffffffffffffffffffffffffffffffffffffff1681526020018273ffffffffffffffffffffffffffffffffffffffff1673ffffffffffffffffffffffffffffffffffffffff16815260200192505050602060405180830381600087803b151561112e57600080fd5b6102c65a03f1151561113f57600080fd5b505050604051805190509150816111616007548561194890919063ffffffff16565b1115151561116e57600080fd5b600560008673ffffffffffffffffffffffffffffffffffffffff1673ffffffffffffffffffffffffffffffffffffffff168152602001908152602001600020905060008160000160009054906101000a900473ffffffffffffffffffffffffffffffffffffffff1673ffffffffffffffffffffffffffffffffffffffff1614156112a757848160000160006101000a81548173ffffffffffffffffffffffffffffffffffffffff021916908373ffffffffffffffffffffffffffffffffffffffff16021790555060068054905081600201819055506006805480600101828161125791906120ec565b9160005260206000209001600087909190916101000a81548173ffffffffffffffffffffffffffffffffffffffff021916908373ffffffffffffffffffffffffffffffffffffffff160217905550505b8060030180548060010182816112bd9190612118565b91600052602060002090600302016000608060405190810160405280878152602001888152602001600015158152602001600015158152509091909150600082015181600001556020820151816001015560408201518160020160006101000a81548160ff02191690831515021790555060608201518160020160016101000a81548160ff02191690831515021790555050505061136883826001015461194890919063ffffffff16565b81600101819055506113856007548461194890919063ffffffff16565b6007819055508473ffffffffffffffffffffffffffffffffffffffff167f96480d0485518da027da30c099c5ed78006afe441dbb13b237bbc485bfa886c08486604051808381526020018281526020019250505060405180910390a25050505050565b60008060149054906101000a900460ff1615151561140557600080fd5b600360149054906101000a900460ff16151561142057600080fd5b61142933611966565b151561143457600080fd5b6001905090565b60008060008060149054906101000a900460ff1615151561145b57600080fd5b6000809054906101000a900473ffffffffffffffffffffffffffffffffffffffff1673ffffffffffffffffffffffffffffffffffffffff163373ffffffffffffffffffffffffffffffffffffffff161415156114b657600080fd5b600085101515156114c657600080fd5b83851015156114d457600080fd5b60068054905084111515156114e857600080fd5b600360149054906101000a900460ff16151561150357600080fd5b8491505b838210156115a05760068281548110151561151e57fe5b906000526020600020900160009054906101000a900473ffffffffffffffffffffffffffffffffffffffff16905060008173ffffffffffffffffffffffffffffffffffffffff16141561157057611585565b61157981611966565b151561158457600080fd5b5b61159960018361194890919063ffffffff16565b9150611507565b60019250505092915050565b6000809054906101000a900473ffffffffffffffffffffffffffffffffffffffff1673ffffffffffffffffffffffffffffffffffffffff163373ffffffffffffffffffffffffffffffffffffffff1614806116545750600360009054906101000a900473ffffffffffffffffffffffffffffffffffffffff1673ffffffffffffffffffffffffffffffffffffffff163373ffffffffffffffffffffffffffffffffffffffff16145b151561165f57600080fd5b600060149054906101000a900460ff1615151561167b57600080fd5b600360149054906101000a900460ff1615151561169757600080fd5b6001600360146101000a81548160ff021916908315150217905550426004819055507f0fb04ec744c7fb4b7d197467d36ec332dbfb98aa6fe19b6469e9a758714c8b0a60405160405180910390a1565b60075481565b6006818154811015156116fc57fe5b90600052602060002090016000915054906101000a900473ffffffffffffffffffffffffffffffffffffffff1681565b600360149054906101000a900460ff1681565b6000600560008373ffffffffffffffffffffffffffffffffffffffff1673ffffffffffffffffffffffffffffffffffffffff168152602001908152602001600020600301805490509050919050565b6000809054906101000a900473ffffffffffffffffffffffffffffffffffffffff1673ffffffffffffffffffffffffffffffffffffffff163373ffffffffffffffffffffffffffffffffffffffff161415156117e957600080fd5b600073ffffffffffffffffffffffffffffffffffffffff168173ffffffffffffffffffffffffffffffffffffffff161415151561182557600080fd5b8073ffffffffffffffffffffffffffffffffffffffff166000809054906101000a900473ffffffffffffffffffffffffffffffffffffffff1673ffffffffffffffffffffffffffffffffffffffff167f8be0079c531659141344cd1fd0a4f28419497f9722a3daafe3b4186f6b6457e060405160405180910390a3806000806101000a81548173ffffffffffffffffffffffffffffffffffffffff021916908373ffffffffffffffffffffffffffffffffffffffff16021790555050565b600260009054906101000a900473ffffffffffffffffffffffffffffffffffffffff1681565b600160009054906101000a900473ffffffffffffffffffffffffffffffffffffffff1681565b600082821115151561193d57fe5b818303905092915050565b600080828401905083811015151561195c57fe5b8091505092915050565b600061197061214a565b600080600061197d61218f565b600060149054906101000a900460ff1615151561199957600080fd5b600560008873ffffffffffffffffffffffffffffffffffffffff1673ffffffffffffffffffffffffffffffffffffffff168152602001908152602001600020608060405190810160405290816000820160009054906101000a900473ffffffffffffffffffffffffffffffffffffffff1673ffffffffffffffffffffffffffffffffffffffff1673ffffffffffffffffffffffffffffffffffffffff168152602001600182015481526020016002820154815260200160038201805480602002602001604051908101604052809291908181526020016000905b82821015611af057838290600052602060002090600302016080604051908101604052908160008201548152602001600182015481526020016002820160009054906101000a900460ff161515151581526020016002820160019054906101000a900460ff16151515158152505081526020019060010190611a73565b505050508152505094508673ffffffffffffffffffffffffffffffffffffffff16856000015173ffffffffffffffffffffffffffffffffffffffff16141515611b3857600080fd5b6000935060009250600091505b846060015151821015611ff057846060015182815181101515611b6457fe5b906020019060200201519050806040015180611b81575080606001515b15611b8b57611fd5565b42611ba5826020015160045461194890919063ffffffff16565b101515611bb55760019350611fd5565b600160009054906101000a900473ffffffffffffffffffffffffffffffffffffffff1673ffffffffffffffffffffffffffffffffffffffff1663dd62ed3e600260009054906101000a900473ffffffffffffffffffffffffffffffffffffffff16306000604051602001526040518363ffffffff167c0100000000000000000000000000000000000000000000000000000000028152600401808373ffffffffffffffffffffffffffffffffffffffff1673ffffffffffffffffffffffffffffffffffffffff1681526020018273ffffffffffffffffffffffffffffffffffffffff1673ffffffffffffffffffffffffffffffffffffffff16815260200192505050602060405180830381600087803b1515611cd057600080fd5b6102c65a03f11515611ce157600080fd5b50505060405180519050816000015111151515611cfd57600080fd5b3373ffffffffffffffffffffffffffffffffffffffff167faf08a4db36432bb5cbbfdfcf5af1040246483dc0dae8a9616cc79816c432fee982600001516040518082815260200191505060405180910390a2600192506001600560008973ffffffffffffffffffffffffffffffffffffffff1673ffffffffffffffffffffffffffffffffffffffff16815260200190815260200160002060030183815481101515611da457fe5b906000526020600020906003020160020160006101000a81548160ff021916908315150217905550611e258160000151600560008a73ffffffffffffffffffffffffffffffffffffffff1673ffffffffffffffffffffffffffffffffffffffff1681526020019081526020016000206001015461192f90919063ffffffff16565b600560008973ffffffffffffffffffffffffffffffffffffffff1673ffffffffffffffffffffffffffffffffffffffff16815260200190815260200160002060010181905550611e84816000015160075461192f90919063ffffffff16565b600781905550600160009054906101000a900473ffffffffffffffffffffffffffffffffffffffff1673ffffffffffffffffffffffffffffffffffffffff166323b872dd600260009054906101000a900473ffffffffffffffffffffffffffffffffffffffff163384600001516000604051602001526040518463ffffffff167c0100000000000000000000000000000000000000000000000000000000028152600401808473ffffffffffffffffffffffffffffffffffffffff1673ffffffffffffffffffffffffffffffffffffffff1681526020018373ffffffffffffffffffffffffffffffffffffffff1673ffffffffffffffffffffffffffffffffffffffff1681526020018281526020019350505050602060405180830381600087803b1515611fb157600080fd5b6102c65a03f11515611fc257600080fd5b505050604051805190501515611fd457fe5b5b611fe960018361194890919063ffffffff16565b9150611b45565b8315156120df57600560003373ffffffffffffffffffffffffffffffffffffffff1673ffffffffffffffffffffffffffffffffffffffff168152602001908152602001600020600080820160006101000a81549073ffffffffffffffffffffffffffffffffffffffff02191690556001820160009055600282016000905560038201600061207e91906121bc565b505060006006866040015181548110151561209557fe5b906000526020600020900160006101000a81548173ffffffffffffffffffffffffffffffffffffffff021916908373ffffffffffffffffffffffffffffffffffffffff1602179055505b8295505050505050919050565b8154818355818115116121135781836000526020600020918201910161211291906121e0565b5b505050565b815481835581811511612145576003028160030283600052602060002091820191016121449190612205565b5b505050565b608060405190810160405280600073ffffffffffffffffffffffffffffffffffffffff168152602001600081526020016000815260200161218961225c565b81525090565b60806040519081016040528060008152602001600081526020016000151581526020016000151581525090565b50805460008255600302906000526020600020908101906121dd9190612205565b50565b61220291905b808211156121fe5760008160009055506001016121e6565b5090565b90565b61225991905b808211156122555760008082016000905560018201600090556002820160006101000a81549060ff02191690556002820160016101000a81549060ff02191690555060030161220b565b5090565b90565b6020604051908101604052806000815250905600a165627a7a723058201e7c3f8cc64af94cf8175c0e988a839d17c7a6cd38827cae94c8a40b3fd1beed0029",
  "source": "pragma solidity ^0.4.18;\n\nimport \"./OMIToken.sol\";\nimport \"../node_modules/zeppelin-solidity/contracts/ownership/Ownable.sol\";\nimport \"../node_modules/zeppelin-solidity/contracts/math/SafeMath.sol\";\nimport \"../node_modules/zeppelin-solidity/contracts/lifecycle/Pausable.sol\";\n\n/// @title OMITokenLock\n/// @author Mikel Duffy - <mikel@ecomi.com>\n/// @dev OMITokenLock is a token holder contract that will allow multiple beneficiaries to extract the tokens after a given release time. It is a modification of the OpenZeppenlin TokenLock to allow for one token lock smart contract for many beneficiaries.\ncontract OMITokenLock is Ownable, Pausable {\n  using SafeMath for uint256;\n\n  /*\n   *  Storage\n   */\n  OMIToken public token;\n  address public allowanceProvider;\n  address public crowdsale;\n  bool public crowdsaleFinished = false;\n  uint256 public crowdsaleEndTime;\n\n  struct Lock {\n    uint256 amount;\n    uint256 lockDuration;\n    bool released;\n    bool revoked;\n  }\n  struct TokenLockVault {\n    address beneficiary;\n    uint256 tokenBalance;\n    uint256 lockIndex;\n    Lock[] locks;\n  }\n  mapping(address => TokenLockVault) public tokenLocks;\n  address[] public lockIndexes;\n  uint256 public totalTokensLocked;\n\n  /*\n   *  Modifiers\n   */\n  modifier ownerOrCrowdsale () {\n    require(msg.sender == owner || msg.sender == crowdsale);\n    _;\n  }\n\n  /*\n   *  Events\n   */\n  event LockedTokens(address indexed beneficiary, uint256 amount, uint256 releaseTime);\n  event UnlockedTokens(address indexed beneficiary, uint256 amount);\n  event FinishedCrowdsale();\n\n  /*\n   *  Public Functions\n   */\n  /// @dev Constructor function\n  function OMITokenLock (OMIToken _token) public {\n    token = _token;\n  }\n\n  /// @dev Sets the crowdsale address to allow authorize locking permissions\n  /// @param _crowdsale The address of the crowdsale\n  function setCrowdsaleAddress (address _crowdsale)\n    public\n    onlyOwner\n    returns (bool)\n  {\n    crowdsale = _crowdsale;\n    return true;\n  }\n\n  /// @dev Sets the token allowance provider address\n  /// @param _allowanceProvider The address of the token allowance provider\n  function setAllowanceAddress (address _allowanceProvider)\n    public\n    onlyOwner\n    returns (bool)\n  {\n    allowanceProvider = _allowanceProvider;\n    return true;\n  }\n\n  /// @dev Marks the crowdsale as being finished and sets the crowdsale finish date\n  function finishCrowdsale()\n    public\n    ownerOrCrowdsale\n    whenNotPaused\n  {\n    require(!crowdsaleFinished);\n    crowdsaleFinished = true;\n    crowdsaleEndTime = now;\n    FinishedCrowdsale();\n  }\n\n  /// @dev Gets the total amount of tokens for a given address\n  /// @param _beneficiary The address for which to look up the total token amount\n  function getTokenBalance(address _beneficiary)\n    public\n    view\n    returns (uint)\n  {\n    return tokenLocks[_beneficiary].tokenBalance;\n  }\n\n  /// @dev Gets the total number of locks for a given address\n  /// @param _beneficiary The address for which to look up the total number of locks\n  function getNumberOfLocks(address _beneficiary)\n    public\n    view\n    returns (uint)\n  {\n    return tokenLocks[_beneficiary].locks.length;\n  }\n\n  /// @dev Gets the lock at a given index for a given address\n  /// @param _beneficiary The address used to look up the lock\n  /// @param _lockIndex The index used to look up the lock\n  function getLockByIndex(address _beneficiary, uint256 _lockIndex)\n    public\n    view\n    returns (uint256 amount, uint256 lockDuration, bool released, bool revoked)\n  {\n    require(_lockIndex >= 0);\n    require(_lockIndex <= tokenLocks[_beneficiary].locks.length.sub(1));\n\n    return (\n      tokenLocks[_beneficiary].locks[_lockIndex].amount,\n      tokenLocks[_beneficiary].locks[_lockIndex].lockDuration,\n      tokenLocks[_beneficiary].locks[_lockIndex].released,\n      tokenLocks[_beneficiary].locks[_lockIndex].revoked\n    );\n  }\n\n  /// @dev Revokes the lock at a given index for a given address\n  /// @param _beneficiary The address used to look up the lock\n  /// @param _lockIndex The lock index to be revoked\n  function revokeLockByIndex(address _beneficiary, uint256 _lockIndex)\n    public\n    onlyOwner\n    returns (bool)\n  {\n    require(_lockIndex >= 0);\n    require(_lockIndex <= tokenLocks[_beneficiary].locks.length.sub(1));\n    require(!tokenLocks[_beneficiary].locks[_lockIndex].revoked);\n\n    tokenLocks[_beneficiary].locks[_lockIndex].revoked = true;\n\n    return true;\n  }\n\n  /// @dev Locks tokens for a given beneficiary\n  /// @param _beneficiary The address to which the tokens will be released\n  /// @param _lockDuration The duration of time that must elapse after the crowdsale end date\n  /// @param _tokens The amount of tokens to be locked\n  function lockTokens(address _beneficiary, uint256 _lockDuration, uint256 _tokens)\n    external\n    ownerOrCrowdsale\n    whenNotPaused\n  {\n    // Lock duration must be greater than zero seconds\n    require(_lockDuration >= 0);\n    // Token amount must be greater than zero\n    require(_tokens > 0);\n\n    // Token Lock must have a sufficient allowance prior to creating locks\n    uint256 tokenAllowance = token.allowance(allowanceProvider, address(this));\n    require(_tokens.add(totalTokensLocked) <= tokenAllowance);\n\n    TokenLockVault storage lock = tokenLocks[_beneficiary];\n\n    // If this is the first lock for this beneficiary, add their address to the lock indexes\n    if (lock.beneficiary == 0) {\n      lock.beneficiary = _beneficiary;\n      lock.lockIndex = lockIndexes.length;\n      lockIndexes.push(_beneficiary);\n    }\n\n    // Add the lock\n    lock.locks.push(Lock(_tokens, _lockDuration, false, false));\n\n    // Update the total tokens for this beneficiary\n    lock.tokenBalance = lock.tokenBalance.add(_tokens);\n\n    // Update the number of locked tokens\n    totalTokensLocked = _tokens.add(totalTokensLocked);\n\n    LockedTokens(_beneficiary, _tokens, _lockDuration);\n  }\n\n  /// @dev Transfers any tokens held in a timelock vault to beneficiary if they are due for release.\n  function releaseTokens()\n    public\n    whenNotPaused\n    returns(bool)\n  {\n    require(crowdsaleFinished);\n    require(_release(msg.sender));\n    return true;\n  }\n\n  /// @dev Transfers tokens held by timelock to all beneficiaries within the provided range.\n  /// @param _from the start lock index\n  /// @param _to the end lock index\n  function releaseAll(uint256 _from, uint256 _to)\n    external\n    whenNotPaused\n    onlyOwner\n    returns (bool)\n  {\n    require(_from >= 0);\n    require(_from < _to);\n    require(_to <= lockIndexes.length);\n    require(crowdsaleFinished);\n\n    for (uint256 i = _from; i < _to; i = i.add(1)) {\n      address _beneficiary = lockIndexes[i];\n\n      //Skip any previously removed locks\n      if (_beneficiary == 0x0) {\n        continue;\n      }\n\n      require(_release(_beneficiary));\n    }\n    return true;\n  }\n\n  /*\n   *  Internal Functions\n   */\n  /// @dev Reviews and releases token for a given beneficiary\n  /// @param _beneficiary address for which a token release should be attempted\n  function _release(address _beneficiary)\n    internal\n    whenNotPaused\n    returns (bool)\n  {\n    TokenLockVault memory lock = tokenLocks[_beneficiary];\n    require(lock.beneficiary == _beneficiary);\n\n    bool hasUnDueLocks = false;\n    bool hasReleasedToken = false;\n\n    for (uint256 i = 0; i < lock.locks.length; i = i.add(1)) {\n      Lock memory currentLock = lock.locks[i];\n      // Skip any locks which are already released or revoked\n      if (currentLock.released || currentLock.revoked) {\n        continue;\n      }\n\n      // Skip any locks that are not due for release\n      if (crowdsaleEndTime.add(currentLock.lockDuration) >= now) {\n        hasUnDueLocks = true;\n        continue;\n      }\n\n      // The amount of tokens to transfer must be less than the number of locked tokens\n      require(currentLock.amount <= token.allowance(allowanceProvider, address(this)));\n\n      // Release Tokens\n      UnlockedTokens(msg.sender, currentLock.amount);\n      hasReleasedToken = true;\n      tokenLocks[_beneficiary].locks[i].released = true;\n      tokenLocks[_beneficiary].tokenBalance = tokenLocks[_beneficiary].tokenBalance.sub(currentLock.amount);\n      totalTokensLocked = totalTokensLocked.sub(currentLock.amount);\n      assert(token.transferFrom(allowanceProvider, msg.sender, currentLock.amount));\n    }\n\n    // If there are no future locks to be released, delete the lock vault\n    if (!hasUnDueLocks) {\n      delete tokenLocks[msg.sender];\n      lockIndexes[lock.lockIndex] = 0x0;\n    }\n\n    return hasReleasedToken;\n  }\n}\n",
  "sourcePath": "/Users/jermysu/Desktop/ecomi/tge-contract/contracts/OMITokenLock.sol",
  "compiler": {
    "name": "solc",
    "version": "0.4.19+commit.c4cbbb05.Emscripten.clang"
  },
  "schemaVersion": "2.0.0",
  "updatedAt": "2018-06-05T03:24:32.506Z"
}