{
  "contractName": "OMITokenLock",
  "abi": [
    {
      "constant": true,
      "inputs": [],
      "name": "crowdsaleEndTime",
      "outputs": [
        {
          "name": "",
          "type": "uint256"
        }
      ],
      "payable": false,
      "stateMutability": "view",
      "type": "function"
    },
    {
      "constant": false,
      "inputs": [],
      "name": "unpause",
      "outputs": [],
      "payable": false,
      "stateMutability": "nonpayable",
      "type": "function"
    },
    {
      "constant": true,
      "inputs": [
        {
          "name": "",
          "type": "address"
        }
      ],
      "name": "tokenLocks",
      "outputs": [
        {
          "name": "beneficiary",
          "type": "address"
        },
        {
          "name": "tokenBalance",
          "type": "uint256"
        },
        {
          "name": "lockIndex",
          "type": "uint256"
        }
      ],
      "payable": false,
      "stateMutability": "view",
      "type": "function"
    },
    {
      "constant": true,
      "inputs": [],
      "name": "paused",
      "outputs": [
        {
          "name": "",
          "type": "bool"
        }
      ],
      "payable": false,
      "stateMutability": "view",
      "type": "function"
    },
    {
      "constant": false,
      "inputs": [],
      "name": "renounceOwnership",
      "outputs": [],
      "payable": false,
      "stateMutability": "nonpayable",
      "type": "function"
    },
    {
      "constant": false,
      "inputs": [],
      "name": "pause",
      "outputs": [],
      "payable": false,
      "stateMutability": "nonpayable",
      "type": "function"
    },
    {
      "constant": true,
      "inputs": [],
      "name": "owner",
      "outputs": [
        {
          "name": "",
          "type": "address"
        }
      ],
      "payable": false,
      "stateMutability": "view",
      "type": "function"
    },
    {
      "constant": true,
      "inputs": [],
      "name": "crowdsale",
      "outputs": [
        {
          "name": "",
          "type": "address"
        }
      ],
      "payable": false,
      "stateMutability": "view",
      "type": "function"
    },
    {
      "constant": true,
      "inputs": [],
      "name": "totalTokensLocked",
      "outputs": [
        {
          "name": "",
          "type": "uint256"
        }
      ],
      "payable": false,
      "stateMutability": "view",
      "type": "function"
    },
    {
      "constant": true,
      "inputs": [
        {
          "name": "",
          "type": "uint256"
        }
      ],
      "name": "lockIndexes",
      "outputs": [
        {
          "name": "",
          "type": "address"
        }
      ],
      "payable": false,
      "stateMutability": "view",
      "type": "function"
    },
    {
      "constant": true,
      "inputs": [],
      "name": "crowdsaleFinished",
      "outputs": [
        {
          "name": "",
          "type": "bool"
        }
      ],
      "payable": false,
      "stateMutability": "view",
      "type": "function"
    },
    {
      "constant": false,
      "inputs": [
        {
          "name": "_newOwner",
          "type": "address"
        }
      ],
      "name": "transferOwnership",
      "outputs": [],
      "payable": false,
      "stateMutability": "nonpayable",
      "type": "function"
    },
    {
      "constant": true,
      "inputs": [],
      "name": "allowanceProvider",
      "outputs": [
        {
          "name": "",
          "type": "address"
        }
      ],
      "payable": false,
      "stateMutability": "view",
      "type": "function"
    },
    {
      "constant": true,
      "inputs": [],
      "name": "token",
      "outputs": [
        {
          "name": "",
          "type": "address"
        }
      ],
      "payable": false,
      "stateMutability": "view",
      "type": "function"
    },
    {
      "inputs": [
        {
          "name": "_token",
          "type": "address"
        },
        {
          "name": "_allowanceProvider",
          "type": "address"
        }
      ],
      "payable": false,
      "stateMutability": "nonpayable",
      "type": "constructor"
    },
    {
      "anonymous": false,
      "inputs": [
        {
          "indexed": true,
          "name": "beneficiary",
          "type": "address"
        },
        {
          "indexed": false,
          "name": "amount",
          "type": "uint256"
        },
        {
          "indexed": false,
          "name": "releaseTime",
          "type": "uint256"
        }
      ],
      "name": "LockedTokens",
      "type": "event"
    },
    {
      "anonymous": false,
      "inputs": [
        {
          "indexed": true,
          "name": "beneficiary",
          "type": "address"
        },
        {
          "indexed": false,
          "name": "amount",
          "type": "uint256"
        }
      ],
      "name": "UnlockedTokens",
      "type": "event"
    },
    {
      "anonymous": false,
      "inputs": [],
      "name": "FinishedCrowdsale",
      "type": "event"
    },
    {
      "anonymous": false,
      "inputs": [],
      "name": "Pause",
      "type": "event"
    },
    {
      "anonymous": false,
      "inputs": [],
      "name": "Unpause",
      "type": "event"
    },
    {
      "anonymous": false,
      "inputs": [
        {
          "indexed": true,
          "name": "previousOwner",
          "type": "address"
        }
      ],
      "name": "OwnershipRenounced",
      "type": "event"
    },
    {
      "anonymous": false,
      "inputs": [
        {
          "indexed": true,
          "name": "previousOwner",
          "type": "address"
        },
        {
          "indexed": true,
          "name": "newOwner",
          "type": "address"
        }
      ],
      "name": "OwnershipTransferred",
      "type": "event"
    },
    {
      "constant": true,
      "inputs": [],
      "name": "isOMITokenLockContract",
      "outputs": [
        {
          "name": "",
          "type": "bool"
        }
      ],
      "payable": false,
      "stateMutability": "pure",
      "type": "function"
    },
    {
      "constant": false,
      "inputs": [
        {
          "name": "_crowdsale",
          "type": "address"
        }
      ],
      "name": "setCrowdsaleAddress",
      "outputs": [
        {
          "name": "",
          "type": "bool"
        }
      ],
      "payable": false,
      "stateMutability": "nonpayable",
      "type": "function"
    },
    {
      "constant": false,
      "inputs": [
        {
          "name": "_allowanceProvider",
          "type": "address"
        }
      ],
      "name": "setAllowanceAddress",
      "outputs": [
        {
          "name": "",
          "type": "bool"
        }
      ],
      "payable": false,
      "stateMutability": "nonpayable",
      "type": "function"
    },
    {
      "constant": false,
      "inputs": [],
      "name": "finishCrowdsale",
      "outputs": [],
      "payable": false,
      "stateMutability": "nonpayable",
      "type": "function"
    },
    {
      "constant": true,
      "inputs": [
        {
          "name": "_beneficiary",
          "type": "address"
        }
      ],
      "name": "getTokenBalance",
      "outputs": [
        {
          "name": "",
          "type": "uint256"
        }
      ],
      "payable": false,
      "stateMutability": "view",
      "type": "function"
    },
    {
      "constant": true,
      "inputs": [
        {
          "name": "_beneficiary",
          "type": "address"
        }
      ],
      "name": "getNumberOfLocks",
      "outputs": [
        {
          "name": "",
          "type": "uint256"
        }
      ],
      "payable": false,
      "stateMutability": "view",
      "type": "function"
    },
    {
      "constant": true,
      "inputs": [
        {
          "name": "_beneficiary",
          "type": "address"
        },
        {
          "name": "_lockIndex",
          "type": "uint256"
        }
      ],
      "name": "getLockByIndex",
      "outputs": [
        {
          "name": "amount",
          "type": "uint256"
        },
        {
          "name": "lockDuration",
          "type": "uint256"
        },
        {
          "name": "released",
          "type": "bool"
        },
        {
          "name": "revoked",
          "type": "bool"
        }
      ],
      "payable": false,
      "stateMutability": "view",
      "type": "function"
    },
    {
      "constant": false,
      "inputs": [
        {
          "name": "_beneficiary",
          "type": "address"
        },
        {
          "name": "_lockIndex",
          "type": "uint256"
        }
      ],
      "name": "revokeLockByIndex",
      "outputs": [
        {
          "name": "",
          "type": "bool"
        }
      ],
      "payable": false,
      "stateMutability": "nonpayable",
      "type": "function"
    },
    {
      "constant": false,
      "inputs": [
        {
          "name": "_beneficiary",
          "type": "address"
        },
        {
          "name": "_lockDuration",
          "type": "uint256"
        },
        {
          "name": "_tokens",
          "type": "uint256"
        }
      ],
      "name": "lockTokens",
      "outputs": [],
      "payable": false,
      "stateMutability": "nonpayable",
      "type": "function"
    },
    {
      "constant": false,
      "inputs": [],
      "name": "releaseTokens",
      "outputs": [
        {
          "name": "",
          "type": "bool"
        }
      ],
      "payable": false,
      "stateMutability": "nonpayable",
      "type": "function"
    },
    {
      "constant": false,
      "inputs": [
        {
          "name": "_from",
          "type": "uint256"
        },
        {
          "name": "_to",
          "type": "uint256"
        }
      ],
      "name": "releaseAll",
      "outputs": [
        {
          "name": "",
          "type": "bool"
        }
      ],
      "payable": false,
      "stateMutability": "nonpayable",
      "type": "function"
    }
  ],
  "bytecode": "0x608060405260008060146101000a81548160ff0219169083151502179055506000600360146101000a81548160ff02191690831515021790555034801561004557600080fd5b50604051604080620026f78339810180604052810190808051906020019092919080519060200190929190505050336000806101000a81548173ffffffffffffffffffffffffffffffffffffffff021916908373ffffffffffffffffffffffffffffffffffffffff16021790555081600160006101000a81548173ffffffffffffffffffffffffffffffffffffffff021916908373ffffffffffffffffffffffffffffffffffffffff160217905550600160009054906101000a900473ffffffffffffffffffffffffffffffffffffffff1673ffffffffffffffffffffffffffffffffffffffff166332366ea56040518163ffffffff167c0100000000000000000000000000000000000000000000000000000000028152600401602060405180830381600087803b15801561017a57600080fd5b505af115801561018e573d6000803e3d6000fd5b505050506040513d60208110156101a457600080fd5b810190808051906020019092919050505015156101c057600080fd5b80600360006101000a81548173ffffffffffffffffffffffffffffffffffffffff021916908373ffffffffffffffffffffffffffffffffffffffff16021790555050506124e480620002136000396000f300608060405260043610610149576000357c0100000000000000000000000000000000000000000000000000000000900463ffffffff16806308f53f441461014e5780631374eb6f146101a95780631d545d09146102275780631f35bc40146102525780633aecd0e3146102ad5780633f4ba83a1461030457806356b63df71461031b5780635c975abb146103ac578063715018a6146103db57806372bc8ff2146103f25780638456cb59146104215780638cc5e56e146104385780638da5cb5b1461049d5780639c1e03a0146104f4578063a25983e51461054b578063a96f8668146105a2578063b261f82f146105d1578063b80cdcf614610620578063dc5bf96114610637578063e729b41614610662578063ece84fd5146106cf578063ef79a35f146106fe578063f2fde38b14610755578063f9d0fed414610798578063fc0c546a146107ef575b600080fd5b34801561015a57600080fd5b5061018f600480360381019080803573ffffffffffffffffffffffffffffffffffffffff169060200190929190505050610846565b604051808215151515815260200191505060405180910390f35b3480156101b557600080fd5b506101f4600480360381019080803573ffffffffffffffffffffffffffffffffffffffff169060200190929190803590602001909291905050506108ed565b60405180858152602001848152602001831515151581526020018215151515815260200194505050505060405180910390f35b34801561023357600080fd5b5061023c610b19565b6040518082815260200191505060405180910390f35b34801561025e57600080fd5b50610293600480360381019080803573ffffffffffffffffffffffffffffffffffffffff169060200190929190505050610b1f565b604051808215151515815260200191505060405180910390f35b3480156102b957600080fd5b506102ee600480360381019080803573ffffffffffffffffffffffffffffffffffffffff169060200190929190505050610c92565b6040518082815260200191505060405180910390f35b34801561031057600080fd5b50610319610cde565b005b34801561032757600080fd5b5061035c600480360381019080803573ffffffffffffffffffffffffffffffffffffffff169060200190929190505050610d9c565b604051808473ffffffffffffffffffffffffffffffffffffffff1673ffffffffffffffffffffffffffffffffffffffff168152602001838152602001828152602001935050505060405180910390f35b3480156103b857600080fd5b506103c1610de6565b604051808215151515815260200191505060405180910390f35b3480156103e757600080fd5b506103f0610df9565b005b3480156103fe57600080fd5b50610407610efb565b604051808215151515815260200191505060405180910390f35b34801561042d57600080fd5b50610436610f04565b005b34801561044457600080fd5b50610483600480360381019080803573ffffffffffffffffffffffffffffffffffffffff16906020019092919080359060200190929190505050610fc4565b604051808215151515815260200191505060405180910390f35b3480156104a957600080fd5b506104b2611195565b604051808273ffffffffffffffffffffffffffffffffffffffff1673ffffffffffffffffffffffffffffffffffffffff16815260200191505060405180910390f35b34801561050057600080fd5b506105096111ba565b604051808273ffffffffffffffffffffffffffffffffffffffff1673ffffffffffffffffffffffffffffffffffffffff16815260200191505060405180910390f35b34801561055757600080fd5b506105a0600480360381019080803573ffffffffffffffffffffffffffffffffffffffff16906020019092919080359060200190929190803590602001909291905050506111e0565b005b3480156105ae57600080fd5b506105b76116c0565b604051808215151515815260200191505060405180910390f35b3480156105dd57600080fd5b506106066004803603810190808035906020019092919080359060200190929190505050611713565b604051808215151515815260200191505060405180910390f35b34801561062c57600080fd5b5061063561184b565b005b34801561064357600080fd5b5061064c611986565b6040518082815260200191505060405180910390f35b34801561066e57600080fd5b5061068d6004803603810190808035906020019092919050505061198c565b604051808273ffffffffffffffffffffffffffffffffffffffff1673ffffffffffffffffffffffffffffffffffffffff16815260200191505060405180910390f35b3480156106db57600080fd5b506106e46119ca565b604051808215151515815260200191505060405180910390f35b34801561070a57600080fd5b5061073f600480360381019080803573ffffffffffffffffffffffffffffffffffffffff1690602001909291905050506119dd565b6040518082815260200191505060405180910390f35b34801561076157600080fd5b50610796600480360381019080803573ffffffffffffffffffffffffffffffffffffffff169060200190929190505050611a2c565b005b3480156107a457600080fd5b506107ad611a93565b604051808273ffffffffffffffffffffffffffffffffffffffff1673ffffffffffffffffffffffffffffffffffffffff16815260200191505060405180910390f35b3480156107fb57600080fd5b50610804611ab9565b604051808273ffffffffffffffffffffffffffffffffffffffff1673ffffffffffffffffffffffffffffffffffffffff16815260200191505060405180910390f35b60008060009054906101000a900473ffffffffffffffffffffffffffffffffffffffff1673ffffffffffffffffffffffffffffffffffffffff163373ffffffffffffffffffffffffffffffffffffffff161415156108a357600080fd5b81600360006101000a81548173ffffffffffffffffffffffffffffffffffffffff021916908373ffffffffffffffffffffffffffffffffffffffff16021790555060019050919050565b6000806000806000851015151561090357600080fd5b61095c6001600560008973ffffffffffffffffffffffffffffffffffffffff1673ffffffffffffffffffffffffffffffffffffffff16815260200190815260200160002060030180549050611adf90919063ffffffff16565b851115151561096a57600080fd5b600560008773ffffffffffffffffffffffffffffffffffffffff1673ffffffffffffffffffffffffffffffffffffffff168152602001908152602001600020600301858154811015156109b957fe5b906000526020600020906003020160000154600560008873ffffffffffffffffffffffffffffffffffffffff1673ffffffffffffffffffffffffffffffffffffffff16815260200190815260200160002060030186815481101515610a1a57fe5b906000526020600020906003020160010154600560008973ffffffffffffffffffffffffffffffffffffffff1673ffffffffffffffffffffffffffffffffffffffff16815260200190815260200160002060030187815481101515610a7b57fe5b906000526020600020906003020160020160009054906101000a900460ff16600560008a73ffffffffffffffffffffffffffffffffffffffff1673ffffffffffffffffffffffffffffffffffffffff16815260200190815260200160002060030188815481101515610ae957fe5b906000526020600020906003020160020160019054906101000a900460ff16935093509350935092959194509250565b60045481565b60008060009054906101000a900473ffffffffffffffffffffffffffffffffffffffff1673ffffffffffffffffffffffffffffffffffffffff163373ffffffffffffffffffffffffffffffffffffffff16141515610b7c57600080fd5b81600260006101000a81548173ffffffffffffffffffffffffffffffffffffffff021916908373ffffffffffffffffffffffffffffffffffffffff160217905550600260009054906101000a900473ffffffffffffffffffffffffffffffffffffffff1673ffffffffffffffffffffffffffffffffffffffff1663fd4eeb8f6040518163ffffffff167c0100000000000000000000000000000000000000000000000000000000028152600401602060405180830381600087803b158015610c4357600080fd5b505af1158015610c57573d6000803e3d6000fd5b505050506040513d6020811015610c6d57600080fd5b81019080805190602001909291905050501515610c8957600080fd5b60019050919050565b6000600560008373ffffffffffffffffffffffffffffffffffffffff1673ffffffffffffffffffffffffffffffffffffffff168152602001908152602001600020600101549050919050565b6000809054906101000a900473ffffffffffffffffffffffffffffffffffffffff1673ffffffffffffffffffffffffffffffffffffffff163373ffffffffffffffffffffffffffffffffffffffff16141515610d3957600080fd5b600060149054906101000a900460ff161515610d5457600080fd5b60008060146101000a81548160ff0219169083151502179055507f7805862f689e2f13df9f062ff482ad3ad112aca9e0847911ed832e158c525b3360405160405180910390a1565b60056020528060005260406000206000915090508060000160009054906101000a900473ffffffffffffffffffffffffffffffffffffffff16908060010154908060020154905083565b600060149054906101000a900460ff1681565b6000809054906101000a900473ffffffffffffffffffffffffffffffffffffffff1673ffffffffffffffffffffffffffffffffffffffff163373ffffffffffffffffffffffffffffffffffffffff16141515610e5457600080fd5b6000809054906101000a900473ffffffffffffffffffffffffffffffffffffffff1673ffffffffffffffffffffffffffffffffffffffff167ff8df31144d9c2f0f6b59d69b8b98abd5459d07f2742c4df920b25aae33c6482060405160405180910390a260008060006101000a81548173ffffffffffffffffffffffffffffffffffffffff021916908373ffffffffffffffffffffffffffffffffffffffff160217905550565b60006001905090565b6000809054906101000a900473ffffffffffffffffffffffffffffffffffffffff1673ffffffffffffffffffffffffffffffffffffffff163373ffffffffffffffffffffffffffffffffffffffff16141515610f5f57600080fd5b600060149054906101000a900460ff16151515610f7b57600080fd5b6001600060146101000a81548160ff0219169083151502179055507f6985a02210a168e66602d3235cb6db0e70f92b3ba4d376a33c0f3d9434bff62560405160405180910390a1565b60008060009054906101000a900473ffffffffffffffffffffffffffffffffffffffff1673ffffffffffffffffffffffffffffffffffffffff163373ffffffffffffffffffffffffffffffffffffffff1614151561102157600080fd5b6000821015151561103157600080fd5b61108a6001600560008673ffffffffffffffffffffffffffffffffffffffff1673ffffffffffffffffffffffffffffffffffffffff16815260200190815260200160002060030180549050611adf90919063ffffffff16565b821115151561109857600080fd5b600560008473ffffffffffffffffffffffffffffffffffffffff1673ffffffffffffffffffffffffffffffffffffffff168152602001908152602001600020600301828154811015156110e757fe5b906000526020600020906003020160020160019054906101000a900460ff1615151561111257600080fd5b6001600560008573ffffffffffffffffffffffffffffffffffffffff1673ffffffffffffffffffffffffffffffffffffffff1681526020019081526020016000206003018381548110151561116357fe5b906000526020600020906003020160020160016101000a81548160ff0219169083151502179055506001905092915050565b6000809054906101000a900473ffffffffffffffffffffffffffffffffffffffff1681565b600260009054906101000a900473ffffffffffffffffffffffffffffffffffffffff1681565b60008060009054906101000a900473ffffffffffffffffffffffffffffffffffffffff1673ffffffffffffffffffffffffffffffffffffffff163373ffffffffffffffffffffffffffffffffffffffff16148061128a5750600260009054906101000a900473ffffffffffffffffffffffffffffffffffffffff1673ffffffffffffffffffffffffffffffffffffffff163373ffffffffffffffffffffffffffffffffffffffff16145b151561129557600080fd5b600060149054906101000a900460ff161515156112b157600080fd5b600083101515156112c157600080fd5b6000821115156112d057600080fd5b600160009054906101000a900473ffffffffffffffffffffffffffffffffffffffff1673ffffffffffffffffffffffffffffffffffffffff1663dd62ed3e600360009054906101000a900473ffffffffffffffffffffffffffffffffffffffff16306040518363ffffffff167c0100000000000000000000000000000000000000000000000000000000028152600401808373ffffffffffffffffffffffffffffffffffffffff1673ffffffffffffffffffffffffffffffffffffffff1681526020018273ffffffffffffffffffffffffffffffffffffffff1673ffffffffffffffffffffffffffffffffffffffff16815260200192505050602060405180830381600087803b1580156113e357600080fd5b505af11580156113f7573d6000803e3d6000fd5b505050506040513d602081101561140d57600080fd5b810190808051906020019092919050505061143360075484611af890919063ffffffff16565b1115151561144057600080fd5b600560008573ffffffffffffffffffffffffffffffffffffffff1673ffffffffffffffffffffffffffffffffffffffff168152602001908152602001600020905060008160000160009054906101000a900473ffffffffffffffffffffffffffffffffffffffff1673ffffffffffffffffffffffffffffffffffffffff16141561157c57838160000160006101000a81548173ffffffffffffffffffffffffffffffffffffffff021916908373ffffffffffffffffffffffffffffffffffffffff160217905550600680549050816002018190555060068490806001815401808255809150509060018203906000526020600020016000909192909190916101000a81548173ffffffffffffffffffffffffffffffffffffffff021916908373ffffffffffffffffffffffffffffffffffffffff160217905550505b806003016080604051908101604052808481526020018581526020016000151581526020016000151581525090806001815401808255809150509060018203906000526020600020906003020160009091929091909150600082015181600001556020820151816001015560408201518160020160006101000a81548160ff02191690831515021790555060608201518160020160016101000a81548160ff021916908315150217905550505050611641828260010154611af890919063ffffffff16565b816001018190555061165e60075483611af890919063ffffffff16565b6007819055508373ffffffffffffffffffffffffffffffffffffffff167f96480d0485518da027da30c099c5ed78006afe441dbb13b237bbc485bfa886c08385604051808381526020018281526020019250505060405180910390a250505050565b60008060149054906101000a900460ff161515156116dd57600080fd5b600360149054906101000a900460ff1615156116f857600080fd5b61170133611b14565b151561170c57600080fd5b6001905090565b600080600060149054906101000a900460ff1615151561173257600080fd5b6000809054906101000a900473ffffffffffffffffffffffffffffffffffffffff1673ffffffffffffffffffffffffffffffffffffffff163373ffffffffffffffffffffffffffffffffffffffff1614151561178d57600080fd5b6000841015151561179d57600080fd5b82841015156117ab57600080fd5b60068054905083111515156117bf57600080fd5b600360149054906101000a900460ff1615156117da57600080fd5b8390505b82811015611840576118286006828154811015156117f857fe5b9060005260206000200160009054906101000a900473ffffffffffffffffffffffffffffffffffffffff16611b14565b151561183357600080fd5b80806001019150506117de565b600191505092915050565b6000809054906101000a900473ffffffffffffffffffffffffffffffffffffffff1673ffffffffffffffffffffffffffffffffffffffff163373ffffffffffffffffffffffffffffffffffffffff1614806118f35750600260009054906101000a900473ffffffffffffffffffffffffffffffffffffffff1673ffffffffffffffffffffffffffffffffffffffff163373ffffffffffffffffffffffffffffffffffffffff16145b15156118fe57600080fd5b600060149054906101000a900460ff1615151561191a57600080fd5b600360149054906101000a900460ff1615151561193657600080fd5b6001600360146101000a81548160ff021916908315150217905550426004819055507f0fb04ec744c7fb4b7d197467d36ec332dbfb98aa6fe19b6469e9a758714c8b0a60405160405180910390a1565b60075481565b60068181548110151561199b57fe5b906000526020600020016000915054906101000a900473ffffffffffffffffffffffffffffffffffffffff1681565b600360149054906101000a900460ff1681565b6000600560008373ffffffffffffffffffffffffffffffffffffffff1673ffffffffffffffffffffffffffffffffffffffff168152602001908152602001600020600301805490509050919050565b6000809054906101000a900473ffffffffffffffffffffffffffffffffffffffff1673ffffffffffffffffffffffffffffffffffffffff163373ffffffffffffffffffffffffffffffffffffffff16141515611a8757600080fd5b611a90816122d7565b50565b600360009054906101000a900473ffffffffffffffffffffffffffffffffffffffff1681565b600160009054906101000a900473ffffffffffffffffffffffffffffffffffffffff1681565b6000828211151515611aed57fe5b818303905092915050565b60008183019050828110151515611b0b57fe5b80905092915050565b6000611b1e6123d1565b600080611b29612410565b600060149054906101000a900460ff16151515611b4557600080fd5b600560008773ffffffffffffffffffffffffffffffffffffffff1673ffffffffffffffffffffffffffffffffffffffff168152602001908152602001600020608060405190810160405290816000820160009054906101000a900473ffffffffffffffffffffffffffffffffffffffff1673ffffffffffffffffffffffffffffffffffffffff1673ffffffffffffffffffffffffffffffffffffffff168152602001600182015481526020016002820154815260200160038201805480602002602001604051908101604052809291908181526020016000905b82821015611c9c57838290600052602060002090600302016080604051908101604052908160008201548152602001600182015481526020016002820160009054906101000a900460ff161515151581526020016002820160019054906101000a900460ff16151515158152505081526020019060010190611c1f565b505050508152505093508573ffffffffffffffffffffffffffffffffffffffff16846000015173ffffffffffffffffffffffffffffffffffffffff16141515611ce457600080fd5b60008673ffffffffffffffffffffffffffffffffffffffff1614151515611d0a57600080fd5b60009250600091505b8360600151518210156121dc57836060015182815181101515611d3257fe5b906020019060200201519050806040015180611d4f575080606001515b15611d59576121cf565b42611d738260200151600454611af890919063ffffffff16565b101515611d8357600192506121cf565b600160009054906101000a900473ffffffffffffffffffffffffffffffffffffffff1673ffffffffffffffffffffffffffffffffffffffff1663dd62ed3e600360009054906101000a900473ffffffffffffffffffffffffffffffffffffffff16306040518363ffffffff167c0100000000000000000000000000000000000000000000000000000000028152600401808373ffffffffffffffffffffffffffffffffffffffff1673ffffffffffffffffffffffffffffffffffffffff1681526020018273ffffffffffffffffffffffffffffffffffffffff1673ffffffffffffffffffffffffffffffffffffffff16815260200192505050602060405180830381600087803b158015611e9657600080fd5b505af1158015611eaa573d6000803e3d6000fd5b505050506040513d6020811015611ec057600080fd5b8101908080519060200190929190505050816000015111151515611ee357600080fd5b8573ffffffffffffffffffffffffffffffffffffffff167faf08a4db36432bb5cbbfdfcf5af1040246483dc0dae8a9616cc79816c432fee982600001516040518082815260200191505060405180910390a26001600560008873ffffffffffffffffffffffffffffffffffffffff1673ffffffffffffffffffffffffffffffffffffffff16815260200190815260200160002060030183815481101515611f8657fe5b906000526020600020906003020160020160006101000a81548160ff0219169083151502179055506120078160000151600560008973ffffffffffffffffffffffffffffffffffffffff1673ffffffffffffffffffffffffffffffffffffffff16815260200190815260200160002060010154611adf90919063ffffffff16565b600560008873ffffffffffffffffffffffffffffffffffffffff1673ffffffffffffffffffffffffffffffffffffffff168152602001908152602001600020600101819055506120668160000151600754611adf90919063ffffffff16565b600781905550600160009054906101000a900473ffffffffffffffffffffffffffffffffffffffff1673ffffffffffffffffffffffffffffffffffffffff166323b872dd600360009054906101000a900473ffffffffffffffffffffffffffffffffffffffff168884600001516040518463ffffffff167c0100000000000000000000000000000000000000000000000000000000028152600401808473ffffffffffffffffffffffffffffffffffffffff1673ffffffffffffffffffffffffffffffffffffffff1681526020018373ffffffffffffffffffffffffffffffffffffffff1673ffffffffffffffffffffffffffffffffffffffff1681526020018281526020019350505050602060405180830381600087803b15801561218b57600080fd5b505af115801561219f573d6000803e3d6000fd5b505050506040513d60208110156121b557600080fd5b810190808051906020019092919050505015156121ce57fe5b5b8180600101925050611d13565b8215156122ca57600560008773ffffffffffffffffffffffffffffffffffffffff1673ffffffffffffffffffffffffffffffffffffffff168152602001908152602001600020600080820160006101000a81549073ffffffffffffffffffffffffffffffffffffffff02191690556001820160009055600282016000905560038201600061226a919061243d565b505060006006856040015181548110151561228157fe5b9060005260206000200160006101000a81548173ffffffffffffffffffffffffffffffffffffffff021916908373ffffffffffffffffffffffffffffffffffffffff1602179055505b6001945050505050919050565b600073ffffffffffffffffffffffffffffffffffffffff168173ffffffffffffffffffffffffffffffffffffffff161415151561231357600080fd5b8073ffffffffffffffffffffffffffffffffffffffff166000809054906101000a900473ffffffffffffffffffffffffffffffffffffffff1673ffffffffffffffffffffffffffffffffffffffff167f8be0079c531659141344cd1fd0a4f28419497f9722a3daafe3b4186f6b6457e060405160405180910390a3806000806101000a81548173ffffffffffffffffffffffffffffffffffffffff021916908373ffffffffffffffffffffffffffffffffffffffff16021790555050565b608060405190810160405280600073ffffffffffffffffffffffffffffffffffffffff1681526020016000815260200160008152602001606081525090565b60806040519081016040528060008152602001600081526020016000151581526020016000151581525090565b508054600082556003029060005260206000209081019061245e9190612461565b50565b6124b591905b808211156124b15760008082016000905560018201600090556002820160006101000a81549060ff02191690556002820160016101000a81549060ff021916905550600301612467565b5090565b905600a165627a7a72305820207fc3d4f142eb78cca8590a8dfb5846ec0fd4ad78749f9e5bc01abafa748bb20029",
  "source": "pragma solidity ^0.4.24;\n\nimport \"./OMIToken.sol\";\nimport \"./OMICrowdsale.sol\";\nimport \"openzeppelin-solidity/contracts/ownership/Ownable.sol\";\nimport \"openzeppelin-solidity/contracts/math/SafeMath.sol\";\nimport \"openzeppelin-solidity/contracts/lifecycle/Pausable.sol\";\n\n/// @title OMITokenLock\n/// @author Mikel Duffy - <mikel@ecomi.com>\n/// @dev OMITokenLock is a token holder contract that will allow multiple beneficiaries to extract the tokens after a given release time. It is a modification of the OpenZeppenlin TokenLock to allow for one token lock smart contract for many beneficiaries.\ncontract OMITokenLock is Ownable, Pausable {\n  using SafeMath for uint256;\n\n  /*\n   *  Storage\n   */\n  OMIToken public token;\n  OMICrowdsale public crowdsale;\n  address public allowanceProvider;\n  bool public crowdsaleFinished = false;\n  uint256 public crowdsaleEndTime;\n\n  struct Lock {\n    uint256 amount;\n    uint256 lockDuration;\n    bool released;\n    bool revoked;\n  }\n  struct TokenLockVault {\n    address beneficiary;\n    uint256 tokenBalance;\n    uint256 lockIndex;\n    Lock[] locks;\n  }\n  mapping(address => TokenLockVault) public tokenLocks;\n  address[] public lockIndexes;\n  uint256 public totalTokensLocked;\n\n  /*\n   *  Modifiers\n   */\n  modifier ownerOrCrowdsale () {\n    require(msg.sender == owner || OMICrowdsale(msg.sender) == crowdsale);\n    _;\n  }\n\n  /*\n   *  Events\n   */\n  event LockedTokens(address indexed beneficiary, uint256 amount, uint256 releaseTime);\n  event UnlockedTokens(address indexed beneficiary, uint256 amount);\n  event FinishedCrowdsale();\n\n  /*\n   *  Public Functions\n   */\n  /// @dev Constructor function\n  function OMITokenLock (address _token, address _allowanceProvider) public {\n    token = OMIToken(_token);\n    require(token.isOMITokenContract());\n\n    allowanceProvider = _allowanceProvider;\n  }\n\n  /// @dev Function to call from other contracts to ensure that this is the proper contract\n  function isOMITokenLockContract()\n    public \n    pure \n    returns(bool)\n  { \n    return true; \n  }\n\n  /// @dev Sets the crowdsale address to allow authorize locking permissions\n  /// @param _crowdsale The address of the crowdsale\n  function setCrowdsaleAddress (address _crowdsale)\n    public\n    onlyOwner\n    returns (bool)\n  {\n    crowdsale = OMICrowdsale(_crowdsale);\n    require(crowdsale.isOMICrowdsaleContract());\n\n    return true;\n  }\n\n  /// @dev Sets the token allowance provider address\n  /// @param _allowanceProvider The address of the token allowance provider\n  function setAllowanceAddress (address _allowanceProvider)\n    public\n    onlyOwner\n    returns (bool)\n  {\n    allowanceProvider = _allowanceProvider;\n    return true;\n  }\n\n  /// @dev Marks the crowdsale as being finished and sets the crowdsale finish date\n  function finishCrowdsale()\n    public\n    ownerOrCrowdsale\n    whenNotPaused\n  {\n    require(!crowdsaleFinished);\n    crowdsaleFinished = true;\n    crowdsaleEndTime = now;\n    FinishedCrowdsale();\n  }\n\n  /// @dev Gets the total amount of tokens for a given address\n  /// @param _beneficiary The address for which to look up the total token amount\n  function getTokenBalance(address _beneficiary)\n    public\n    view\n    returns (uint)\n  {\n    return tokenLocks[_beneficiary].tokenBalance;\n  }\n\n  /// @dev Gets the total number of locks for a given address\n  /// @param _beneficiary The address for which to look up the total number of locks\n  function getNumberOfLocks(address _beneficiary)\n    public\n    view\n    returns (uint)\n  {\n    return tokenLocks[_beneficiary].locks.length;\n  }\n\n  /// @dev Gets the lock at a given index for a given address\n  /// @param _beneficiary The address used to look up the lock\n  /// @param _lockIndex The index used to look up the lock\n  function getLockByIndex(address _beneficiary, uint256 _lockIndex)\n    public\n    view\n    returns (uint256 amount, uint256 lockDuration, bool released, bool revoked)\n  {\n    require(_lockIndex >= 0);\n    require(_lockIndex <= tokenLocks[_beneficiary].locks.length.sub(1));\n\n    return (\n      tokenLocks[_beneficiary].locks[_lockIndex].amount,\n      tokenLocks[_beneficiary].locks[_lockIndex].lockDuration,\n      tokenLocks[_beneficiary].locks[_lockIndex].released,\n      tokenLocks[_beneficiary].locks[_lockIndex].revoked\n    );\n  }\n\n  /// @dev Revokes the lock at a given index for a given address\n  /// @param _beneficiary The address used to look up the lock\n  /// @param _lockIndex The lock index to be revoked\n  function revokeLockByIndex(address _beneficiary, uint256 _lockIndex)\n    public\n    onlyOwner\n    returns (bool)\n  {\n    require(_lockIndex >= 0);\n    require(_lockIndex <= tokenLocks[_beneficiary].locks.length.sub(1));\n    require(!tokenLocks[_beneficiary].locks[_lockIndex].revoked);\n\n    tokenLocks[_beneficiary].locks[_lockIndex].revoked = true;\n\n    return true;\n  }\n\n  /// @dev Locks tokens for a given beneficiary\n  /// @param _beneficiary The address to which the tokens will be released\n  /// @param _lockDuration The duration of time that must elapse after the crowdsale end date\n  /// @param _tokens The amount of tokens to be locked\n  function lockTokens(address _beneficiary, uint256 _lockDuration, uint256 _tokens)\n    external\n    ownerOrCrowdsale\n    whenNotPaused\n  {\n    // Lock duration must be greater than zero seconds\n    require(_lockDuration >= 0);\n    // Token amount must be greater than zero\n    require(_tokens > 0);\n\n    // Token Lock must have a sufficient allowance prior to creating locks\n    require(_tokens.add(totalTokensLocked) <= token.allowance(allowanceProvider, address(this)));\n\n    TokenLockVault storage lock = tokenLocks[_beneficiary];\n\n    // If this is the first lock for this beneficiary, add their address to the lock indexes\n    if (lock.beneficiary == 0) {\n      lock.beneficiary = _beneficiary;\n      lock.lockIndex = lockIndexes.length;\n      lockIndexes.push(_beneficiary);\n    }\n\n    // Add the lock\n    lock.locks.push(Lock(_tokens, _lockDuration, false, false));\n\n    // Update the total tokens for this beneficiary\n    lock.tokenBalance = lock.tokenBalance.add(_tokens);\n\n    // Update the number of locked tokens\n    totalTokensLocked = _tokens.add(totalTokensLocked);\n\n    LockedTokens(_beneficiary, _tokens, _lockDuration);\n  }\n\n  /// @dev Transfers any tokens held in a timelock vault to beneficiary if they are due for release.\n  function releaseTokens()\n    public\n    whenNotPaused\n    returns(bool)\n  {\n    require(crowdsaleFinished);\n    require(_release(msg.sender));\n    return true;\n  }\n\n  /// @dev Transfers tokens held by timelock to all beneficiaries within the provided range.\n  /// @param _from the start lock index\n  /// @param _to the end lock index\n  function releaseAll(uint256 _from, uint256 _to)\n    external\n    whenNotPaused\n    onlyOwner\n    returns (bool)\n  {\n    require(_from >= 0);\n    require(_from < _to);\n    require(_to <= lockIndexes.length);\n    require(crowdsaleFinished);\n\n    for (uint256 i = _from; i < _to; i++) {\n      require(_release(lockIndexes[i]));\n    }\n    return true;\n  }\n\n  /*\n   *  Internal Functions\n   */\n  /// @dev Reviews and releases token for a given beneficiary\n  /// @param _beneficiary address for which a token release should be attempted\n  function _release(address _beneficiary)\n    internal\n    whenNotPaused\n    returns (bool)\n  {\n    TokenLockVault memory lock = tokenLocks[_beneficiary];\n    require(lock.beneficiary == _beneficiary);\n    require(_beneficiary != 0x0);\n\n    bool hasUnDueLocks = false;\n\n    for (uint256 i = 0; i < lock.locks.length; i++) {\n      Lock memory currentLock = lock.locks[i];\n      // Skip any locks which are already released or revoked\n      if (currentLock.released || currentLock.revoked) {\n        continue;\n      }\n\n      // Skip any locks that are not due for release\n      if (crowdsaleEndTime.add(currentLock.lockDuration) >= now) {\n        hasUnDueLocks = true;\n        continue;\n      }\n\n      // The amount of tokens to transfer must be less than the number of locked tokens\n      require(currentLock.amount <= token.allowance(allowanceProvider, address(this)));\n\n      // Release Tokens\n      UnlockedTokens(_beneficiary, currentLock.amount);\n      tokenLocks[_beneficiary].locks[i].released = true;\n      tokenLocks[_beneficiary].tokenBalance = tokenLocks[_beneficiary].tokenBalance.sub(currentLock.amount);\n      totalTokensLocked = totalTokensLocked.sub(currentLock.amount);\n      assert(token.transferFrom(allowanceProvider, _beneficiary, currentLock.amount));\n    }\n\n    // If there are no future locks to be released, delete the lock vault\n    if (!hasUnDueLocks) {\n      delete tokenLocks[_beneficiary];\n      lockIndexes[lock.lockIndex] = 0x0;\n    }\n\n    return true;\n  }\n}\n",
  "sourcePath": "/Users/mikelduffy/Files/Ecomi/tge-contract/contracts/OMITokenLock.sol",
  "compiler": {
    "name": "solc",
    "version": "0.4.24+commit.e67f0147.Emscripten.clang"
  },
  "schemaVersion": "2.0.0",
  "updatedAt": "2018-06-26T11:47:04.949Z"
}