{
  "contractName": "OMITokenLock",
  "abi": [
    {
      "constant": true,
      "inputs": [],
      "name": "crowdsaleEndTime",
      "outputs": [
        {
          "name": "",
          "type": "uint256"
        }
      ],
      "payable": false,
      "stateMutability": "view",
      "type": "function"
    },
    {
      "constant": false,
      "inputs": [],
      "name": "unpause",
      "outputs": [],
      "payable": false,
      "stateMutability": "nonpayable",
      "type": "function"
    },
    {
      "constant": true,
      "inputs": [
        {
          "name": "",
          "type": "address"
        }
      ],
      "name": "tokenLocks",
      "outputs": [
        {
          "name": "beneficiary",
          "type": "address"
        },
        {
          "name": "tokenBalance",
          "type": "uint256"
        },
        {
          "name": "lockIndex",
          "type": "uint256"
        }
      ],
      "payable": false,
      "stateMutability": "view",
      "type": "function"
    },
    {
      "constant": true,
      "inputs": [],
      "name": "paused",
      "outputs": [
        {
          "name": "",
          "type": "bool"
        }
      ],
      "payable": false,
      "stateMutability": "view",
      "type": "function"
    },
    {
      "constant": false,
      "inputs": [],
      "name": "renounceOwnership",
      "outputs": [],
      "payable": false,
      "stateMutability": "nonpayable",
      "type": "function"
    },
    {
      "constant": false,
      "inputs": [],
      "name": "pause",
      "outputs": [],
      "payable": false,
      "stateMutability": "nonpayable",
      "type": "function"
    },
    {
      "constant": true,
      "inputs": [],
      "name": "owner",
      "outputs": [
        {
          "name": "",
          "type": "address"
        }
      ],
      "payable": false,
      "stateMutability": "view",
      "type": "function"
    },
    {
      "constant": true,
      "inputs": [],
      "name": "crowdsale",
      "outputs": [
        {
          "name": "",
          "type": "address"
        }
      ],
      "payable": false,
      "stateMutability": "view",
      "type": "function"
    },
    {
      "constant": true,
      "inputs": [],
      "name": "totalTokensLocked",
      "outputs": [
        {
          "name": "",
          "type": "uint256"
        }
      ],
      "payable": false,
      "stateMutability": "view",
      "type": "function"
    },
    {
      "constant": true,
      "inputs": [
        {
          "name": "",
          "type": "uint256"
        }
      ],
      "name": "lockIndexes",
      "outputs": [
        {
          "name": "",
          "type": "address"
        }
      ],
      "payable": false,
      "stateMutability": "view",
      "type": "function"
    },
    {
      "constant": true,
      "inputs": [],
      "name": "crowdsaleFinished",
      "outputs": [
        {
          "name": "",
          "type": "bool"
        }
      ],
      "payable": false,
      "stateMutability": "view",
      "type": "function"
    },
    {
      "constant": false,
      "inputs": [
        {
          "name": "_newOwner",
          "type": "address"
        }
      ],
      "name": "transferOwnership",
      "outputs": [],
      "payable": false,
      "stateMutability": "nonpayable",
      "type": "function"
    },
    {
      "constant": true,
      "inputs": [],
      "name": "allowanceProvider",
      "outputs": [
        {
          "name": "",
          "type": "address"
        }
      ],
      "payable": false,
      "stateMutability": "view",
      "type": "function"
    },
    {
      "constant": true,
      "inputs": [],
      "name": "token",
      "outputs": [
        {
          "name": "",
          "type": "address"
        }
      ],
      "payable": false,
      "stateMutability": "view",
      "type": "function"
    },
    {
      "inputs": [
        {
          "name": "_token",
          "type": "address"
        },
        {
          "name": "_allowanceProvider",
          "type": "address"
        }
      ],
      "payable": false,
      "stateMutability": "nonpayable",
      "type": "constructor"
    },
    {
      "anonymous": false,
      "inputs": [
        {
          "indexed": true,
          "name": "beneficiary",
          "type": "address"
        },
        {
          "indexed": false,
          "name": "amount",
          "type": "uint256"
        },
        {
          "indexed": false,
          "name": "releaseTime",
          "type": "uint256"
        }
      ],
      "name": "LockedTokens",
      "type": "event"
    },
    {
      "anonymous": false,
      "inputs": [
        {
          "indexed": true,
          "name": "beneficiary",
          "type": "address"
        },
        {
          "indexed": false,
          "name": "amount",
          "type": "uint256"
        }
      ],
      "name": "UnlockedTokens",
      "type": "event"
    },
    {
      "anonymous": false,
      "inputs": [],
      "name": "FinishedCrowdsale",
      "type": "event"
    },
    {
      "anonymous": false,
      "inputs": [],
      "name": "Pause",
      "type": "event"
    },
    {
      "anonymous": false,
      "inputs": [],
      "name": "Unpause",
      "type": "event"
    },
    {
      "anonymous": false,
      "inputs": [
        {
          "indexed": true,
          "name": "previousOwner",
          "type": "address"
        }
      ],
      "name": "OwnershipRenounced",
      "type": "event"
    },
    {
      "anonymous": false,
      "inputs": [
        {
          "indexed": true,
          "name": "previousOwner",
          "type": "address"
        },
        {
          "indexed": true,
          "name": "newOwner",
          "type": "address"
        }
      ],
      "name": "OwnershipTransferred",
      "type": "event"
    },
    {
      "constant": true,
      "inputs": [],
      "name": "isOMITokenLockContract",
      "outputs": [
        {
          "name": "",
          "type": "bool"
        }
      ],
      "payable": false,
      "stateMutability": "pure",
      "type": "function"
    },
    {
      "constant": false,
      "inputs": [
        {
          "name": "_crowdsale",
          "type": "address"
        }
      ],
      "name": "setCrowdsaleAddress",
      "outputs": [
        {
          "name": "",
          "type": "bool"
        }
      ],
      "payable": false,
      "stateMutability": "nonpayable",
      "type": "function"
    },
    {
      "constant": false,
      "inputs": [
        {
          "name": "_allowanceProvider",
          "type": "address"
        }
      ],
      "name": "setAllowanceAddress",
      "outputs": [
        {
          "name": "",
          "type": "bool"
        }
      ],
      "payable": false,
      "stateMutability": "nonpayable",
      "type": "function"
    },
    {
      "constant": false,
      "inputs": [],
      "name": "finishCrowdsale",
      "outputs": [],
      "payable": false,
      "stateMutability": "nonpayable",
      "type": "function"
    },
    {
      "constant": true,
      "inputs": [
        {
          "name": "_beneficiary",
          "type": "address"
        }
      ],
      "name": "getTokenBalance",
      "outputs": [
        {
          "name": "",
          "type": "uint256"
        }
      ],
      "payable": false,
      "stateMutability": "view",
      "type": "function"
    },
    {
      "constant": true,
      "inputs": [
        {
          "name": "_beneficiary",
          "type": "address"
        }
      ],
      "name": "getNumberOfLocks",
      "outputs": [
        {
          "name": "",
          "type": "uint256"
        }
      ],
      "payable": false,
      "stateMutability": "view",
      "type": "function"
    },
    {
      "constant": true,
      "inputs": [
        {
          "name": "_beneficiary",
          "type": "address"
        },
        {
          "name": "_lockIndex",
          "type": "uint256"
        }
      ],
      "name": "getLockByIndex",
      "outputs": [
        {
          "name": "amount",
          "type": "uint256"
        },
        {
          "name": "lockDuration",
          "type": "uint256"
        },
        {
          "name": "released",
          "type": "bool"
        },
        {
          "name": "revoked",
          "type": "bool"
        }
      ],
      "payable": false,
      "stateMutability": "view",
      "type": "function"
    },
    {
      "constant": false,
      "inputs": [
        {
          "name": "_beneficiary",
          "type": "address"
        },
        {
          "name": "_lockIndex",
          "type": "uint256"
        }
      ],
      "name": "revokeLockByIndex",
      "outputs": [
        {
          "name": "",
          "type": "bool"
        }
      ],
      "payable": false,
      "stateMutability": "nonpayable",
      "type": "function"
    },
    {
      "constant": false,
      "inputs": [
        {
          "name": "_beneficiary",
          "type": "address"
        },
        {
          "name": "_lockDuration",
          "type": "uint256"
        },
        {
          "name": "_tokens",
          "type": "uint256"
        }
      ],
      "name": "lockTokens",
      "outputs": [],
      "payable": false,
      "stateMutability": "nonpayable",
      "type": "function"
    },
    {
      "constant": false,
      "inputs": [],
      "name": "releaseTokens",
      "outputs": [
        {
          "name": "",
          "type": "bool"
        }
      ],
      "payable": false,
      "stateMutability": "nonpayable",
      "type": "function"
    },
    {
      "constant": false,
      "inputs": [
        {
          "name": "_beneficiary",
          "type": "address"
        }
      ],
      "name": "releaseTokensByAddress",
      "outputs": [
        {
          "name": "",
          "type": "bool"
        }
      ],
      "payable": false,
      "stateMutability": "nonpayable",
      "type": "function"
    }
  ],
  "bytecode": "0x608060405260008060146101000a81548160ff0219169083151502179055506000600360146101000a81548160ff02191690831515021790555034801561004557600080fd5b506040516040806126798339810180604052810190808051906020019092919080519060200190929190505050336000806101000a81548173ffffffffffffffffffffffffffffffffffffffff021916908373ffffffffffffffffffffffffffffffffffffffff16021790555081600160006101000a81548173ffffffffffffffffffffffffffffffffffffffff021916908373ffffffffffffffffffffffffffffffffffffffff160217905550600160009054906101000a900473ffffffffffffffffffffffffffffffffffffffff1673ffffffffffffffffffffffffffffffffffffffff166332366ea56040518163ffffffff167c0100000000000000000000000000000000000000000000000000000000028152600401602060405180830381600087803b15801561017957600080fd5b505af115801561018d573d6000803e3d6000fd5b505050506040513d60208110156101a357600080fd5b810190808051906020019092919050505015156101bf57600080fd5b80600360006101000a81548173ffffffffffffffffffffffffffffffffffffffff021916908373ffffffffffffffffffffffffffffffffffffffff1602179055505050612468806102116000396000f300608060405260043610610149576000357c0100000000000000000000000000000000000000000000000000000000900463ffffffff16806308f53f441461014e5780631374eb6f146101a95780631d545d09146102275780631f35bc40146102525780632d76d7b0146102ad5780633aecd0e3146103085780633f4ba83a1461035f57806356b63df7146103765780635c975abb14610407578063715018a61461043657806372bc8ff21461044d5780638456cb591461047c5780638cc5e56e146104935780638da5cb5b146104f85780639c1e03a01461054f578063a25983e5146105a6578063a96f8668146105fd578063b80cdcf61461062c578063dc5bf96114610643578063e729b4161461066e578063ece84fd5146106db578063ef79a35f1461070a578063f2fde38b14610761578063f9d0fed4146107a4578063fc0c546a146107fb575b600080fd5b34801561015a57600080fd5b5061018f600480360381019080803573ffffffffffffffffffffffffffffffffffffffff169060200190929190505050610852565b604051808215151515815260200191505060405180910390f35b3480156101b557600080fd5b506101f4600480360381019080803573ffffffffffffffffffffffffffffffffffffffff169060200190929190803590602001909291905050506108f9565b60405180858152602001848152602001831515151581526020018215151515815260200194505050505060405180910390f35b34801561023357600080fd5b5061023c610b25565b6040518082815260200191505060405180910390f35b34801561025e57600080fd5b50610293600480360381019080803573ffffffffffffffffffffffffffffffffffffffff169060200190929190505050610b2b565b604051808215151515815260200191505060405180910390f35b3480156102b957600080fd5b506102ee600480360381019080803573ffffffffffffffffffffffffffffffffffffffff169060200190929190505050610c9e565b604051808215151515815260200191505060405180910390f35b34801561031457600080fd5b50610349600480360381019080803573ffffffffffffffffffffffffffffffffffffffff169060200190929190505050610d4e565b6040518082815260200191505060405180910390f35b34801561036b57600080fd5b50610374610d9a565b005b34801561038257600080fd5b506103b7600480360381019080803573ffffffffffffffffffffffffffffffffffffffff169060200190929190505050610e58565b604051808473ffffffffffffffffffffffffffffffffffffffff1673ffffffffffffffffffffffffffffffffffffffff168152602001838152602001828152602001935050505060405180910390f35b34801561041357600080fd5b5061041c610ea2565b604051808215151515815260200191505060405180910390f35b34801561044257600080fd5b5061044b610eb5565b005b34801561045957600080fd5b50610462610fb7565b604051808215151515815260200191505060405180910390f35b34801561048857600080fd5b50610491610fc0565b005b34801561049f57600080fd5b506104de600480360381019080803573ffffffffffffffffffffffffffffffffffffffff16906020019092919080359060200190929190505050611080565b604051808215151515815260200191505060405180910390f35b34801561050457600080fd5b5061050d611251565b604051808273ffffffffffffffffffffffffffffffffffffffff1673ffffffffffffffffffffffffffffffffffffffff16815260200191505060405180910390f35b34801561055b57600080fd5b50610564611276565b604051808273ffffffffffffffffffffffffffffffffffffffff1673ffffffffffffffffffffffffffffffffffffffff16815260200191505060405180910390f35b3480156105b257600080fd5b506105fb600480360381019080803573ffffffffffffffffffffffffffffffffffffffff169060200190929190803590602001909291908035906020019092919050505061129c565b005b34801561060957600080fd5b5061061261177c565b604051808215151515815260200191505060405180910390f35b34801561063857600080fd5b506106416117cf565b005b34801561064f57600080fd5b5061065861190a565b6040518082815260200191505060405180910390f35b34801561067a57600080fd5b5061069960048036038101908080359060200190929190505050611910565b604051808273ffffffffffffffffffffffffffffffffffffffff1673ffffffffffffffffffffffffffffffffffffffff16815260200191505060405180910390f35b3480156106e757600080fd5b506106f061194e565b604051808215151515815260200191505060405180910390f35b34801561071657600080fd5b5061074b600480360381019080803573ffffffffffffffffffffffffffffffffffffffff169060200190929190505050611961565b6040518082815260200191505060405180910390f35b34801561076d57600080fd5b506107a2600480360381019080803573ffffffffffffffffffffffffffffffffffffffff1690602001909291905050506119b0565b005b3480156107b057600080fd5b506107b9611a17565b604051808273ffffffffffffffffffffffffffffffffffffffff1673ffffffffffffffffffffffffffffffffffffffff16815260200191505060405180910390f35b34801561080757600080fd5b50610810611a3d565b604051808273ffffffffffffffffffffffffffffffffffffffff1673ffffffffffffffffffffffffffffffffffffffff16815260200191505060405180910390f35b60008060009054906101000a900473ffffffffffffffffffffffffffffffffffffffff1673ffffffffffffffffffffffffffffffffffffffff163373ffffffffffffffffffffffffffffffffffffffff161415156108af57600080fd5b81600360006101000a81548173ffffffffffffffffffffffffffffffffffffffff021916908373ffffffffffffffffffffffffffffffffffffffff16021790555060019050919050565b6000806000806000851015151561090f57600080fd5b6109686001600560008973ffffffffffffffffffffffffffffffffffffffff1673ffffffffffffffffffffffffffffffffffffffff16815260200190815260200160002060030180549050611a6390919063ffffffff16565b851115151561097657600080fd5b600560008773ffffffffffffffffffffffffffffffffffffffff1673ffffffffffffffffffffffffffffffffffffffff168152602001908152602001600020600301858154811015156109c557fe5b906000526020600020906003020160000154600560008873ffffffffffffffffffffffffffffffffffffffff1673ffffffffffffffffffffffffffffffffffffffff16815260200190815260200160002060030186815481101515610a2657fe5b906000526020600020906003020160010154600560008973ffffffffffffffffffffffffffffffffffffffff1673ffffffffffffffffffffffffffffffffffffffff16815260200190815260200160002060030187815481101515610a8757fe5b906000526020600020906003020160020160009054906101000a900460ff16600560008a73ffffffffffffffffffffffffffffffffffffffff1673ffffffffffffffffffffffffffffffffffffffff16815260200190815260200160002060030188815481101515610af557fe5b906000526020600020906003020160020160019054906101000a900460ff16935093509350935092959194509250565b60045481565b60008060009054906101000a900473ffffffffffffffffffffffffffffffffffffffff1673ffffffffffffffffffffffffffffffffffffffff163373ffffffffffffffffffffffffffffffffffffffff16141515610b8857600080fd5b81600260006101000a81548173ffffffffffffffffffffffffffffffffffffffff021916908373ffffffffffffffffffffffffffffffffffffffff160217905550600260009054906101000a900473ffffffffffffffffffffffffffffffffffffffff1673ffffffffffffffffffffffffffffffffffffffff1663fd4eeb8f6040518163ffffffff167c0100000000000000000000000000000000000000000000000000000000028152600401602060405180830381600087803b158015610c4f57600080fd5b505af1158015610c63573d6000803e3d6000fd5b505050506040513d6020811015610c7957600080fd5b81019080805190602001909291905050501515610c9557600080fd5b60019050919050565b60008060149054906101000a900460ff16151515610cbb57600080fd5b6000809054906101000a900473ffffffffffffffffffffffffffffffffffffffff1673ffffffffffffffffffffffffffffffffffffffff163373ffffffffffffffffffffffffffffffffffffffff16141515610d1657600080fd5b600360149054906101000a900460ff161515610d3157600080fd5b610d3a82611a7c565b1515610d4557600080fd5b60019050919050565b6000600560008373ffffffffffffffffffffffffffffffffffffffff1673ffffffffffffffffffffffffffffffffffffffff168152602001908152602001600020600101549050919050565b6000809054906101000a900473ffffffffffffffffffffffffffffffffffffffff1673ffffffffffffffffffffffffffffffffffffffff163373ffffffffffffffffffffffffffffffffffffffff16141515610df557600080fd5b600060149054906101000a900460ff161515610e1057600080fd5b60008060146101000a81548160ff0219169083151502179055507f7805862f689e2f13df9f062ff482ad3ad112aca9e0847911ed832e158c525b3360405160405180910390a1565b60056020528060005260406000206000915090508060000160009054906101000a900473ffffffffffffffffffffffffffffffffffffffff16908060010154908060020154905083565b600060149054906101000a900460ff1681565b6000809054906101000a900473ffffffffffffffffffffffffffffffffffffffff1673ffffffffffffffffffffffffffffffffffffffff163373ffffffffffffffffffffffffffffffffffffffff16141515610f1057600080fd5b6000809054906101000a900473ffffffffffffffffffffffffffffffffffffffff1673ffffffffffffffffffffffffffffffffffffffff167ff8df31144d9c2f0f6b59d69b8b98abd5459d07f2742c4df920b25aae33c6482060405160405180910390a260008060006101000a81548173ffffffffffffffffffffffffffffffffffffffff021916908373ffffffffffffffffffffffffffffffffffffffff160217905550565b60006001905090565b6000809054906101000a900473ffffffffffffffffffffffffffffffffffffffff1673ffffffffffffffffffffffffffffffffffffffff163373ffffffffffffffffffffffffffffffffffffffff1614151561101b57600080fd5b600060149054906101000a900460ff1615151561103757600080fd5b6001600060146101000a81548160ff0219169083151502179055507f6985a02210a168e66602d3235cb6db0e70f92b3ba4d376a33c0f3d9434bff62560405160405180910390a1565b60008060009054906101000a900473ffffffffffffffffffffffffffffffffffffffff1673ffffffffffffffffffffffffffffffffffffffff163373ffffffffffffffffffffffffffffffffffffffff161415156110dd57600080fd5b600082101515156110ed57600080fd5b6111466001600560008673ffffffffffffffffffffffffffffffffffffffff1673ffffffffffffffffffffffffffffffffffffffff16815260200190815260200160002060030180549050611a6390919063ffffffff16565b821115151561115457600080fd5b600560008473ffffffffffffffffffffffffffffffffffffffff1673ffffffffffffffffffffffffffffffffffffffff168152602001908152602001600020600301828154811015156111a357fe5b906000526020600020906003020160020160019054906101000a900460ff161515156111ce57600080fd5b6001600560008573ffffffffffffffffffffffffffffffffffffffff1673ffffffffffffffffffffffffffffffffffffffff1681526020019081526020016000206003018381548110151561121f57fe5b906000526020600020906003020160020160016101000a81548160ff0219169083151502179055506001905092915050565b6000809054906101000a900473ffffffffffffffffffffffffffffffffffffffff1681565b600260009054906101000a900473ffffffffffffffffffffffffffffffffffffffff1681565b60008060009054906101000a900473ffffffffffffffffffffffffffffffffffffffff1673ffffffffffffffffffffffffffffffffffffffff163373ffffffffffffffffffffffffffffffffffffffff1614806113465750600260009054906101000a900473ffffffffffffffffffffffffffffffffffffffff1673ffffffffffffffffffffffffffffffffffffffff163373ffffffffffffffffffffffffffffffffffffffff16145b151561135157600080fd5b600060149054906101000a900460ff1615151561136d57600080fd5b6000831015151561137d57600080fd5b60008211151561138c57600080fd5b600160009054906101000a900473ffffffffffffffffffffffffffffffffffffffff1673ffffffffffffffffffffffffffffffffffffffff1663dd62ed3e600360009054906101000a900473ffffffffffffffffffffffffffffffffffffffff16306040518363ffffffff167c0100000000000000000000000000000000000000000000000000000000028152600401808373ffffffffffffffffffffffffffffffffffffffff1673ffffffffffffffffffffffffffffffffffffffff1681526020018273ffffffffffffffffffffffffffffffffffffffff1673ffffffffffffffffffffffffffffffffffffffff16815260200192505050602060405180830381600087803b15801561149f57600080fd5b505af11580156114b3573d6000803e3d6000fd5b505050506040513d60208110156114c957600080fd5b81019080805190602001909291905050506114ef6007548461223f90919063ffffffff16565b111515156114fc57600080fd5b600560008573ffffffffffffffffffffffffffffffffffffffff1673ffffffffffffffffffffffffffffffffffffffff168152602001908152602001600020905060008160000160009054906101000a900473ffffffffffffffffffffffffffffffffffffffff1673ffffffffffffffffffffffffffffffffffffffff16141561163857838160000160006101000a81548173ffffffffffffffffffffffffffffffffffffffff021916908373ffffffffffffffffffffffffffffffffffffffff160217905550600680549050816002018190555060068490806001815401808255809150509060018203906000526020600020016000909192909190916101000a81548173ffffffffffffffffffffffffffffffffffffffff021916908373ffffffffffffffffffffffffffffffffffffffff160217905550505b806003016080604051908101604052808481526020018581526020016000151581526020016000151581525090806001815401808255809150509060018203906000526020600020906003020160009091929091909150600082015181600001556020820151816001015560408201518160020160006101000a81548160ff02191690831515021790555060608201518160020160016101000a81548160ff0219169083151502179055505050506116fd82826001015461223f90919063ffffffff16565b816001018190555061171a6007548361223f90919063ffffffff16565b6007819055508373ffffffffffffffffffffffffffffffffffffffff167f96480d0485518da027da30c099c5ed78006afe441dbb13b237bbc485bfa886c08385604051808381526020018281526020019250505060405180910390a250505050565b60008060149054906101000a900460ff1615151561179957600080fd5b600360149054906101000a900460ff1615156117b457600080fd5b6117bd33611a7c565b15156117c857600080fd5b6001905090565b6000809054906101000a900473ffffffffffffffffffffffffffffffffffffffff1673ffffffffffffffffffffffffffffffffffffffff163373ffffffffffffffffffffffffffffffffffffffff1614806118775750600260009054906101000a900473ffffffffffffffffffffffffffffffffffffffff1673ffffffffffffffffffffffffffffffffffffffff163373ffffffffffffffffffffffffffffffffffffffff16145b151561188257600080fd5b600060149054906101000a900460ff1615151561189e57600080fd5b600360149054906101000a900460ff161515156118ba57600080fd5b6001600360146101000a81548160ff021916908315150217905550426004819055507f0fb04ec744c7fb4b7d197467d36ec332dbfb98aa6fe19b6469e9a758714c8b0a60405160405180910390a1565b60075481565b60068181548110151561191f57fe5b906000526020600020016000915054906101000a900473ffffffffffffffffffffffffffffffffffffffff1681565b600360149054906101000a900460ff1681565b6000600560008373ffffffffffffffffffffffffffffffffffffffff1673ffffffffffffffffffffffffffffffffffffffff168152602001908152602001600020600301805490509050919050565b6000809054906101000a900473ffffffffffffffffffffffffffffffffffffffff1673ffffffffffffffffffffffffffffffffffffffff163373ffffffffffffffffffffffffffffffffffffffff16141515611a0b57600080fd5b611a148161225b565b50565b600360009054906101000a900473ffffffffffffffffffffffffffffffffffffffff1681565b600160009054906101000a900473ffffffffffffffffffffffffffffffffffffffff1681565b6000828211151515611a7157fe5b818303905092915050565b6000611a86612355565b600080611a91612394565b600060149054906101000a900460ff16151515611aad57600080fd5b600560008773ffffffffffffffffffffffffffffffffffffffff1673ffffffffffffffffffffffffffffffffffffffff168152602001908152602001600020608060405190810160405290816000820160009054906101000a900473ffffffffffffffffffffffffffffffffffffffff1673ffffffffffffffffffffffffffffffffffffffff1673ffffffffffffffffffffffffffffffffffffffff168152602001600182015481526020016002820154815260200160038201805480602002602001604051908101604052809291908181526020016000905b82821015611c0457838290600052602060002090600302016080604051908101604052908160008201548152602001600182015481526020016002820160009054906101000a900460ff161515151581526020016002820160019054906101000a900460ff16151515158152505081526020019060010190611b87565b505050508152505093508573ffffffffffffffffffffffffffffffffffffffff16846000015173ffffffffffffffffffffffffffffffffffffffff16141515611c4c57600080fd5b60008673ffffffffffffffffffffffffffffffffffffffff1614151515611c7257600080fd5b60009250600091505b83606001515182101561214457836060015182815181101515611c9a57fe5b906020019060200201519050806040015180611cb7575080606001515b15611cc157612137565b42611cdb826020015160045461223f90919063ffffffff16565b101515611ceb5760019250612137565b600160009054906101000a900473ffffffffffffffffffffffffffffffffffffffff1673ffffffffffffffffffffffffffffffffffffffff1663dd62ed3e600360009054906101000a900473ffffffffffffffffffffffffffffffffffffffff16306040518363ffffffff167c0100000000000000000000000000000000000000000000000000000000028152600401808373ffffffffffffffffffffffffffffffffffffffff1673ffffffffffffffffffffffffffffffffffffffff1681526020018273ffffffffffffffffffffffffffffffffffffffff1673ffffffffffffffffffffffffffffffffffffffff16815260200192505050602060405180830381600087803b158015611dfe57600080fd5b505af1158015611e12573d6000803e3d6000fd5b505050506040513d6020811015611e2857600080fd5b8101908080519060200190929190505050816000015111151515611e4b57600080fd5b8573ffffffffffffffffffffffffffffffffffffffff167faf08a4db36432bb5cbbfdfcf5af1040246483dc0dae8a9616cc79816c432fee982600001516040518082815260200191505060405180910390a26001600560008873ffffffffffffffffffffffffffffffffffffffff1673ffffffffffffffffffffffffffffffffffffffff16815260200190815260200160002060030183815481101515611eee57fe5b906000526020600020906003020160020160006101000a81548160ff021916908315150217905550611f6f8160000151600560008973ffffffffffffffffffffffffffffffffffffffff1673ffffffffffffffffffffffffffffffffffffffff16815260200190815260200160002060010154611a6390919063ffffffff16565b600560008873ffffffffffffffffffffffffffffffffffffffff1673ffffffffffffffffffffffffffffffffffffffff16815260200190815260200160002060010181905550611fce8160000151600754611a6390919063ffffffff16565b600781905550600160009054906101000a900473ffffffffffffffffffffffffffffffffffffffff1673ffffffffffffffffffffffffffffffffffffffff166323b872dd600360009054906101000a900473ffffffffffffffffffffffffffffffffffffffff168884600001516040518463ffffffff167c0100000000000000000000000000000000000000000000000000000000028152600401808473ffffffffffffffffffffffffffffffffffffffff1673ffffffffffffffffffffffffffffffffffffffff1681526020018373ffffffffffffffffffffffffffffffffffffffff1673ffffffffffffffffffffffffffffffffffffffff1681526020018281526020019350505050602060405180830381600087803b1580156120f357600080fd5b505af1158015612107573d6000803e3d6000fd5b505050506040513d602081101561211d57600080fd5b8101908080519060200190929190505050151561213657fe5b5b8180600101925050611c7b565b82151561223257600560008773ffffffffffffffffffffffffffffffffffffffff1673ffffffffffffffffffffffffffffffffffffffff168152602001908152602001600020600080820160006101000a81549073ffffffffffffffffffffffffffffffffffffffff0219169055600182016000905560028201600090556003820160006121d291906123c1565b50506000600685604001518154811015156121e957fe5b9060005260206000200160006101000a81548173ffffffffffffffffffffffffffffffffffffffff021916908373ffffffffffffffffffffffffffffffffffffffff1602179055505b6001945050505050919050565b6000818301905082811015151561225257fe5b80905092915050565b600073ffffffffffffffffffffffffffffffffffffffff168173ffffffffffffffffffffffffffffffffffffffff161415151561229757600080fd5b8073ffffffffffffffffffffffffffffffffffffffff166000809054906101000a900473ffffffffffffffffffffffffffffffffffffffff1673ffffffffffffffffffffffffffffffffffffffff167f8be0079c531659141344cd1fd0a4f28419497f9722a3daafe3b4186f6b6457e060405160405180910390a3806000806101000a81548173ffffffffffffffffffffffffffffffffffffffff021916908373ffffffffffffffffffffffffffffffffffffffff16021790555050565b608060405190810160405280600073ffffffffffffffffffffffffffffffffffffffff1681526020016000815260200160008152602001606081525090565b60806040519081016040528060008152602001600081526020016000151581526020016000151581525090565b50805460008255600302906000526020600020908101906123e291906123e5565b50565b61243991905b808211156124355760008082016000905560018201600090556002820160006101000a81549060ff02191690556002820160016101000a81549060ff0219169055506003016123eb565b5090565b905600a165627a7a72305820718bb9c7c294d21fd608e31226e88a2ea2949007bc02b4a7894a9b69ed5b54b30029",
  "source": "pragma solidity ^0.4.24;\n\nimport \"./OMIToken.sol\";\nimport \"./OMICrowdsale.sol\";\nimport \"openzeppelin-solidity/contracts/ownership/Ownable.sol\";\nimport \"openzeppelin-solidity/contracts/math/SafeMath.sol\";\nimport \"openzeppelin-solidity/contracts/lifecycle/Pausable.sol\";\n\n/// @title OMITokenLock\n/// @author Mikel Duffy - <mikel@ecomi.com>\n/// @dev OMITokenLock is a token holder contract that will allow multiple beneficiaries to extract the tokens after a given release time. It is a modification of the OpenZeppenlin TokenLock to allow for one token lock smart contract for many beneficiaries.\ncontract OMITokenLock is Ownable, Pausable {\n  using SafeMath for uint256;\n\n  /*\n   *  Storage\n   */\n  OMIToken public token;\n  OMICrowdsale public crowdsale;\n  address public allowanceProvider;\n  bool public crowdsaleFinished = false;\n  uint256 public crowdsaleEndTime;\n\n  struct Lock {\n    uint256 amount;\n    uint256 lockDuration;\n    bool released;\n    bool revoked;\n  }\n  struct TokenLockVault {\n    address beneficiary;\n    uint256 tokenBalance;\n    uint256 lockIndex;\n    Lock[] locks;\n  }\n  mapping(address => TokenLockVault) public tokenLocks;\n  address[] public lockIndexes;\n  uint256 public totalTokensLocked;\n\n  /*\n   *  Modifiers\n   */\n  modifier ownerOrCrowdsale () {\n    require(msg.sender == owner || OMICrowdsale(msg.sender) == crowdsale);\n    _;\n  }\n\n  /*\n   *  Events\n   */\n  event LockedTokens(address indexed beneficiary, uint256 amount, uint256 releaseTime);\n  event UnlockedTokens(address indexed beneficiary, uint256 amount);\n  event FinishedCrowdsale();\n\n  /*\n   *  Public Functions\n   */\n  /// @dev Constructor function\n  function OMITokenLock (address _token, address _allowanceProvider) public {\n    token = OMIToken(_token);\n    require(token.isOMITokenContract());\n\n    allowanceProvider = _allowanceProvider;\n  }\n\n  /// @dev Function to call from other contracts to ensure that this is the proper contract\n  function isOMITokenLockContract()\n    public \n    pure \n    returns(bool)\n  { \n    return true; \n  }\n\n  /// @dev Sets the crowdsale address to allow authorize locking permissions\n  /// @param _crowdsale The address of the crowdsale\n  function setCrowdsaleAddress (address _crowdsale)\n    public\n    onlyOwner\n    returns (bool)\n  {\n    crowdsale = OMICrowdsale(_crowdsale);\n    require(crowdsale.isOMICrowdsaleContract());\n\n    return true;\n  }\n\n  /// @dev Sets the token allowance provider address\n  /// @param _allowanceProvider The address of the token allowance provider\n  function setAllowanceAddress (address _allowanceProvider)\n    public\n    onlyOwner\n    returns (bool)\n  {\n    allowanceProvider = _allowanceProvider;\n    return true;\n  }\n\n  /// @dev Marks the crowdsale as being finished and sets the crowdsale finish date\n  function finishCrowdsale()\n    public\n    ownerOrCrowdsale\n    whenNotPaused\n  {\n    require(!crowdsaleFinished);\n    crowdsaleFinished = true;\n    crowdsaleEndTime = now;\n    FinishedCrowdsale();\n  }\n\n  /// @dev Gets the total amount of tokens for a given address\n  /// @param _beneficiary The address for which to look up the total token amount\n  function getTokenBalance(address _beneficiary)\n    public\n    view\n    returns (uint)\n  {\n    return tokenLocks[_beneficiary].tokenBalance;\n  }\n\n  /// @dev Gets the total number of locks for a given address\n  /// @param _beneficiary The address for which to look up the total number of locks\n  function getNumberOfLocks(address _beneficiary)\n    public\n    view\n    returns (uint)\n  {\n    return tokenLocks[_beneficiary].locks.length;\n  }\n\n  /// @dev Gets the lock at a given index for a given address\n  /// @param _beneficiary The address used to look up the lock\n  /// @param _lockIndex The index used to look up the lock\n  function getLockByIndex(address _beneficiary, uint256 _lockIndex)\n    public\n    view\n    returns (uint256 amount, uint256 lockDuration, bool released, bool revoked)\n  {\n    require(_lockIndex >= 0);\n    require(_lockIndex <= tokenLocks[_beneficiary].locks.length.sub(1));\n\n    return (\n      tokenLocks[_beneficiary].locks[_lockIndex].amount,\n      tokenLocks[_beneficiary].locks[_lockIndex].lockDuration,\n      tokenLocks[_beneficiary].locks[_lockIndex].released,\n      tokenLocks[_beneficiary].locks[_lockIndex].revoked\n    );\n  }\n\n  /// @dev Revokes the lock at a given index for a given address\n  /// @param _beneficiary The address used to look up the lock\n  /// @param _lockIndex The lock index to be revoked\n  function revokeLockByIndex(address _beneficiary, uint256 _lockIndex)\n    public\n    onlyOwner\n    returns (bool)\n  {\n    require(_lockIndex >= 0);\n    require(_lockIndex <= tokenLocks[_beneficiary].locks.length.sub(1));\n    require(!tokenLocks[_beneficiary].locks[_lockIndex].revoked);\n\n    tokenLocks[_beneficiary].locks[_lockIndex].revoked = true;\n\n    return true;\n  }\n\n  /// @dev Locks tokens for a given beneficiary\n  /// @param _beneficiary The address to which the tokens will be released\n  /// @param _lockDuration The duration of time that must elapse after the crowdsale end date\n  /// @param _tokens The amount of tokens to be locked\n  function lockTokens(address _beneficiary, uint256 _lockDuration, uint256 _tokens)\n    external\n    ownerOrCrowdsale\n    whenNotPaused\n  {\n    // Lock duration must be greater than zero seconds\n    require(_lockDuration >= 0);\n    // Token amount must be greater than zero\n    require(_tokens > 0);\n\n    // Token Lock must have a sufficient allowance prior to creating locks\n    require(_tokens.add(totalTokensLocked) <= token.allowance(allowanceProvider, address(this)));\n\n    TokenLockVault storage lock = tokenLocks[_beneficiary];\n\n    // If this is the first lock for this beneficiary, add their address to the lock indexes\n    if (lock.beneficiary == 0) {\n      lock.beneficiary = _beneficiary;\n      lock.lockIndex = lockIndexes.length;\n      lockIndexes.push(_beneficiary);\n    }\n\n    // Add the lock\n    lock.locks.push(Lock(_tokens, _lockDuration, false, false));\n\n    // Update the total tokens for this beneficiary\n    lock.tokenBalance = lock.tokenBalance.add(_tokens);\n\n    // Update the number of locked tokens\n    totalTokensLocked = _tokens.add(totalTokensLocked);\n\n    LockedTokens(_beneficiary, _tokens, _lockDuration);\n  }\n\n  /// @dev Transfers any tokens held in a timelock vault to beneficiary if they are due for release.\n  function releaseTokens()\n    public\n    whenNotPaused\n    returns(bool)\n  {\n    require(crowdsaleFinished);\n    require(_release(msg.sender));\n    return true;\n  }\n\n  /// @dev Transfers tokens held by timelock to all beneficiaries within the provided range.\n  /// @param _beneficiary The user for which token locks should be released.\n  function releaseTokensByAddress(address _beneficiary)\n    external\n    whenNotPaused\n    onlyOwner\n    returns (bool)\n  {\n    require(crowdsaleFinished);\n    require(_release(_beneficiary));\n    return true;\n  }\n\n  /*\n   *  Internal Functions\n   */\n  /// @dev Reviews and releases token for a given beneficiary\n  /// @param _beneficiary address for which a token release should be attempted\n  function _release(address _beneficiary)\n    internal\n    whenNotPaused\n    returns (bool)\n  {\n    TokenLockVault memory lock = tokenLocks[_beneficiary];\n    require(lock.beneficiary == _beneficiary);\n    require(_beneficiary != 0x0);\n\n    bool hasUnDueLocks = false;\n\n    for (uint256 i = 0; i < lock.locks.length; i++) {\n      Lock memory currentLock = lock.locks[i];\n      // Skip any locks which are already released or revoked\n      if (currentLock.released || currentLock.revoked) {\n        continue;\n      }\n\n      // Skip any locks that are not due for release\n      if (crowdsaleEndTime.add(currentLock.lockDuration) >= now) {\n        hasUnDueLocks = true;\n        continue;\n      }\n\n      // The amount of tokens to transfer must be less than the number of locked tokens\n      require(currentLock.amount <= token.allowance(allowanceProvider, address(this)));\n\n      // Release Tokens\n      UnlockedTokens(_beneficiary, currentLock.amount);\n      tokenLocks[_beneficiary].locks[i].released = true;\n      tokenLocks[_beneficiary].tokenBalance = tokenLocks[_beneficiary].tokenBalance.sub(currentLock.amount);\n      totalTokensLocked = totalTokensLocked.sub(currentLock.amount);\n      assert(token.transferFrom(allowanceProvider, _beneficiary, currentLock.amount));\n    }\n\n    // If there are no future locks to be released, delete the lock vault\n    if (!hasUnDueLocks) {\n      delete tokenLocks[_beneficiary];\n      lockIndexes[lock.lockIndex] = 0x0;\n    }\n\n    return true;\n  }\n}\n",
  "sourcePath": "/Users/mikelduffy/Files/Ecomi/tge-contract/contracts/OMITokenLock.sol",
  "compiler": {
    "name": "solc",
    "version": "0.4.24+commit.e67f0147.Emscripten.clang"
  },
  "schemaVersion": "2.0.0",
  "updatedAt": "2018-06-26T12:23:21.635Z"
}