{
  "contractName": "OMITokenLock",
  "abi": [
    {
      "constant": true,
      "inputs": [],
      "name": "crowdsaleEndTime",
      "outputs": [
        {
          "name": "",
          "type": "uint256"
        }
      ],
      "payable": false,
      "stateMutability": "view",
      "type": "function"
    },
    {
      "constant": false,
      "inputs": [],
      "name": "unpause",
      "outputs": [],
      "payable": false,
      "stateMutability": "nonpayable",
      "type": "function"
    },
    {
      "constant": true,
      "inputs": [
        {
          "name": "",
          "type": "address"
        }
      ],
      "name": "tokenLocks",
      "outputs": [
        {
          "name": "beneficiary",
          "type": "address"
        },
        {
          "name": "tokenBalance",
          "type": "uint256"
        },
        {
          "name": "lockIndex",
          "type": "uint256"
        }
      ],
      "payable": false,
      "stateMutability": "view",
      "type": "function"
    },
    {
      "constant": true,
      "inputs": [],
      "name": "paused",
      "outputs": [
        {
          "name": "",
          "type": "bool"
        }
      ],
      "payable": false,
      "stateMutability": "view",
      "type": "function"
    },
    {
      "constant": false,
      "inputs": [],
      "name": "pause",
      "outputs": [],
      "payable": false,
      "stateMutability": "nonpayable",
      "type": "function"
    },
    {
      "constant": true,
      "inputs": [],
      "name": "owner",
      "outputs": [
        {
          "name": "",
          "type": "address"
        }
      ],
      "payable": false,
      "stateMutability": "view",
      "type": "function"
    },
    {
      "constant": true,
      "inputs": [],
      "name": "crowdsale",
      "outputs": [
        {
          "name": "",
          "type": "address"
        }
      ],
      "payable": false,
      "stateMutability": "view",
      "type": "function"
    },
    {
      "constant": true,
      "inputs": [],
      "name": "totalTokensLocked",
      "outputs": [
        {
          "name": "",
          "type": "uint256"
        }
      ],
      "payable": false,
      "stateMutability": "view",
      "type": "function"
    },
    {
      "constant": true,
      "inputs": [
        {
          "name": "",
          "type": "uint256"
        }
      ],
      "name": "lockIndexes",
      "outputs": [
        {
          "name": "",
          "type": "address"
        }
      ],
      "payable": false,
      "stateMutability": "view",
      "type": "function"
    },
    {
      "constant": true,
      "inputs": [],
      "name": "crowdsaleFinished",
      "outputs": [
        {
          "name": "",
          "type": "bool"
        }
      ],
      "payable": false,
      "stateMutability": "view",
      "type": "function"
    },
    {
      "constant": false,
      "inputs": [
        {
          "name": "newOwner",
          "type": "address"
        }
      ],
      "name": "transferOwnership",
      "outputs": [],
      "payable": false,
      "stateMutability": "nonpayable",
      "type": "function"
    },
    {
      "constant": true,
      "inputs": [],
      "name": "allowanceProvider",
      "outputs": [
        {
          "name": "",
          "type": "address"
        }
      ],
      "payable": false,
      "stateMutability": "view",
      "type": "function"
    },
    {
      "constant": true,
      "inputs": [],
      "name": "token",
      "outputs": [
        {
          "name": "",
          "type": "address"
        }
      ],
      "payable": false,
      "stateMutability": "view",
      "type": "function"
    },
    {
      "inputs": [
        {
          "name": "_token",
          "type": "address"
        },
        {
          "name": "_allowanceProvider",
          "type": "address"
        }
      ],
      "payable": false,
      "stateMutability": "nonpayable",
      "type": "constructor"
    },
    {
      "anonymous": false,
      "inputs": [
        {
          "indexed": true,
          "name": "beneficiary",
          "type": "address"
        },
        {
          "indexed": false,
          "name": "amount",
          "type": "uint256"
        },
        {
          "indexed": false,
          "name": "releaseTime",
          "type": "uint256"
        }
      ],
      "name": "LockedTokens",
      "type": "event"
    },
    {
      "anonymous": false,
      "inputs": [
        {
          "indexed": true,
          "name": "beneficiary",
          "type": "address"
        },
        {
          "indexed": false,
          "name": "amount",
          "type": "uint256"
        }
      ],
      "name": "UnlockedTokens",
      "type": "event"
    },
    {
      "anonymous": false,
      "inputs": [],
      "name": "FinishedCrowdsale",
      "type": "event"
    },
    {
      "anonymous": false,
      "inputs": [],
      "name": "Pause",
      "type": "event"
    },
    {
      "anonymous": false,
      "inputs": [],
      "name": "Unpause",
      "type": "event"
    },
    {
      "anonymous": false,
      "inputs": [
        {
          "indexed": true,
          "name": "previousOwner",
          "type": "address"
        },
        {
          "indexed": true,
          "name": "newOwner",
          "type": "address"
        }
      ],
      "name": "OwnershipTransferred",
      "type": "event"
    },
    {
      "constant": false,
      "inputs": [
        {
          "name": "_crowdsale",
          "type": "address"
        }
      ],
      "name": "setCrowdsaleAddress",
      "outputs": [
        {
          "name": "",
          "type": "bool"
        }
      ],
      "payable": false,
      "stateMutability": "nonpayable",
      "type": "function"
    },
    {
      "constant": false,
      "inputs": [
        {
          "name": "_allowanceProvider",
          "type": "address"
        }
      ],
      "name": "setAllowanceAddress",
      "outputs": [
        {
          "name": "",
          "type": "bool"
        }
      ],
      "payable": false,
      "stateMutability": "nonpayable",
      "type": "function"
    },
    {
      "constant": false,
      "inputs": [],
      "name": "finishCrowdsale",
      "outputs": [],
      "payable": false,
      "stateMutability": "nonpayable",
      "type": "function"
    },
    {
      "constant": true,
      "inputs": [
        {
          "name": "_beneficiary",
          "type": "address"
        }
      ],
      "name": "getTokenBalance",
      "outputs": [
        {
          "name": "",
          "type": "uint256"
        }
      ],
      "payable": false,
      "stateMutability": "view",
      "type": "function"
    },
    {
      "constant": true,
      "inputs": [
        {
          "name": "_beneficiary",
          "type": "address"
        }
      ],
      "name": "getNumberOfLocks",
      "outputs": [
        {
          "name": "",
          "type": "uint256"
        }
      ],
      "payable": false,
      "stateMutability": "view",
      "type": "function"
    },
    {
      "constant": true,
      "inputs": [
        {
          "name": "_beneficiary",
          "type": "address"
        },
        {
          "name": "_lockIndex",
          "type": "uint256"
        }
      ],
      "name": "getLockByIndex",
      "outputs": [
        {
          "name": "amount",
          "type": "uint256"
        },
        {
          "name": "lockDuration",
          "type": "uint256"
        },
        {
          "name": "released",
          "type": "bool"
        },
        {
          "name": "revoked",
          "type": "bool"
        }
      ],
      "payable": false,
      "stateMutability": "view",
      "type": "function"
    },
    {
      "constant": false,
      "inputs": [
        {
          "name": "_beneficiary",
          "type": "address"
        },
        {
          "name": "_lockIndex",
          "type": "uint256"
        }
      ],
      "name": "revokeLockByIndex",
      "outputs": [
        {
          "name": "",
          "type": "bool"
        }
      ],
      "payable": false,
      "stateMutability": "nonpayable",
      "type": "function"
    },
    {
      "constant": false,
      "inputs": [
        {
          "name": "_beneficiary",
          "type": "address"
        },
        {
          "name": "_lockDuration",
          "type": "uint256"
        },
        {
          "name": "_tokens",
          "type": "uint256"
        }
      ],
      "name": "lockTokens",
      "outputs": [],
      "payable": false,
      "stateMutability": "nonpayable",
      "type": "function"
    },
    {
      "constant": false,
      "inputs": [],
      "name": "releaseTokens",
      "outputs": [
        {
          "name": "",
          "type": "bool"
        }
      ],
      "payable": false,
      "stateMutability": "nonpayable",
      "type": "function"
    },
    {
      "constant": false,
      "inputs": [
        {
          "name": "_from",
          "type": "uint256"
        },
        {
          "name": "_to",
          "type": "uint256"
        }
      ],
      "name": "releaseAll",
      "outputs": [
        {
          "name": "",
          "type": "bool"
        }
      ],
      "payable": false,
      "stateMutability": "nonpayable",
      "type": "function"
    }
  ],
  "bytecode": "0x608060405260008060146101000a81548160ff0219169083151502179055506000600360146101000a81548160ff02191690831515021790555034801561004557600080fd5b506040516040806123ec8339810180604052810190808051906020019092919080519060200190929190505050336000806101000a81548173ffffffffffffffffffffffffffffffffffffffff021916908373ffffffffffffffffffffffffffffffffffffffff16021790555081600160006101000a81548173ffffffffffffffffffffffffffffffffffffffff021916908373ffffffffffffffffffffffffffffffffffffffff16021790555080600260006101000a81548173ffffffffffffffffffffffffffffffffffffffff021916908373ffffffffffffffffffffffffffffffffffffffff16021790555050506122a7806101456000396000f300608060405260043610610133576000357c0100000000000000000000000000000000000000000000000000000000900463ffffffff16806308f53f44146101385780631374eb6f146101935780631d545d09146102115780631f35bc401461023c5780633aecd0e3146102975780633f4ba83a146102ee57806356b63df7146103055780635c975abb146103965780638456cb59146103c55780638cc5e56e146103dc5780638da5cb5b146104415780639c1e03a014610498578063a25983e5146104ef578063a96f866814610546578063b261f82f14610575578063b80cdcf6146105c4578063dc5bf961146105db578063e729b41614610606578063ece84fd514610673578063ef79a35f146106a2578063f2fde38b146106f9578063f9d0fed41461073c578063fc0c546a14610793575b600080fd5b34801561014457600080fd5b50610179600480360381019080803573ffffffffffffffffffffffffffffffffffffffff1690602001909291905050506107ea565b604051808215151515815260200191505060405180910390f35b34801561019f57600080fd5b506101de600480360381019080803573ffffffffffffffffffffffffffffffffffffffff16906020019092919080359060200190929190505050610891565b60405180858152602001848152602001831515151581526020018215151515815260200194505050505060405180910390f35b34801561021d57600080fd5b50610226610abd565b6040518082815260200191505060405180910390f35b34801561024857600080fd5b5061027d600480360381019080803573ffffffffffffffffffffffffffffffffffffffff169060200190929190505050610ac3565b604051808215151515815260200191505060405180910390f35b3480156102a357600080fd5b506102d8600480360381019080803573ffffffffffffffffffffffffffffffffffffffff169060200190929190505050610b6a565b6040518082815260200191505060405180910390f35b3480156102fa57600080fd5b50610303610bb6565b005b34801561031157600080fd5b50610346600480360381019080803573ffffffffffffffffffffffffffffffffffffffff169060200190929190505050610c74565b604051808473ffffffffffffffffffffffffffffffffffffffff1673ffffffffffffffffffffffffffffffffffffffff168152602001838152602001828152602001935050505060405180910390f35b3480156103a257600080fd5b506103ab610cbe565b604051808215151515815260200191505060405180910390f35b3480156103d157600080fd5b506103da610cd1565b005b3480156103e857600080fd5b50610427600480360381019080803573ffffffffffffffffffffffffffffffffffffffff16906020019092919080359060200190929190505050610d91565b604051808215151515815260200191505060405180910390f35b34801561044d57600080fd5b50610456610f62565b604051808273ffffffffffffffffffffffffffffffffffffffff1673ffffffffffffffffffffffffffffffffffffffff16815260200191505060405180910390f35b3480156104a457600080fd5b506104ad610f87565b604051808273ffffffffffffffffffffffffffffffffffffffff1673ffffffffffffffffffffffffffffffffffffffff16815260200191505060405180910390f35b3480156104fb57600080fd5b50610544600480360381019080803573ffffffffffffffffffffffffffffffffffffffff1690602001909291908035906020019092919080359060200190929190505050610fad565b005b34801561055257600080fd5b5061055b61148d565b604051808215151515815260200191505060405180910390f35b34801561058157600080fd5b506105aa60048036038101908080359060200190929190803590602001909291905050506114e0565b604051808215151515815260200191505060405180910390f35b3480156105d057600080fd5b506105d9611618565b005b3480156105e757600080fd5b506105f0611753565b6040518082815260200191505060405180910390f35b34801561061257600080fd5b5061063160048036038101908080359060200190929190505050611759565b604051808273ffffffffffffffffffffffffffffffffffffffff1673ffffffffffffffffffffffffffffffffffffffff16815260200191505060405180910390f35b34801561067f57600080fd5b50610688611797565b604051808215151515815260200191505060405180910390f35b3480156106ae57600080fd5b506106e3600480360381019080803573ffffffffffffffffffffffffffffffffffffffff1690602001909291905050506117aa565b6040518082815260200191505060405180910390f35b34801561070557600080fd5b5061073a600480360381019080803573ffffffffffffffffffffffffffffffffffffffff1690602001909291905050506117f9565b005b34801561074857600080fd5b5061075161194e565b604051808273ffffffffffffffffffffffffffffffffffffffff1673ffffffffffffffffffffffffffffffffffffffff16815260200191505060405180910390f35b34801561079f57600080fd5b506107a8611974565b604051808273ffffffffffffffffffffffffffffffffffffffff1673ffffffffffffffffffffffffffffffffffffffff16815260200191505060405180910390f35b60008060009054906101000a900473ffffffffffffffffffffffffffffffffffffffff1673ffffffffffffffffffffffffffffffffffffffff163373ffffffffffffffffffffffffffffffffffffffff1614151561084757600080fd5b81600260006101000a81548173ffffffffffffffffffffffffffffffffffffffff021916908373ffffffffffffffffffffffffffffffffffffffff16021790555060019050919050565b600080600080600085101515156108a757600080fd5b6109006001600560008973ffffffffffffffffffffffffffffffffffffffff1673ffffffffffffffffffffffffffffffffffffffff1681526020019081526020016000206003018054905061199a90919063ffffffff16565b851115151561090e57600080fd5b600560008773ffffffffffffffffffffffffffffffffffffffff1673ffffffffffffffffffffffffffffffffffffffff1681526020019081526020016000206003018581548110151561095d57fe5b906000526020600020906003020160000154600560008873ffffffffffffffffffffffffffffffffffffffff1673ffffffffffffffffffffffffffffffffffffffff168152602001908152602001600020600301868154811015156109be57fe5b906000526020600020906003020160010154600560008973ffffffffffffffffffffffffffffffffffffffff1673ffffffffffffffffffffffffffffffffffffffff16815260200190815260200160002060030187815481101515610a1f57fe5b906000526020600020906003020160020160009054906101000a900460ff16600560008a73ffffffffffffffffffffffffffffffffffffffff1673ffffffffffffffffffffffffffffffffffffffff16815260200190815260200160002060030188815481101515610a8d57fe5b906000526020600020906003020160020160019054906101000a900460ff16935093509350935092959194509250565b60045481565b60008060009054906101000a900473ffffffffffffffffffffffffffffffffffffffff1673ffffffffffffffffffffffffffffffffffffffff163373ffffffffffffffffffffffffffffffffffffffff16141515610b2057600080fd5b81600360006101000a81548173ffffffffffffffffffffffffffffffffffffffff021916908373ffffffffffffffffffffffffffffffffffffffff16021790555060019050919050565b6000600560008373ffffffffffffffffffffffffffffffffffffffff1673ffffffffffffffffffffffffffffffffffffffff168152602001908152602001600020600101549050919050565b6000809054906101000a900473ffffffffffffffffffffffffffffffffffffffff1673ffffffffffffffffffffffffffffffffffffffff163373ffffffffffffffffffffffffffffffffffffffff16141515610c1157600080fd5b600060149054906101000a900460ff161515610c2c57600080fd5b60008060146101000a81548160ff0219169083151502179055507f7805862f689e2f13df9f062ff482ad3ad112aca9e0847911ed832e158c525b3360405160405180910390a1565b60056020528060005260406000206000915090508060000160009054906101000a900473ffffffffffffffffffffffffffffffffffffffff16908060010154908060020154905083565b600060149054906101000a900460ff1681565b6000809054906101000a900473ffffffffffffffffffffffffffffffffffffffff1673ffffffffffffffffffffffffffffffffffffffff163373ffffffffffffffffffffffffffffffffffffffff16141515610d2c57600080fd5b600060149054906101000a900460ff16151515610d4857600080fd5b6001600060146101000a81548160ff0219169083151502179055507f6985a02210a168e66602d3235cb6db0e70f92b3ba4d376a33c0f3d9434bff62560405160405180910390a1565b60008060009054906101000a900473ffffffffffffffffffffffffffffffffffffffff1673ffffffffffffffffffffffffffffffffffffffff163373ffffffffffffffffffffffffffffffffffffffff16141515610dee57600080fd5b60008210151515610dfe57600080fd5b610e576001600560008673ffffffffffffffffffffffffffffffffffffffff1673ffffffffffffffffffffffffffffffffffffffff1681526020019081526020016000206003018054905061199a90919063ffffffff16565b8211151515610e6557600080fd5b600560008473ffffffffffffffffffffffffffffffffffffffff1673ffffffffffffffffffffffffffffffffffffffff16815260200190815260200160002060030182815481101515610eb457fe5b906000526020600020906003020160020160019054906101000a900460ff16151515610edf57600080fd5b6001600560008573ffffffffffffffffffffffffffffffffffffffff1673ffffffffffffffffffffffffffffffffffffffff16815260200190815260200160002060030183815481101515610f3057fe5b906000526020600020906003020160020160016101000a81548160ff0219169083151502179055506001905092915050565b6000809054906101000a900473ffffffffffffffffffffffffffffffffffffffff1681565b600360009054906101000a900473ffffffffffffffffffffffffffffffffffffffff1681565b60008060009054906101000a900473ffffffffffffffffffffffffffffffffffffffff1673ffffffffffffffffffffffffffffffffffffffff163373ffffffffffffffffffffffffffffffffffffffff1614806110575750600360009054906101000a900473ffffffffffffffffffffffffffffffffffffffff1673ffffffffffffffffffffffffffffffffffffffff163373ffffffffffffffffffffffffffffffffffffffff16145b151561106257600080fd5b600060149054906101000a900460ff1615151561107e57600080fd5b6000831015151561108e57600080fd5b60008211151561109d57600080fd5b600160009054906101000a900473ffffffffffffffffffffffffffffffffffffffff1673ffffffffffffffffffffffffffffffffffffffff1663dd62ed3e600260009054906101000a900473ffffffffffffffffffffffffffffffffffffffff16306040518363ffffffff167c0100000000000000000000000000000000000000000000000000000000028152600401808373ffffffffffffffffffffffffffffffffffffffff1673ffffffffffffffffffffffffffffffffffffffff1681526020018273ffffffffffffffffffffffffffffffffffffffff1673ffffffffffffffffffffffffffffffffffffffff16815260200192505050602060405180830381600087803b1580156111b057600080fd5b505af11580156111c4573d6000803e3d6000fd5b505050506040513d60208110156111da57600080fd5b8101908080519060200190929190505050611200600754846119b390919063ffffffff16565b1115151561120d57600080fd5b600560008573ffffffffffffffffffffffffffffffffffffffff1673ffffffffffffffffffffffffffffffffffffffff168152602001908152602001600020905060008160000160009054906101000a900473ffffffffffffffffffffffffffffffffffffffff1673ffffffffffffffffffffffffffffffffffffffff16141561134957838160000160006101000a81548173ffffffffffffffffffffffffffffffffffffffff021916908373ffffffffffffffffffffffffffffffffffffffff160217905550600680549050816002018190555060068490806001815401808255809150509060018203906000526020600020016000909192909190916101000a81548173ffffffffffffffffffffffffffffffffffffffff021916908373ffffffffffffffffffffffffffffffffffffffff160217905550505b806003016080604051908101604052808481526020018581526020016000151581526020016000151581525090806001815401808255809150509060018203906000526020600020906003020160009091929091909150600082015181600001556020820151816001015560408201518160020160006101000a81548160ff02191690831515021790555060608201518160020160016101000a81548160ff02191690831515021790555050505061140e8282600101546119b390919063ffffffff16565b816001018190555061142b600754836119b390919063ffffffff16565b6007819055508373ffffffffffffffffffffffffffffffffffffffff167f96480d0485518da027da30c099c5ed78006afe441dbb13b237bbc485bfa886c08385604051808381526020018281526020019250505060405180910390a250505050565b60008060149054906101000a900460ff161515156114aa57600080fd5b600360149054906101000a900460ff1615156114c557600080fd5b6114ce336119d1565b15156114d957600080fd5b6001905090565b600080600060149054906101000a900460ff161515156114ff57600080fd5b6000809054906101000a900473ffffffffffffffffffffffffffffffffffffffff1673ffffffffffffffffffffffffffffffffffffffff163373ffffffffffffffffffffffffffffffffffffffff1614151561155a57600080fd5b6000841015151561156a57600080fd5b828410151561157857600080fd5b600680549050831115151561158c57600080fd5b600360149054906101000a900460ff1615156115a757600080fd5b8390505b8281101561160d576115f56006828154811015156115c557fe5b9060005260206000200160009054906101000a900473ffffffffffffffffffffffffffffffffffffffff166119d1565b151561160057600080fd5b80806001019150506115ab565b600191505092915050565b6000809054906101000a900473ffffffffffffffffffffffffffffffffffffffff1673ffffffffffffffffffffffffffffffffffffffff163373ffffffffffffffffffffffffffffffffffffffff1614806116c05750600360009054906101000a900473ffffffffffffffffffffffffffffffffffffffff1673ffffffffffffffffffffffffffffffffffffffff163373ffffffffffffffffffffffffffffffffffffffff16145b15156116cb57600080fd5b600060149054906101000a900460ff161515156116e757600080fd5b600360149054906101000a900460ff1615151561170357600080fd5b6001600360146101000a81548160ff021916908315150217905550426004819055507f0fb04ec744c7fb4b7d197467d36ec332dbfb98aa6fe19b6469e9a758714c8b0a60405160405180910390a1565b60075481565b60068181548110151561176857fe5b906000526020600020016000915054906101000a900473ffffffffffffffffffffffffffffffffffffffff1681565b600360149054906101000a900460ff1681565b6000600560008373ffffffffffffffffffffffffffffffffffffffff1673ffffffffffffffffffffffffffffffffffffffff168152602001908152602001600020600301805490509050919050565b6000809054906101000a900473ffffffffffffffffffffffffffffffffffffffff1673ffffffffffffffffffffffffffffffffffffffff163373ffffffffffffffffffffffffffffffffffffffff1614151561185457600080fd5b600073ffffffffffffffffffffffffffffffffffffffff168173ffffffffffffffffffffffffffffffffffffffff161415151561189057600080fd5b8073ffffffffffffffffffffffffffffffffffffffff166000809054906101000a900473ffffffffffffffffffffffffffffffffffffffff1673ffffffffffffffffffffffffffffffffffffffff167f8be0079c531659141344cd1fd0a4f28419497f9722a3daafe3b4186f6b6457e060405160405180910390a3806000806101000a81548173ffffffffffffffffffffffffffffffffffffffff021916908373ffffffffffffffffffffffffffffffffffffffff16021790555050565b600260009054906101000a900473ffffffffffffffffffffffffffffffffffffffff1681565b600160009054906101000a900473ffffffffffffffffffffffffffffffffffffffff1681565b60008282111515156119a857fe5b818303905092915050565b60008082840190508381101515156119c757fe5b8091505092915050565b60006119db612194565b6000806119e66121d3565b600060149054906101000a900460ff16151515611a0257600080fd5b600560008773ffffffffffffffffffffffffffffffffffffffff1673ffffffffffffffffffffffffffffffffffffffff168152602001908152602001600020608060405190810160405290816000820160009054906101000a900473ffffffffffffffffffffffffffffffffffffffff1673ffffffffffffffffffffffffffffffffffffffff1673ffffffffffffffffffffffffffffffffffffffff168152602001600182015481526020016002820154815260200160038201805480602002602001604051908101604052809291908181526020016000905b82821015611b5957838290600052602060002090600302016080604051908101604052908160008201548152602001600182015481526020016002820160009054906101000a900460ff161515151581526020016002820160019054906101000a900460ff16151515158152505081526020019060010190611adc565b505050508152505093508573ffffffffffffffffffffffffffffffffffffffff16846000015173ffffffffffffffffffffffffffffffffffffffff16141515611ba157600080fd5b60008673ffffffffffffffffffffffffffffffffffffffff1614151515611bc757600080fd5b60009250600091505b83606001515182101561209957836060015182815181101515611bef57fe5b906020019060200201519050806040015180611c0c575080606001515b15611c165761208c565b42611c3082602001516004546119b390919063ffffffff16565b101515611c40576001925061208c565b600160009054906101000a900473ffffffffffffffffffffffffffffffffffffffff1673ffffffffffffffffffffffffffffffffffffffff1663dd62ed3e600260009054906101000a900473ffffffffffffffffffffffffffffffffffffffff16306040518363ffffffff167c0100000000000000000000000000000000000000000000000000000000028152600401808373ffffffffffffffffffffffffffffffffffffffff1673ffffffffffffffffffffffffffffffffffffffff1681526020018273ffffffffffffffffffffffffffffffffffffffff1673ffffffffffffffffffffffffffffffffffffffff16815260200192505050602060405180830381600087803b158015611d5357600080fd5b505af1158015611d67573d6000803e3d6000fd5b505050506040513d6020811015611d7d57600080fd5b8101908080519060200190929190505050816000015111151515611da057600080fd5b8573ffffffffffffffffffffffffffffffffffffffff167faf08a4db36432bb5cbbfdfcf5af1040246483dc0dae8a9616cc79816c432fee982600001516040518082815260200191505060405180910390a26001600560008873ffffffffffffffffffffffffffffffffffffffff1673ffffffffffffffffffffffffffffffffffffffff16815260200190815260200160002060030183815481101515611e4357fe5b906000526020600020906003020160020160006101000a81548160ff021916908315150217905550611ec48160000151600560008973ffffffffffffffffffffffffffffffffffffffff1673ffffffffffffffffffffffffffffffffffffffff1681526020019081526020016000206001015461199a90919063ffffffff16565b600560008873ffffffffffffffffffffffffffffffffffffffff1673ffffffffffffffffffffffffffffffffffffffff16815260200190815260200160002060010181905550611f23816000015160075461199a90919063ffffffff16565b600781905550600160009054906101000a900473ffffffffffffffffffffffffffffffffffffffff1673ffffffffffffffffffffffffffffffffffffffff166323b872dd600260009054906101000a900473ffffffffffffffffffffffffffffffffffffffff168884600001516040518463ffffffff167c0100000000000000000000000000000000000000000000000000000000028152600401808473ffffffffffffffffffffffffffffffffffffffff1673ffffffffffffffffffffffffffffffffffffffff1681526020018373ffffffffffffffffffffffffffffffffffffffff1673ffffffffffffffffffffffffffffffffffffffff1681526020018281526020019350505050602060405180830381600087803b15801561204857600080fd5b505af115801561205c573d6000803e3d6000fd5b505050506040513d602081101561207257600080fd5b8101908080519060200190929190505050151561208b57fe5b5b8180600101925050611bd0565b82151561218757600560008773ffffffffffffffffffffffffffffffffffffffff1673ffffffffffffffffffffffffffffffffffffffff168152602001908152602001600020600080820160006101000a81549073ffffffffffffffffffffffffffffffffffffffff0219169055600182016000905560028201600090556003820160006121279190612200565b505060006006856040015181548110151561213e57fe5b9060005260206000200160006101000a81548173ffffffffffffffffffffffffffffffffffffffff021916908373ffffffffffffffffffffffffffffffffffffffff1602179055505b6001945050505050919050565b608060405190810160405280600073ffffffffffffffffffffffffffffffffffffffff1681526020016000815260200160008152602001606081525090565b60806040519081016040528060008152602001600081526020016000151581526020016000151581525090565b50805460008255600302906000526020600020908101906122219190612224565b50565b61227891905b808211156122745760008082016000905560018201600090556002820160006101000a81549060ff02191690556002820160016101000a81549060ff02191690555060030161222a565b5090565b905600a165627a7a723058204d49e6fdda4b2eb05ca209bae977401312b0fe9da5279da3b286d4786d9bea1b0029",
  "source": "pragma solidity ^0.4.24;\n\nimport \"./OMIToken.sol\";\nimport \"./OMICrowdsale.sol\";\nimport \"../node_modules/zeppelin-solidity/contracts/ownership/Ownable.sol\";\nimport \"../node_modules/zeppelin-solidity/contracts/math/SafeMath.sol\";\nimport \"../node_modules/zeppelin-solidity/contracts/lifecycle/Pausable.sol\";\n\n/// @title OMITokenLock\n/// @author Mikel Duffy - <mikel@ecomi.com>\n/// @dev OMITokenLock is a token holder contract that will allow multiple beneficiaries to extract the tokens after a given release time. It is a modification of the OpenZeppenlin TokenLock to allow for one token lock smart contract for many beneficiaries.\ncontract OMITokenLock is Ownable, Pausable {\n  using SafeMath for uint256;\n\n  /*\n   *  Storage\n   */\n  OMIToken public token;\n  address public allowanceProvider;\n  OMICrowdsale public crowdsale;\n  bool public crowdsaleFinished = false;\n  uint256 public crowdsaleEndTime;\n\n  struct Lock {\n    uint256 amount;\n    uint256 lockDuration;\n    bool released;\n    bool revoked;\n  }\n  struct TokenLockVault {\n    address beneficiary;\n    uint256 tokenBalance;\n    uint256 lockIndex;\n    Lock[] locks;\n  }\n  mapping(address => TokenLockVault) public tokenLocks;\n  address[] public lockIndexes;\n  uint256 public totalTokensLocked;\n\n  /*\n   *  Modifiers\n   */\n  modifier ownerOrCrowdsale () {\n    require(msg.sender == owner || OMICrowdsale(msg.sender) == crowdsale);\n    _;\n  }\n\n  /*\n   *  Events\n   */\n  event LockedTokens(address indexed beneficiary, uint256 amount, uint256 releaseTime);\n  event UnlockedTokens(address indexed beneficiary, uint256 amount);\n  event FinishedCrowdsale();\n\n  /*\n   *  Public Functions\n   */\n  /// @dev Constructor function\n  function OMITokenLock (OMIToken _token, address _allowanceProvider) public {\n    token = _token;\n    allowanceProvider = _allowanceProvider;\n  }\n\n  /// @dev Sets the crowdsale address to allow authorize locking permissions\n  /// @param _crowdsale The address of the crowdsale\n  function setCrowdsaleAddress (OMICrowdsale _crowdsale)\n    public\n    onlyOwner\n    returns (bool)\n  {\n    crowdsale = _crowdsale;\n    return true;\n  }\n\n  /// @dev Sets the token allowance provider address\n  /// @param _allowanceProvider The address of the token allowance provider\n  function setAllowanceAddress (address _allowanceProvider)\n    public\n    onlyOwner\n    returns (bool)\n  {\n    allowanceProvider = _allowanceProvider;\n    return true;\n  }\n\n  /// @dev Marks the crowdsale as being finished and sets the crowdsale finish date\n  function finishCrowdsale()\n    public\n    ownerOrCrowdsale\n    whenNotPaused\n  {\n    require(!crowdsaleFinished);\n    crowdsaleFinished = true;\n    crowdsaleEndTime = now;\n    FinishedCrowdsale();\n  }\n\n  /// @dev Gets the total amount of tokens for a given address\n  /// @param _beneficiary The address for which to look up the total token amount\n  function getTokenBalance(address _beneficiary)\n    public\n    view\n    returns (uint)\n  {\n    return tokenLocks[_beneficiary].tokenBalance;\n  }\n\n  /// @dev Gets the total number of locks for a given address\n  /// @param _beneficiary The address for which to look up the total number of locks\n  function getNumberOfLocks(address _beneficiary)\n    public\n    view\n    returns (uint)\n  {\n    return tokenLocks[_beneficiary].locks.length;\n  }\n\n  /// @dev Gets the lock at a given index for a given address\n  /// @param _beneficiary The address used to look up the lock\n  /// @param _lockIndex The index used to look up the lock\n  function getLockByIndex(address _beneficiary, uint256 _lockIndex)\n    public\n    view\n    returns (uint256 amount, uint256 lockDuration, bool released, bool revoked)\n  {\n    require(_lockIndex >= 0);\n    require(_lockIndex <= tokenLocks[_beneficiary].locks.length.sub(1));\n\n    return (\n      tokenLocks[_beneficiary].locks[_lockIndex].amount,\n      tokenLocks[_beneficiary].locks[_lockIndex].lockDuration,\n      tokenLocks[_beneficiary].locks[_lockIndex].released,\n      tokenLocks[_beneficiary].locks[_lockIndex].revoked\n    );\n  }\n\n  /// @dev Revokes the lock at a given index for a given address\n  /// @param _beneficiary The address used to look up the lock\n  /// @param _lockIndex The lock index to be revoked\n  function revokeLockByIndex(address _beneficiary, uint256 _lockIndex)\n    public\n    onlyOwner\n    returns (bool)\n  {\n    require(_lockIndex >= 0);\n    require(_lockIndex <= tokenLocks[_beneficiary].locks.length.sub(1));\n    require(!tokenLocks[_beneficiary].locks[_lockIndex].revoked);\n\n    tokenLocks[_beneficiary].locks[_lockIndex].revoked = true;\n\n    return true;\n  }\n\n  /// @dev Locks tokens for a given beneficiary\n  /// @param _beneficiary The address to which the tokens will be released\n  /// @param _lockDuration The duration of time that must elapse after the crowdsale end date\n  /// @param _tokens The amount of tokens to be locked\n  function lockTokens(address _beneficiary, uint256 _lockDuration, uint256 _tokens)\n    external\n    ownerOrCrowdsale\n    whenNotPaused\n  {\n    // Lock duration must be greater than zero seconds\n    require(_lockDuration >= 0);\n    // Token amount must be greater than zero\n    require(_tokens > 0);\n\n    // Token Lock must have a sufficient allowance prior to creating locks\n    require(_tokens.add(totalTokensLocked) <= token.allowance(allowanceProvider, address(this)));\n\n    TokenLockVault storage lock = tokenLocks[_beneficiary];\n\n    // If this is the first lock for this beneficiary, add their address to the lock indexes\n    if (lock.beneficiary == 0) {\n      lock.beneficiary = _beneficiary;\n      lock.lockIndex = lockIndexes.length;\n      lockIndexes.push(_beneficiary);\n    }\n\n    // Add the lock\n    lock.locks.push(Lock(_tokens, _lockDuration, false, false));\n\n    // Update the total tokens for this beneficiary\n    lock.tokenBalance = lock.tokenBalance.add(_tokens);\n\n    // Update the number of locked tokens\n    totalTokensLocked = _tokens.add(totalTokensLocked);\n\n    LockedTokens(_beneficiary, _tokens, _lockDuration);\n  }\n\n  /// @dev Transfers any tokens held in a timelock vault to beneficiary if they are due for release.\n  function releaseTokens()\n    public\n    whenNotPaused\n    returns(bool)\n  {\n    require(crowdsaleFinished);\n    require(_release(msg.sender));\n    return true;\n  }\n\n  /// @dev Transfers tokens held by timelock to all beneficiaries within the provided range.\n  /// @param _from the start lock index\n  /// @param _to the end lock index\n  function releaseAll(uint256 _from, uint256 _to)\n    external\n    whenNotPaused\n    onlyOwner\n    returns (bool)\n  {\n    require(_from >= 0);\n    require(_from < _to);\n    require(_to <= lockIndexes.length);\n    require(crowdsaleFinished);\n\n    for (uint256 i = _from; i < _to; i++) {\n      require(_release(lockIndexes[i]));\n    }\n    return true;\n  }\n\n  /*\n   *  Internal Functions\n   */\n  /// @dev Reviews and releases token for a given beneficiary\n  /// @param _beneficiary address for which a token release should be attempted\n  function _release(address _beneficiary)\n    internal\n    whenNotPaused\n    returns (bool)\n  {\n    TokenLockVault memory lock = tokenLocks[_beneficiary];\n    require(lock.beneficiary == _beneficiary);\n    require(_beneficiary != 0x0);\n\n    bool hasUnDueLocks = false;\n\n    for (uint256 i = 0; i < lock.locks.length; i++) {\n      Lock memory currentLock = lock.locks[i];\n      // Skip any locks which are already released or revoked\n      if (currentLock.released || currentLock.revoked) {\n        continue;\n      }\n\n      // Skip any locks that are not due for release\n      if (crowdsaleEndTime.add(currentLock.lockDuration) >= now) {\n        hasUnDueLocks = true;\n        continue;\n      }\n\n      // The amount of tokens to transfer must be less than the number of locked tokens\n      require(currentLock.amount <= token.allowance(allowanceProvider, address(this)));\n\n      // Release Tokens\n      UnlockedTokens(_beneficiary, currentLock.amount);\n      tokenLocks[_beneficiary].locks[i].released = true;\n      tokenLocks[_beneficiary].tokenBalance = tokenLocks[_beneficiary].tokenBalance.sub(currentLock.amount);\n      totalTokensLocked = totalTokensLocked.sub(currentLock.amount);\n      assert(token.transferFrom(allowanceProvider, _beneficiary, currentLock.amount));\n    }\n\n    // If there are no future locks to be released, delete the lock vault\n    if (!hasUnDueLocks) {\n      delete tokenLocks[_beneficiary];\n      lockIndexes[lock.lockIndex] = 0x0;\n    }\n\n    return true;\n  }\n}\n",
  "sourcePath": "/Users/mikelduffy/Files/Ecomi/tge-contract/contracts/OMITokenLock.sol",
  "compiler": {
    "name": "solc",
    "version": "0.4.24+commit.e67f0147.Emscripten.clang"
  },
  "schemaVersion": "2.0.0",
  "updatedAt": "2018-06-26T09:52:23.866Z"
}